:020000041000EA
:1000000000200008EB0000100D0000004D01001062
:1000100000000000000000000000000000000000E0
:100020000000000000000000000000004901001076
:10003000000000000000000049010010490100100C
:100040004901001049010010490100104901001048
:100050004901001049010010490100104901001038
:100060004901001049010010490100104901001028
:100070004901001049010010490100104901001018
:1000800010B5064C2378002B07D1054B002B02D06E
:10009000044800E000BF0123237010BDB003000836
:1000A000000000000C150010044B10B5002B03D00D
:1000B0000349044800E000BF10BDC0460000000036
:1000C000B40300080C1500100230800803D0013082
:1000D0000238FCD1C046C0467047EFF3108072B6BC
:1000E000704780F3108870477047FFF7FDFF72B6C6
:1000F0000F4C104DAC4209DA21686268A368043BDA
:1001000002DBC858D050FAE70C34F3E70A490B4A2F
:100110000020521A02DD043A8850FCDC08480949E4
:100120000860BFF34F8F00F0F9FE00F0A9FEFEE774
:100130001815001030150010B0030008C80500089D
:100140000000000808ED00E0FEE7FEE700B504202F
:100150007146084202D0EFF3098002E0EFF3088015
:10016000043000F08DFCFEE7014B18607047C0467C
:10017000C4050008044B1B681A00BA3212881B6AB7
:100180005043C0187047C046C40500081D4B984234
:100190000FD010D840282FD005D8002830D01028F4
:1001A00028D019481EE0802828D080235B00984280
:1001B000F7D1144816E0154B984214D008D8A02364
:1001C0001B0698421CD0124B9842EAD1A0200BE0AB
:1001D000104B98420AD0104B984209D00F4B9842CE
:1001E000DFD10F487047A420C003FBE70D48F9E7B3
:1001F0000D48F7E70D48F5E70D48F3E70D48F1E73F
:100200000020EFE706005200FF005200010000F05E
:10021000090000A0040000F0050000F0030000F059
:100220000100520002005200030052000100500081
:10023000020050000500520010B50020FFF79AFFA1
:100240000A4B1C682300BC331B68C0180368002BD2
:100250000ADB074B1868FFF799FF012263689A6071
:100260009A68002AFCD110BD0248FCE7C4050008CA
:10027000CC03000802005000064B1B68BC331B680F
:10028000C3181B68002B03DA89B241600020704755
:100290000148FCE7C405000801008A000368002B40
:1002A00004DA89B2C2608160002070470048FCE730
:1002B00001008A00064B1B68BC331B68C3181B680F
:1002C000002B03DAC36800200B6070470148FCE78D
:1002D000C405000801008A00024B1A68002A00D1F8
:1002E00018607047E0030008F0B52C246043154CFB
:1002F0001F0024681D0A2018FF2425402740124CA7
:100300001B0C26680760346A45608360BA363688FD
:1003100077433F1907612F0080376D017F01E7198F
:1003200064190A4D47611F043B436419236000238D
:100330008361059BC2610162002B01D01B88838110
:10034000F0BDC046E0030008C40500080810000026
:10035000F0B5836885B002AD2B800368066A173359
:100360006B804368476A0095826AC16A0400039300
:100370000369C068FFF7B8FF00213B000A00009145
:100380003000FFF7B1FF216B280000F02DFB0022A9
:10039000AB5E002B06DB1F2213401E3A9A4013006F
:1003A000014A136005B0F0BD00E100E0F7B52C256F
:1003B000134C684326686943341825690193711802
:1003C000002D19D08869002818D12E68002E15DA62
:1003D0006768012426004B689E40B44613689EB2AD
:1003E00063461B041E431660EA608C61BC40019B9F
:1003F000A4B24B62AC60FEBD0248FCE70248FAE7DB
:10040000E003000804028A0007028A0073B5002690
:1004100042690400D56801962B0CB34221D01B041D
:1004200013601368194B00691B68BC331B68C31841
:100430001B68B34215DA01A9FFF73CFFB0420CD1AB
:100440000198E26903681E0CDBB29A4205D9226A60
:100450009B009B58002B00D0984731002069FFF784
:100460000BFFADB2002D09D063691D6000251B682C
:10047000636AAB4205D098476562A56163691B68F2
:1004800073BDA36A002BF8D09847F6E7C4050008AF
:100490002C2310B54343034A1068C018FFF7B6FF7A
:1004A00010BDC046E0030008F8B5194B0F001B68EB
:1004B0001A0033321278824227D9002925D01F250D
:1004C0000A68154021D11900BA310C88114E6043D9
:1004D0001C6AD208041929007868346000F07EFF95
:1004E00029002000FFF7C8FE3A0029003068FFF716
:1004F000D5FE041E07D101003068FFF7BDFE0300E2
:100500002000002B00D00448F8BD0448FCE7C0469A
:10051000C4050008E403000801018A0003018A0001
:1005200010B5002A0DD1002914D10B4B1A68130005
:10053000BA331B885843136AC018084B1860080068
:1005400010BD002906D0064B196019005A60FFF74C
:10055000ABFFF5E70348F3E7C4050008E403000830
:100560007803000803018A00F7B5184F04003B68C0
:100570000191DE683368834226D90025A94202D161
:10058000FFF7ABFD050038680368002B1ADA1F225D
:1005900001232240934064097268A4001419226860
:1005A00013420DD09A43226000240021FFF764FE1D
:1005B000019B002B02D12800FFF793FD2000FEBD18
:1005C000034CF2E7034CF3E7034CF7E7E4030008BE
:1005D000020188000301880004018A000A4B1B689D
:1005E000DB681A6882420DD959681F2342091840F6
:1005F0001E3B8340920050581840431E9841034BC5
:10060000C01870470248FCE7E403000800018800B6
:1006100004018A00054B1B681A0088321B681268A7
:100620009B181868000AC0B27047C046C40500088D
:10063000044B1B681A0088321B6812689B181868E4
:10064000000E7047C4050008024B18694007C00F30
:100650007047C04600002740A6220549D2008B58AB
:100660000220DB439B0702D00123885818407047C3
:100670000000264010B5FFF7EFFF0023022801D14C
:10068000014B1B68180010BDEC030008094A8300E9
:100690009B18D0229200985807221040042807D1B6
:1006A000C022920098581F23034080204000184326
:1006B0007047C0460000264010B5FFF7E7FF02284C
:1006C0001CD005D8002824D0012814D0002014E024
:1006D0001223FF33984214D01423FF33984215D0CD
:1006E000033B9842F2D10C4A0C4BD358002BEDDA65
:1006F0008020000201E00A4B186810BDFFF7BAFF26
:10070000FBE7FFF7A1FF0028E0D0F1E7024A054B25
:10071000EBE70548F1E7C046000026400C05000065
:10072000E80300083C05000000127A00B023154AD7
:10073000DB00D35810B59903DB01DB0F890BC371C4
:10074000114B0160D3580F24D904DB01DB0D038169
:10075000B123DB00D358C90C81801900214081727C
:1007600019092140C172D9029B009B0F8373074B6B
:10077000C90CD35881815A05DB01520FDB0D827100
:10078000038210BD00002640840500008C05000097
:1007900010B5104B421E1B683F331B78934216D98D
:1007A0007F221F248030FF300B4B8000C3581A403B
:1007B0000A701A0C2240180A8A701A012040E2407E
:1007C000487000209B009B0FCA700B7110BD03483E
:1007D000FCE7C046C40500080000264001004A00AE
:1007E000F0B589B003AC14220021200000F0F6FD22
:1007F0002000FFF79BFFB0231A4ADB00D2580023EA
:100800009A4203DAA37B023B5A1E9341E579002604
:100810006A1E95410135B34221D0A488B4421ED04E
:10082000039B30000193FFF747FF2A0033000700C6
:100830003100200000F0BCFC0C0005003300019AE0
:100840003100380000F0B4FCE6076A083243630860
:10085000801859412A00230000F08AFC060030006D
:1008600009B0F0BD00002640F0B50026244B85B04D
:100870001B6807003F331B78B3423ED0B0423CD0E8
:1008800083423AD30522310002A800F0A7FD02A955
:100890003800FFF77DFF3B008033FF33194A9B0090
:1008A0009B58B34229DA02AB1B79022B25D002AB4D
:1008B0005C78B44221D09D78B5421ED01B783800B8
:1008C0000193FFF7F9FE2A003300070031002000F2
:1008D00000F06EFC0C0005003300019A3100380076
:1008E00000F066FCE6076A08324363088018594145
:1008F0002A00230000F03CFC0600300005B0F0BDEB
:10090000C40500080000264010B5041E04D1FFF7FE
:1009100067FF002806D008E0064B1B683F331B78B2
:10092000834203D22000FFF7C7FE10BDFFF79CFFF4
:10093000EFE7C046C4050008E02210B50124094BCA
:1009400080009200C018835880589B069B0F9C40E3
:100950000F231840FFF7D8FF63081818210000F094
:100960007BFB10BD00002640144B30B51A680724ED
:1009700013002C331B781F2B15D883081D00A543AB
:100980002C1E0FD103342040A040814012689B00F0
:100990002032D3180A00FF2181401C6862401140B8
:1009A0006140196030BD802320401B06184380231E
:1009B0009B011268C91889008850F3E7C405000834
:1009C000064B9A680300064810339B00824202D10E
:1009D000985899507047034AD058FBE700ED00E063
:1009E0000000000800000010F8B506000D00002807
:1009F0003AD00023C05E002828DB7188FFF7B4FFDF
:100A00000024FF22032794460023F05E716883B21E
:100A10001F40FF006646BA4089013140D243B940C9
:100A2000002815DB114E83089B009B19C026B600D9
:100A30009F593A40114399510D4B9A680D4B9A4278
:100A400002D12900FFF7BCFF2000F8BD0A4CD8E70F
:100A50000F263340083B064E9B089B009B19DE691E
:100A600032401143D961E7E7034CEDE700E100E0D4
:100A700000ED00E00000000801005600FEE7000065
:100A800002680A4B10B51A6042685A6082689A6020
:100A9000C268DA6002691A6142695A6182699A61C0
:100AA000C269DA61FFF7EAFF10BDC0469003000893
:100AB000B0235B055A782120002A01D05878C0B2B3
:100AC0007047B0235B059A89002A02D0988980B2CA
:100AD000704780204000FBE77FB5274B86000D0064
:100AE000F458042901D0012927D100200FE0A36880
:100AF0002B420BD1E36829001A685B6802920193CC
:100B0000039302A8236898471C4B1C606469002C5F
:100B10000BD01B4B9842EAD1012DE8D1174B184856
:100B20001A68184B9A5104B070BD012DFBD1144BBB
:100B30009842F3D0134B9C51F5E7022906D10F4B95
:100B40001B68181EEFD01C6903E01C006369002BB2
:100B5000FBD10020002CE6D0A3682B4209D1E3682A
:100B600029001A685B6802920193039302A8236824
:100B700098472469EEE7C046300400082C040008BA
:100B8000FF004200180400081A4B1B681900883146
:100B90001A68096851180968016219008C310968DE
:100BA0005218126842621A0046321278002A1FD088
:100BB0009A68E0321268D2061AD5F222DB68D201B6
:100BC0009A580260F022D2019A5842600A4A9A5812
:100BD00082600A4A9A58C260094A9A580261094AD0
:100BE0009A584261084A9A588261084A9B58C361E0
:100BF0007047C046C405000804780000087800006B
:100C00000C780000107800001478000018780000BC
:100C10001A4B1B681A008832196812688A18016A10
:100C200011601A008C32196812688A18416A1160C2
:100C30001A0046321278002A1ED09A68E0321268F2
:100C4000D20619D5F0224168DB68D201995081683B
:100C50000B4A9950C1680B4A995001690A4A995048
:100C600041690A4A99508169094A9950C169094AFA
:100C700099500168E83299507047C046C405000891
:100C800004780000087800000C780000107800005C
:100C90001478000018780000F7B50700FFF708FF88
:100CA000664D06006B68002B00D07DE0FFF715FA5B
:100CB0006B680090002B00D089E0614C2268130023
:100CC000BA33198807234B43126A9B181A68002A03
:100CD000FCDADB68DA0021D51B0F1B0759480193AA
:100CE000FFF752FF5849212E00D075E0226890206E
:100CF000130088331C68136800011C1923680B401B
:100D00000343236013008C3312681B68D3181A68DE
:100D10001140084318604B4B019A13438022484E00
:100D20009205316813430A00BA3210880722002462
:100D30004243096A5218D36054605368FFF7C1FEFA
:100D400080235B0098425DD1380000F05DFB326883
:100D50001300BA33198807234B43126A9B181A6889
:100D6000002AFCDADF68FB0003D538010009FFF731
:100D70004FFF364B32681F401300BA3319880723E0
:100D80004B43126A00989B180022DF605A60FFF7FD
:100D9000A8F9002C0FD16B68002B03D0082101208B
:100DA000FFF79AFE2000FEBD01210800FFF794FE28
:100DB000041E00D17AE76B68002B03D002210120CA
:100DC000FFF78AFE224B9C42ECD0224CEAE704213A
:100DD0000120FFF781FE70E720688022030088333E
:100DE0001C68036852001C1923680B4013432360DE
:100DF00003008C3300681B68C318186801400A435D
:100E00001A6088E733681A00BC32196A12685218EF
:100E10001168002910DBBA331B889A181368002B5D
:100E20000ADB04230C4A11690B431361012F01D023
:100E300030BF8CE720BF8AE7054C88E73004000804
:100E4000C4050008F0030008FF00FFFFFFFFFFDFFD
:100E500005004200FF00420000ED00E0C0228020BB
:100E6000064952008B58C0059B009B0803438B50DA
:100E7000802388581B0603438B5070470000264090
:100E800010B562B6034800F0C1F80020FFF704FF78
:100E9000FBE7C0460020001010B50020FFF7F8FA6D
:100EA00010BD704710B50020FFF746FD041E25D089
:100EB000134B1860FFF7BCFB411C200000F0CCF87E
:100EC000104B04001860FFF7A5FB411C200000F048
:100ED000C3F80D4B441E18600C49200000F0BCF80C
:100EE000FA210B4B013018708900200000F0B4F893
:100EF000084B01301860084BC003186010BDC04695
:100F000084000008880000088000000840420F00AC
:100F100094000008900000088C00000810B52048DC
:100F2000FFF722F9B022E02130201E4CD200A35856
:100F300089005B005B08A3506358834363508023A0
:100F40005B04A350184B194AE250A02204339201CB
:100F5000E250FF22164BE250FFF780FFC022012132
:100F60005200A3588B43A350FFF79BFFFFF79AFF54
:100F7000104B03201A681300BA33198807234B4318
:100F8000126A80219B180022DA605A600A4AFFF731
:100F9000C7FA0A48FFF7A0F90948FFF7D9F910BDC9
:100FA0001814001000002640840500000100020013
:100FB0008C050000C40500088003000844040008F4
:100FC000D81400109023034A5B01D0580323184023
:100FD0007047C0460000204010B59024FFF77DF810
:100FE000074B64011A5907491140074A0A431A512D
:100FF000102259681142FCD0FFF773F810BDC046AB
:1010000000002040FCFF00000100FA05F8B5902523
:101010000E4C6D010700FFF760F863590600DB43D3
:101020009B0701D1FFF7D8FF80239B00E75063594E
:10103000074A1A40074B13436351102362681A4250
:10104000FCD03000FFF74DF8F8BDC046000020404E
:10105000FCFF00000300FA05002243088B4274D312
:1010600003098B425FD3030A8B4244D3030B8B42A9
:1010700028D3030C8B420DD3FF22090212BA030CB2
:101080008B4202D31212090265D0030B8B4219D393
:1010900000E0090AC30B8B4201D3CB03C01A5241B3
:1010A000830B8B4201D38B03C01A5241430B8B42FB
:1010B00001D34B03C01A5241030B8B4201D30B03E4
:1010C000C01A5241C30A8B4201D3CB02C01A52410B
:1010D000830A8B4201D38B02C01A5241430A8B42CE
:1010E00001D34B02C01A5241030A8B4201D30B02B7
:1010F000C01A5241CDD2C3098B4201D3CB01C01AD1
:10110000524183098B4201D38B01C01A52414309DA
:101110008B4201D34B01C01A524103098B4201D3C8
:101120000B01C01A5241C3088B4201D3CB00C01A35
:10113000524183088B4201D38B00C01A52414308AD
:101140008B4201D34B00C01A5241411A00D20146D2
:10115000524110467047FFE701B5002000F006F845
:1011600002BDC0460029F7D076E770477047C046F9
:10117000002B11D1002A0FD1002900D1002802D064
:101180000021C943081C07B4024802A1401802907C
:1011900003BDC046D9FFFFFF03B4684601B50298FE
:1011A00000F030F8019B9E4602B00CBC7047C04670
:1011B000F0B5CE46474615042D0C2E0080B5070429
:1011C000140C3F0C9946030C7E435D436743634315
:1011D0007F19340CE4199C46A54203D980235B0295
:1011E0009846C4444B4643435143250C360465445A
:1011F000360C2404A4195B19591820000CBC904625
:101200009946F0BDF0B54F464646D646C0B50400F7
:1012100082B00D00914698468B422FD82CD0414683
:10122000484600F0CFF829000600200000F0CAF878
:10123000331A9C46203B9A4600D576E04B465246F0
:1012400093401F004B46624693401E00AF4228D891
:1012500025D05346A41BBD41002B00DA7BE00022C1
:1012600000230092019301235246934001930123EE
:1012700062469340009318E08242D0D900220023B6
:10128000009201930A9B002B01D01C605D600098C6
:10129000019902B01CBC90469946A246F0BDA342FB
:1012A000D7D900220023009201936346002BE9D096
:1012B000FB079846414672080A437B0866460EE0E3
:1012C000AB4201D1A2420CD8A41A9D41012024199D
:1012D0006D410021013E24184D41002E06D0AB4245
:1012E000EED9013E24196D41002EF8D100980199E4
:1012F000534600196941002B23DB2B005246D34093
:101300002A006446E2401C0053461500002B2DDBEA
:1013100026005746BE40330026006746BE403200D6
:10132000801A994100900191ACE7624620239B1AF4
:101330004A46DA406146130042468A4017001F437E
:1013400080E7624620239B1A2A0066469A402300C3
:10135000F3401343D4E76246202300219B1A002266
:10136000009101920122DA40019280E72023624637
:1013700026009B1ADE402F00B0466646B740464620
:101380003B003343C8E7C0461C2101231B0498429D
:1013900001D3000C10391B0A984201D3000A083906
:1013A0001B09984201D30009043902A2105C4018BD
:1013B0007047C04604030202010101010000000061
:1013C0000000000010B5002903D1FFF7DDFF203039
:1013D00002E0081CFFF7D8FF10BDC046030012183A
:1013E000934200D1704719700133F9E7F8B5C04650
:1013F000F8BC08BC9E467047F8B5C046F8BC08BCAF
:101400009E4670470000000001B40248844601BCBB
:10141000604700BF61020008000020400000244037
:1014200000000040000000000000234000003040A9
:101430000000314000009F400000224000001040AA
:1014400000009D402020202020101010101D1D8025
:1014500017007500FF030602060036041020000086
:101460007FC0000000040000000000000019324BA3
:10147000647D0000000000804000080B10000000A8
:101480000000FF012002001F00800004FF08101868
:10149000001000140018001C4044484C500000008C
:1014A0000810000008000000040000000410000004
:1014B00000120000042100000021000000160000BE
:1014C00040114002C41300138013A013401388136B
:1014D000A81320001C000000030000000100000011
:1014E000010000000000000005036000040000008F
:1014F0000100000000000000010000000604600080
:1015000008000000A4050008990E0010000000006B
:10151000F4FCFF7F01000000000000100000000844
:10152000800000003815001080000008F80200005C
:10153000B00300081802000000093D0000127A0004
:1015400000093D000000D007A00F000004000000CB
:10155000A90000108100001080B230B5C00020D07A
:10156000104B07221C682300BA331B885A43236A96
:10157000D31819680029FCDA3E210B4B06251960A7
:101580000A4B0B491960A3210A4BC9005D500A4957
:1015900058505858206A1218002050605A58002A93
:1015A000FCDA30BDC40500080401264008012640CD
:1015B0001E1F0000000026401C05000010B54378E7
:1015C000FF2B11D100F01CF90400032000F008F9F2
:1015D000C3685A68012311681943116011681942E0
:1015E000FCD1200000F0DCF810BDF7B50090002021
:1015F000019100F0F5F83F4D06002B681A005033BA
:10160000BC3214681B780419002B5AD000F0F0F893
:10161000070003281BD000F0F3F8374A374B0500CA
:10162000D358002B3EDA364A0121300000F0F0F8A2
:10163000002837D10198FFF78FFF009B002B3ED089
:101640002368002BFCDB00F0BBF804002BE0062035
:1016500000F0C6F82B68BC331B68C0180368002B69
:1016600002DA284C2000FEBD002000F0A1F8264B35
:101670009842F6D00023254A19001268012000F094
:10168000A7F80025A842ECD1002000F091F81E4AEE
:101690001F4B904203D09D42E3D00135F4E79D42B9
:1016A000B9D1DEE7174C032F05D10121002000F04E
:1016B000B7F80028F9D1280000F072F8D2E7154CED
:1016C000F1E700F09DF80E4A05000121300000F01E
:1016D0009FF8002809D1009B002B08D02368002B1D
:1016E000FCDB00F06DF80400E5E7064CE3E7094C8D
:1016F000E1E7C046C4050008000026401C050000C4
:10170000CC0300080500520001018800DC0300083A
:10171000F049020001005000184BF7B51B68184A49
:101720005C68042311690B431361012824D030BF86
:101730002300FC331B69002B1DD1A320114B124940
:10174000124AC0000F681E5815680195104D0D60B3
:1017500006251D503E2010600E483E351D501D5878
:10176000002DFCDA0C48FC3420610F60A321C90075
:101770005E50019B1360F7BD20BFD9E7C405000888
:1017800000ED00E00000264008012640040126404C
:101790001E1F00001C050000AAAAAAAA0000000043
:1017A00001B40248844601BC604700BFE30000105A
:1017B00001B40248844601BC604700BFDD0500104B
:1017C00001B40248844601BC604700BF39020010E2
:1017D00001B40248844601BC604700BFAD0300105D
:1017E00001B40248844601BC604700BF7501001087
:1017F00001B40248844601BC604700BFC50F001019
:1018000001B40248844601BC604700BFDB00001001
:1018100001B40248844601BC604700BF9D0200102D
:1018200001B40248844601BC604700BF690500104E
:1018300000000000000000000000000000000000A8
:081840000000000000000000A0
:1020000000F80F081D3D00100D000000913D00106C
:10201000913D0010913D0010913D00100000000026
:102020000000000000000000000000002158001027
:102030008D3D001000000000C1580010C157001075
:102040008D3D00108D3D00108D3D00108D3D001028
:102050008D3D00108D3D00108D3D00108D3D001018
:102060008D3D00108D3D00108D3D00108D3D001008
:102070008D3D00108D3D00108D3D00108D3D0010F8
:1022E00010B5054C237833B9044B13B10448AFF350
:1022F00000800123237010BD182A00080000000090
:102300000C84011008B5034B1BB103490348AFF31C
:10231000008008BD000000001C2A00080C84011089
:1023200030B585B00A9CB4F802C002EB0C224FEA2B
:10233000422C244AA2FB0C52ACEB020C02EB5C02D6
:10234000920A4FF4E67C0CFB02F2B4F808C0B2FB30
:10235000FCF20190ADF80820ADF80E30BDF9203048
:10236000ADF80A30BDF92430ADF80C300B4681B120
:10237000E18891420DD294F8B830CBB14FF6FF739B
:10238000ADF808300023ADF80E30ADF80A30ADF8E6
:102390000C3094F8B8209A420CD084F8B830256AF2
:1023A0006BB14FF49671D4F8BC3001AA2046A8470F
:1023B00005B030BD002AFBD0002BF9D0EDE740F28C
:1023C0002D11F0E7F194BA4D10B582B0049C019440
:1023D000009313460A4601460698603000F040FB21
:1023E00002B010BD10B582B0049C01940093134656
:1023F0000A4601460698843000F008FC02B010BD81
:10240000034608B34FF4804202F30F02028000201B
:10241000588010229A804FF4C062DA804FF4D7724D
:102420001A8103225A8120229A810822DA8141F2FC
:1024300088321A6140F6C4129A82FA22DA82044A79
:102440009A611E221A7770474FF0FF30704700BF25
:10245000A086010030B141B103681962C3F8BC2005
:10246000002070474FF0FF3070474FF0FF3070474B
:10247000E8B1F9B100B50368D1F800E0D1F804C0C3
:102480008868CA68C3F800E0C3F804C09860DA60DE
:10249000D1F810E0D1F814C08869CA69C3F810E017
:1024A000C3F814C09861DA6100205DF804FB4FF0B6
:1024B000FF3070474FF0FF3070470000002800F0F9
:1024C000A9802DE9F04F85B00F4616460446002935
:1024D00000F0A380002A00F0A380EC20904705467E
:1024E0002060002800F09F8039462046FFF7C0FF9B
:1024F000002385F8B830B5F80A90B5F80CB0B5F8F7
:102500000EA04FEA4B084046B047C5F8DC00002853
:1025100000F08C8000242BE007EE904AB8EEE77ABA
:10252000DFED4D7A27EE277A07EE90BAF8EEE77ADC
:10253000F7EE006A77EEE67AC7EE277A17EE900A92
:102540000CF0C4FE07EE900A9FED447A27EE877ADE
:10255000DFED437A77EEC77AFEEEE87A17EE903A2F
:102560001BB203F30F03D5F8DC2022F8143001343A
:102570005C45D1DB4046B047C5F8C400002858D0C0
:10258000A98905F1C80001F086FE0023C5F8D830FE
:102590000BFB09FB4FEACB0B5846B047C5F8E000F0
:1025A000002849D04FEA5B0B5846B047C5F8E40015
:1025B000002844D05A4600210FF008F90023A5F85E
:1025C000E830BB887A889B1A9CB202960195254A0E
:1025D00000921BB25246494605F1240000F036FC39
:1025E00080BB01960095204B6422214605F16000D6
:1025F00000F00CFA48BBEA8A2969029601951B4B48
:102600000093234605F1840000F0D0FA00BB05B02A
:10261000BDE8F08F4FF0FF3070474FF0FF30F6E726
:102620004FF0FF30F3E74FF0FF30F0E74FF0FF30AF
:10263000EDE74FF0FF30EAE74FF0FF30E7E74FF00C
:10264000FF30E4E74FF0FF30E1E74FF0FF30DEE727
:102650004FF0FF30DBE700BFDB0FC9401F85EB3ECB
:10266000713D0A3FC9230010E5230010212300100B
:10267000E8B1F9B100B50368D3F800E0D3F804C0BD
:102680009868DA68C1F800E0C1F804C08860CA60E0
:10269000D3F810E0D3F814C09869DA69C1F810E0F3
:1026A000C1F814C08861CA6100205DF804FB4FF0D6
:1026B000FF3070474FF0FF307047000007EE901A70
:1026C00080B1F5EEC07AF1EE10FA0ED403689FEDFA
:1026D000087A67EE877AFCEEE77A17EE902ADA80BE
:1026E000002070474FF0FF3070474FF0FF307047C9
:1026F0000000804360B10368DB8807EE903AF8EE93
:10270000677A9FED047A67EE877A17EE900A704732
:10271000014870470000803B000080BF07EE901A20
:1027200080B3F5EEC07AF1EE10FA2ED4B7EE007A4F
:10273000F4EEC77AF1EE10FA2ADC026807EE101AFE
:10274000BEEEE87A17EE103A1BB203F30F031380C4
:102750004FF48073A2F8983077EEA77AB7EE007A3C
:1027600077EE677AB0EE047A77EE877A9FED0A7A91
:1027700067EE877AFCEEE77A17EE903AA2F89A3085
:10278000002070474FF0FF3070474FF0FF30704728
:102790004FF0FF30704700BF0000804360B1036816
:1027A0001B8807EE903AF8EE677A9FED047A67EEA1
:1027B000877A17EE900A704701487047000000388A
:1027C000000080BF002800F0FB802DE9F04F83B0AF
:1027D0008B469946B9F1000F00F0F5800468B4F813
:1027E0000AA0B4F80E80A589B4F8E80000BB0AF18D
:1027F000FF3606FB08F605FB06F609EB4606002346
:102800004FF6FF710BE036F913209142A8BF114635
:1028100089B28242B8BF024690B201331BB205FBB7
:1028200008F29342EFDB0B18C3F34E03A4F8E83031
:10283000002784E008FB067205FB023239F91220FA
:10284000B4F8E810511AD4F8DC2032F9132001FB57
:1028500002F25201D4F8E00005FB063C4FEACC013D
:1028600040F83C20D4F8E0000A1D002181500133DB
:10287000AB42DFDBD4F8E01005FB06F001230022B9
:1028800001EBC00104F1C80001F047FE01365645D6
:1028900003DA0023ECE70026F9E7D4F8E4301E68F9
:1028A000002E58D108F1FF33BB4222D10DE0D4F8FD
:1028B000E40005FB06F3D4F8E010AA0001EBC30125
:1028C00000EB83000EF074FF01365645EFDB00206D
:1028D00073E0D4F8E0C005FB06F0D4F8E4102B4612
:1028E0000CEB800201EB80010CEBC00001F03FFB20
:1028F00001365645EDDBD4F8E00005FB0AF302464D
:10290000032101F0B5FABAF1000F26D0D4F8E03077
:10291000BAF1010F23DDD4F8E02002EB8502BAF111
:10292000020F1EDDD4F8E01001EBC5010191009209
:102930003AB2594604F1240000F0B2FB0137474592
:1029400011DAD4F8E4301E68002EA4D108F1FF3368
:10295000BB42F3DC9BE70026CBE70023D8E700224D
:10296000DDE70021E2E7D4F8E00005FB0AF30246C8
:102970006FF0020101F07CFAA369DFF850C0BCFBE4
:10298000F3FC0CF1010C002700E00137574513DA86
:102990000023AB42F9DAD4F8E46005FB0732D4F83F
:1029A000E01051F8220090FBFCF056F82210014490
:1029B00046F822100133ECE7002003B0BDE8F08FA9
:1029C0004FF0FF3070474FF0FF30F6E740420F0006
:1029D00038B50446002545800288920029464068A3
:1029E0000EF0F4FE228892002946A0680EF0EEFE5A
:1029F000228892002946E0680EF0E8FE22889200C4
:102A0000294620690EF0E2FE284638BD70B504461E
:102A1000059E01808282C361049B03628D0028466B
:102A2000B047606080B12846B047A06078B12846C2
:102A3000B047E06070B12846B047206168B12046D9
:102A4000FFF7C6FF002070BD4FF0FF30FBE74FF0EF
:102A5000FF30F8E74FF0FF30F5E74FF0FF30F2E7D7
:102A60002DE9F04385B0044689469C460C9F0D9E97
:102A7000058843880133438072B19046002208E004
:102A8000636838F912E053F82210714443F82210B9
:102A9000013223889342F3DCBCF1000F0DD00022F9
:102AA00008E0A3683CF9121053F82200014443F8EF
:102AB0002210013223889342F3DC6FB1002308E037
:102AC000E16837F913C051F82320624441F823200C
:102AD000013322889A42F3DC6EB1002308E02169B9
:102AE00036F9137051F823203A4441F8232001337A
:102AF00022889A42F3DC6288A38A9A4246D312B2B1
:102B000063685BB1002307E0666856F8231091FB09
:102B1000F2F126F813100133AB42F5DBA3685BB189
:102B2000002307E0A66856F8231091FBF2F126F87F
:102B300013100133AB42F5DBE3685BB1002307E020
:102B4000E66856F8231091FBF2F126F813100133D2
:102B5000AB42F5DB23695BB1002307E0266956F839
:102B6000231091FBF2F126F813100133AB42F5DB91
:102B7000E6692369226A029201950093E368A268DC
:102B800061684846B0472046FFF722FF05B0BDE820
:102B9000F083B0F914C001FB0CFCB0F9163002FB55
:102BA00003F39C45ACBF00200120704710B50446DC
:102BB00001608280C380029A8260039AC2605800DA
:102BC000049B98472061E8B1002305E022694FF497
:102BD000804122F813100133E2889A42F6DC00208B
:102BE000E083A0834FF48073A3824FF42073E382C9
:102BF000042323830A23638384F820004FF0FF33E8
:102C0000636210BD4FF0FF30FBE700002DE9F04F8D
:102C100089B00446079190460693C388013B32F978
:102C20001320016931F913008242A8BF024621F83E
:102C30001320002500E00135E388013BAB4240F35F
:102C4000BB804FEA450B38F9156005F101094FEAE1
:102C50004903059338F919A0226932F91530B342B6
:102C6000A8BF334622F81530276937F915203146B9
:102C70002046FFF78EFF0028DDD137F91920514695
:102C80002046FFF786FF0028D5D157460023E3836F
:102C9000A18B01310FFA81F8A4F81C8005FB0AA36F
:102CA00006FB05352D02F01995FBF0F9069D35F967
:102CB0000B2005996B5E07FB03F306FB023393FBC6
:102CC000F0F3129D35F90BC06A5E07FB02F206FBBA
:102CD0000C2292FBF0F2139D35F90BE02946059D7D
:102CE00031F905C00AFB0CF706FB0E7696FBF0F6F1
:102CF000676AB7F1FF3F17D0A06A1B1ADFF80CC153
:102D00008CFB031CDB17C3EB6C030344A362002B97
:102D1000B8BF5B421BB2B3F5C87F0BDB40F2656006
:102D2000834209DD05230DE0C4F82490A362E2622A
:102D3000266319E04FF4C87340F2666090FBF3F32A
:102D400003EB8303A9EB070595FBF3F52F446762BB
:102D5000E06A121A92FBF3F20244E262226BB61AA4
:102D600096FBF3F313442363B4F91830984502DB60
:102D7000012384F8203094F82010C1B1A568626A5C
:102D8000A36A002B16DBDB112068A688B0FBF6F0E7
:102D9000400813FB00F3E0680290B4F930000190A2
:102DA000B4F92C0000901BB212B20798A84709B0E2
:102DB000BDE8F08F7F33E6E7E38B0133E383002345
:102DC000A383E2889A4207DD216931F8132001329A
:102DD00021F813200133F4E794F82030002BE6D0DB
:102DE000B4F91E20B4F91A309A42E0DB002184F8CD
:102DF00020104FF0FF326262A568E36802930191F0
:102E000000910B460798A847D1E700BF6766666642
:102E1000821202F1200C00F03F030A4931F91CC074
:102E2000213231F91220C3F13F0002FB03F30CFB06
:102E30000030054B83FB00230344C017C0EB631035
:102E400000B2704754630110832008822DE9F047D7
:102E5000DDF820A00A9D002D00F0AA8004468946D6
:102E600017461E46002B00F0A680002900F0A68021
:102E70003C2200210EF0AAFCA4F800906780A680F6
:102E80004FEA86084046A847A0604046A8476061D0
:102E90004046A8472062B9F1010F66D94046A847CD
:102EA000E0604046A847A0617000A847E062E36880
:102EB000002B51D00027A369002B50D000233B43A7
:102EC00000284FD000271F43B9F1020F16D9404602
:102ED000A84720614046A847E0617000A8472063EA
:102EE0002369002B43D000233B43E269002A41D0F1
:102EF00000271F43002840D000231F434FEA460805
:102F00004046A84760624046A847A062C4F834A083
:102F1000099BA36363889BB300231F43002E32DD0C
:102F200000233B43A2688AB300273B43626982B314
:102F300000271F43236A7BB300231F43636A73B3D5
:102F400000233B4370B300200343BAF1000F2CD0A1
:102F500000201843BDE8F0874FF0FF37ABE74FF094
:102F6000FF33ACE74FF0FF37ADE70027ACE74FF09A
:102F7000FF33B9E74FF0FF37BBE74FF0FF33BCE754
:102F80004FF0FF33C9E74FF0FF33CAE74FF0FF3789
:102F9000CBE74FF0FF37CCE74FF0FF33CDE74FF0F3
:102FA000FF33CEE74FF0FF30CEE74FF0FF30D0E7F2
:102FB0004FF0FF30CEE74FF0FF30CBE74FF0FF3060
:102FC000C8E74FF0000C63451BDD30B54FEA8C04B9
:102FD00051F82C504FEAA53E0EF1030E50F83C502C
:102FE00095FBFEF522F82C5000EBCC056D6895FBA7
:102FF000FEFE023422F804E00CF1010C6345E5DC2E
:1030000030BD70470023994211DD00B59A0030F9B8
:1030100023E0023230F802C0CCF1000C20F823C0CB
:1030200020F802E001339942F0DC5DF804FB7047C0
:103030002DE9F04383B007460E469046994600249A
:1030400000E00134A14527DDA500022301AA06EB1B
:10305000840107EB840000F0BBFEBDF80400BDF85E
:103060000630184400B2FFF7D3FE28F8140037F9F1
:10307000242005F1020C36F90C3003FB02F237F97B
:103080000C3036F9241001FB03F39A42D9DA80B2EE
:10309000404228F81400D4E703B0BDE8F0830000F4
:1030A0002DE9F04F85B0DDF838A0DDF83CB05BB31A
:1030B0000446884691461E460388012B2AD9BAF158
:1030C000000218BF01224AB3022B2DD9BBF1000325
:1030D00018BF012363B3A5882A46A168304600F0D3
:1030E00078FF2FB23B466269A1683046FFF769FF5F
:1030F00004F10801264636F8143B012B1ED823881C
:10310000022B2BD8002342E03F4B404A9F214048EE
:103110000EF0B0F9BAFA8AF25209D4E73D4B3B4AB5
:10312000A0213B480EF0A6F9BBFA8BF35B09D1E76F
:10313000394B364AA12136480EF09CF92A46E168FF
:10314000504600F046FF3B46A269E1685046FFF753
:1031500038FF04F10C0104F11806D0E72A46216972
:10316000584600F036FF3B46E26921695846FFF7B2
:1031700028FF04F1100104F11C06C3E70A6852F8A5
:1031800023204FEA224C626A22F813C00133AB427B
:10319000F4DBB9F1000F1ED03B46A26A3168206A09
:1031A000FFF746FF2388012B1BD82388022B1FD84B
:1031B000676B236BA26B029201950093E36AA26A8C
:1031C000616A4046B8473368226A32602362002051
:1031D00005B0BDE8F08F6A000021A06A0EF0F6FA93
:1031E000E0E73B46E26A31686069FFF721FFDCE710
:1031F0003946A069FFF706FF3B46226B3168A0699C
:10320000FFF716FFD4E700BF7862011034630110A6
:1032100084620110C4620110FC62011003460021A7
:10322000084604E011B9013040B2012101331A7897
:103230001AB1202AF6D00021F8E701B97047013809
:1032400040B2FBE738B50A46094B1B6853B1084C3E
:1032500025682B6859680FF018FC6B6823602BB148
:10326000012038BD024B03491960F0E70020F8E760
:10327000382A0008E422000838B5054690B1082035
:1032800002F0A2FC0446B8B104B302F0DBFA2560F8
:10329000002363600E4B1A6854601C6002F0F4FA5D
:1032A000012038BD4FF03F0383F31188BFF36F8FC8
:1032B000BFF34F8F01BEE2E74FF03F0383F3118866
:1032C000BFF36F8FBFF34F8F01BEDDE70020E8E74C
:1032D000E02200082DE9F0470746884691462C4B2E
:1032E0001B68B3B101262A4B1B680BB1002E3ED0E0
:1032F000002B45D01B689C681B693A4649464046EE
:10330000A047064610B9224B00221A603046BDE89D
:10331000F0871F4B1F4A1A6009E03846FFF77EFF0F
:103320008442E0D10126DEE76A68194B1A60184B27
:103330001D68D5B1D5F800A0DAF8006030460FF06E
:1033400088FB04460246314638460FF08AFB0646A3
:103350000028E9D13B5D202B01D0002BE4D19AF964
:103360000C40002CD9DA0126BDE70126BBE74A460E
:10337000094940460FF089FB054B00221A60C5E75A
:103380004A46064940460FF080FB0026BEE700BFD4
:10339000342A0008E4220008D863011030640110C8
:1033A000002313609C460EE0013003780BB1202B04
:1033B000FAD10378202B01D10130FAE7A3B10CF147
:1033C000010C61450ED08C45EFD300207047136887
:1033D0000133136001310B780BB1202BF7D1136847
:1033E00023B170470146F6E7002070470020704780
:1033F00070B505460F480FF033F900240FE00E4B6F
:1034000003EB04135E68DB680C4898470DF008FB7B
:1034100002460B4631460A480FF086F80134012C6B
:10342000EDD904480FF01CF9064B1B882B800020B7
:1034300070BD00BFC864011034690110C0380008B5
:10344000D46401101C66011038B504460B4D2846A3
:103450000FF006F90A480FF003F90A480FF000F9D7
:1034600009480FF0FDF809480FF0FAF828460FF068
:10347000F7F8074B1B882380002038BDE864011053
:10348000F86401103065011050650110806501106D
:103490001C660110F0B583B0034610461D468BB183
:1034A00001AA0121FFF77CFF0446A8B12449204668
:1034B0000FF0C5FAD0B1234920460FF0C0FA50BB37
:1034C000012614E04FF03F0383F31188BFF36F8FA1
:1034D000BFF34F8F01BEE3E74FF03F0383F3118843
:1034E000BFF36F8FBFF34F8F01BEDFE70126DEB161
:1034F000134920460FF0A3FA074620B11149204690
:103500000FF09DFA48B907B100260F4B5E750F4BBF
:103510001868286010E00026E9E70D4B0D4A40F2DC
:10352000D3110D480DF0A6FF0C4C0FCC286069603C
:10353000AA60EB6023882B82002003B0F0BD00BF9F
:10354000A4650110AC650110B438000808660110CC
:10355000B4650110C0680110F46501100C6601101B
:10356000F0B585B0014610461C460F4659B303AA74
:103570000121FFF715FF00282FD0002110F0B6F829
:103580000546224E4FF0FF31306903F019F8A36869
:10359000294606F10C00984748BBE36806F10C0089
:1035A00098470546012600231A4619461748006920
:1035B00002F0FAFEF6B96268154938460FF0DCF9F8
:1035C000002005B0F0BD4FF03F0383F31188BFF337
:1035D0006F8FBFF34F8F01BEC9E74FF03F0383F3F7
:1035E0001188BFF36F8FBFF34F8F01BEC5E7002572
:1035F0000026D8E7646828460DF012FACDE90001EC
:103600002246044938460FF0B7F9D9E7B438000824
:10361000486601102066011008B5384C2068002368
:103620000222194640680FF09DF82068002302220C
:10363000194680680FF096F8002407E004EB840038
:103640002F4B03EB8000FFF717FE0134042CF5D954
:10365000002407E01B281AD00D2824D008283CD0CD
:10366000312C44DD0EF062F8264B1B7D002BF1D18E
:103670000D28F7D13222002123480EF0A7F8214B64
:1036800001221A7521480EF04FFF0024EAE732228A
:1036900000211D480EF09AF800241A4B1C751C4896
:1036A0000EF0DEFFDEE70A200EF056FF194D4FF454
:1036B000007229461448FFF70DFE044629461648B5
:1036C0000EF032FF002CF1D1322200210E480EF014
:1036D0007DF812480EF028FFC4E7002CC2DD013C43
:1036E00064B2094B20221A550EF036FFBAE7064B9A
:1036F0001855013464B20EF02FFFB3E7B42300086D
:10370000D0680110B43800083C2A00087C6601101B
:10371000AC660110702A0008E0660110E466011032
:1037200008B5002306220121502004F0F7FD78B9E6
:10373000002306220121512004F0F0FD70B900237E
:1037400006220121522004F0E9FD68B9002008BDDD
:1037500008480EF085FF4FF0FF30F8E706480EF0FE
:103760007FFF4FF0FF30F2E704480EF079FF4FF093
:10377000FF30ECE75469011088690110BC69011041
:1037800000B585B03248FEF73BFE00B101BE3049BE
:1037900000234B8010228A804FF4E6720A810322B4
:1037A0004A8120228A810822CA8141F288320A6134
:1037B00040F6C4128A82FA22CA8244F64C628A61B6
:1037C0000B77244A03A8FEF779FE00B101BE204919
:1037D00003A8FEF74DFF00B101BE00221E4903A859
:1037E000FEF738FE00B101BE1C4C03ABE3600120C4
:1037F00002F0ABFE2061002301930093039B4FF482
:1038000020621749174803F0D3F8012802D001BEFF
:1038100000E001BE4FF0FF320121002003F05AFF0B
:103820000E4D4FF0FF31286902F0CAFE03F02EFE64
:1038300001460D4B012203A8FEF7C4FF04460023F6
:103840001A461946286902F0AFFD002CE2D0E0E7E5
:1038500094320008C95B00107D3A0010B4380008AB
:10386000F069011019360010B432000810B586B0A6
:10387000002304930393082202920193FF230093F1
:103880002A2329222821364806F05EFA002849D149
:10389000344C236898690022114600F5207007F027
:1038A00087FB236898690322002100F5207007F048
:1038B0009DFB236898690022022100F5207007F023
:1038C00077FB236898690322022100F5207007F036
:1038D0008DFB2549224805F0F9FE48BB012306224D
:1038E0001946442004F01AFD40BB052006F0A6FC52
:1038F000272301931D4B00934A232B2218491C4870
:103900000BF0A6FA00BB002301931A4B0093062389
:103910004B224FF4407116480BF0F0FAD0B900205A
:1039200006B010BD14480EF09BFE4FF0FF30F7E7D5
:1039300012480EF095FE4FF0FF30F1E710480EF000
:103940008FFE4FF0FF30EBE70E480EF089FE4FF090
:10395000FF30E5E70C480EF083FE4FF0FF30DFE765
:10396000D43800080046020840787D010C6C011034
:1039700070320008493A0010FC6901101C6A0110FD
:10398000446A01106C6A0110946A011000B583B09A
:10399000274B01930523009300234FF40072254920
:1039A000254803F005F8012800D001BEFFF75EFFAF
:1039B00000B101BEFFF7B4FE00B101BE01211F48F6
:1039C0000BF0D4F908B301BE1FE00EEBC20100EB0F
:1039D000411133F802CB1A4C24F811C00132022AEB
:1039E000F3DD01301F2801DC2A46F8E70EF1010E55
:1039F000BEF1070F01DC2846F4E700210091022305
:103A00000A460B48006803F0B9FE4FF0FF3201216F
:103A1000002003F05FFE4FF440720A4907480BF0A4
:103A2000EFF805460028F0D18646064BE0E700BFD8
:103A3000D0380008C86A01108137001070320008C1
:103A4000B4320008702C000800B583B00021019149
:103A500001AA094B186803F037FF019B4BB14FF0E7
:103A6000E0234FF08052C3F8042DBFF34F8FBFF314
:103A70006F8F03B05DF804FBCC380008F0B52DED76
:103A8000088B8FB00C461546002A51D0B4F5967FAE
:103A900050D040F22D139C4200F0BF8001BE0020A8
:103AA0000646074609EE900A09EE100A08EE900A4B
:103AB000BFEE008A704B1B7D002B35D16E4B5B7DBA
:103AC000002B40F0B880B4F5967F00F0B2806B4CCC
:103AD0002D680CF0A5FFCDE90C0130460CF0A0FFDD
:103AE000CDE90A0138460CF09BFFCDE9080119EE3B
:103AF000900A0CF095FFCDE9060119EE100A0CF0C2
:103B00008FFFCDE9040118EE900A0CF089FFCDE992
:103B1000020118EE100A0CF083FFCDE900012A46DD
:103B2000214657480EF000FD0FB0BDEC088BF0BDEC
:103B300001BEABE7B5F9063008EE903AF8EEE88A38
:103B4000DFED507A68EEA78AB5F9083009EE103A31
:103B5000B8EEC99A29EE279A4FF0804118EE900AE4
:103B60000BF0EEFB08EE100AF7EE007A37EEC88A8B
:103B70004FF0804119EE100A0BF0E2FB07EE900ABD
:103B800078EE677AF5EEC07AF1EE10FA42D917EEC8
:103B9000900A0BF035FC09EE900AB5F9043008EEF6
:103BA000103AB8EEC88A9FED38AA28EE0A8A68EE65
:103BB000888A29EE089A69EE889AC8EEA97A17EEE3
:103BC000900A0BF0A3FA07EE900A9FED30BA67EE69
:103BD0008B7ADFED2FAAC7EEAA7A17EE907AF1EE74
:103BE000497AC7EEA97A17EE900A0BF08FFA07EE22
:103BF000900A67EE8B7AC7EEAA7A17EE906AB5F94B
:103C00000A3007EE903AF8EEE77A67EE8A7A17EE16
:103C1000900A4FE7DFED1F7AB9E700200646074616
:103C200009EE900A09EE100A08EE900A08EE100A52
:103C300040E7194C4CE7B4F5967F1BD00F4C2D682C
:103C40000CF0EEFECDE9060130460CF0E9FECDE9C0
:103C5000040138460CF0E4FECDE9020118EE100A2A
:103C60000CF0DEFECDE900012A4621460B480EF09D
:103C70005BFC59E7084CE2E7B4380008D86A011049
:103C8000E06A0110000000380000803B000034436F
:103C9000DB0F49405F708930DC6A0110906B0110C6
:103CA00000B583B001F074FB00B101BE62B64FF401
:103CB000E1330093FF231A462C212D200AF080FEC9
:103CC000012306221946592004F028FB0D480EF066
:103CD0002BFC0D480EF0C4FC0C4B01930623009303
:103CE00000234FF480720A490A4802F061FE01285D
:103CF00000D001BE02F090FE01BE002003B05DF8CE
:103D000004FB00BFB06B0110BC6B0110CC38000885
:103D1000006C01108D39001070477047FFF7FCFFF1
:103D200072B6144C144DAC4209DA21686268A3687B
:103D3000043BA2BFC858D050FAE70C34F3E70F4950
:103D40000F4A00209142BCBF41F8040BFAE70D482E
:103D50000D490860BFF34F8F01F0F8FA01F0DCFA6B
:103D600001F068FC0DF0F4FCFFF79AFF0DF07CFC0D
:103D7000FEE700001884011030840110182A0008A2
:103D80005C4702080020000808ED00E0FEE7FEE7BF
:103D900000B504207146084202D0EFF3098002E02A
:103DA000EFF30880043009F069FEFEE70000000030
:103DB0000230800803D001300238FCD100BF00BFC0
:103DC0007047EFF3108072B6704780F31088704729
:103DD0002DE9F0410E469C0835E084465CF8085B0E
:103DE000B6465EF8088B406877682E144FEA284183
:103DF00001FB06F629B20FFA88F505FB01F105145F
:103E00004FEA274808FB05F500B23FB207FB00F078
:103E1000F61306F30F0636B2C91301F30F0109B208
:103E2000ED1305F30F052DB2C01300F30F0089B297
:103E300041EA0641116081B241EA05415160083210
:103E4000013C76466046002CC7D103F003030BE02B
:103E500030F9021B36F9024B04FB01F1C91301F3DF
:103E60000F0122F8021B013B002BF1D1BDE8F081CC
:103E700070B59C0800292EDA47E06FF0004585EA0E
:103E8000E6751560466806FA01F545FA01FCB44589
:103E900003D06FF0004585EAE6755560866806FA3E
:103EA00001F545FA01FCB44503D06FF0004585EA01
:103EB000E675956000F11006C56805FA01F040FA54
:103EC00001FCAC4503D06FF0004080EAE570D060A3
:103ED000013C10323046D4B1066806FA01F545FAC5
:103EE00001FCB445C9D1CCE706684D422E411660AD
:103EF00046682E41566086682E419660C66846FA2E
:103F000005F5D560013C10321030002CECD103F0E7
:103F10000305002907DA27E06FF0004686EAE3761A
:103F20001660013D62460DB350F8044BE317A1F152
:103F3000200EC1F1200C8B4004FA0EFE43EA0E0362
:103F400024FA0CFC43EA0C038C4002F1040C2646D4
:103F5000B3EBE47FE0D1E3E750F8044B4B4244FA83
:103F600003F342F8043B013D002DF5D170BD70B55F
:103F70009D081DE004680E6886FAA4F41460446885
:103F80004E6886FAA4F454608C68866884FAA6F4B5
:103F9000946000F11004C06801F1100CC96802F1CE
:103FA000100E81FAA0F1D160013D724661462046B3
:103FB000002DDFD103F0030408E050F8043B51F872
:103FC000045B85FAA3F342F8043B013C002CF4D1D6
:103FD00070BD2DE9F84304460D4617464FEA920896
:103FE00062E020686368C11700FB01F1A0FB0002DA
:103FF00002EB4100D91703FB01F1A3FB033202EBF3
:1040000041035B102E1D294603EB600000F072F89F
:10401000A068E368C21700FB02F2A0FB000101EBFD
:104020004200D91703FB01F1A3FB033202EB41036A
:104030005B1005F10809314603EB600000F05AF807
:1040400020696369C21700FB02F2A0FB000101EBCB
:104050004200D91703FB01F1A3FB033202EB41033A
:104060005B1005F10C06494603EB600000F042F8D6
:10407000A06904F12009E369C21700FB02F2A0FB6A
:10408000000101EB4200D91703FB01F1A3FB03324E
:1040900002EB41035B103146103503EB600000F08A
:1040A00029F808F1FF384C46B8F1000F99D107F014
:1040B00003071BE0264656F8080B6368C11700FB90
:1040C00001F1A0FB000202EB4100D91703FB01F153
:1040D000A3FB033202EB41035B102C1D294603EBCB
:1040E000600000F007F8013F25463446002FE1D17B
:1040F000BDE8F883002840F3A2802DE9F0410028B4
:1041000000F08E80B0FA80F5AE4605F1FF3C1CF061
:10411000010440F0878000FA0CF5AB16083B4A4AD0
:1041200052F82300C71700FB07F6A0FB003202EB92
:1041300046021B0F43EA0213EE17DA1703FB06F8D9
:1041400005FB0288A3FB05234344D20F42EA430246
:10415000C2F14052D31702FB07F700FB0377A2FB23
:1041600000203844520F42EAC002D01702FB00F888
:10417000A2FB023707EB48071B0F43EA07134FEA7E
:10418000E37803FB06F705FB0877A3FB05384744F4
:10419000DB0F43EA4703C3F14053DF1703FB00F093
:1041A00002FB0700A3FB02320244580F40EAC200A0
:1041B000C71700FB07F8A0FB002303EB4803120F0F
:1041C00042EA0312D31702FB06F805FB0388A2FBA1
:1041D00005239844D30F43EA4803C3F14053DA1749
:1041E00003FB07F700FB0277A3FB003038445B0FAB
:1041F00043EAC003DA1703FB06F605FB0266A3FBDE
:10420000053535441B0F43EA05137CB90CEBDC7C08
:104210004FEA6C0C43FA0CF30B600020BDE8F08110
:10422000202571E7023D00FA05F576E7AEF1020EB2
:104230000EEBDE7E4FEA6E0E43FA0EF3ECE7002340
:104240000B604FF0FF307047A86C011030B54FF095
:10425000000E1DE032F81EC04FEA9C0C0EF1010367
:1042600032F813309B0850F82C4050F8235040F897
:104270002C5040F823400CF1010C50F82C40013335
:1042800050F8235040F82C5040F823400EF1020E15
:104290007145DFD830BD0180002343604FF0FF300F
:1042A00070472DE9F04F85B00446039102924B0808
:1042B00001934FF0000E5FE04FEACE06029B53F8E9
:1042C0003E1004369D59019B0EEB030854F83E2026
:1042D0004FEAC80C54F838309B10C3EBA20003EB34
:1042E000A20344F83E30A7590CF1040C54F80C30EA
:1042F0009A10C2EBA70302EBA702A2514FEAE07AA1
:10430000CA1700FB02F701FB0A77A0FB016916F14F
:10431000004647EB09074FEAE37901FB09F603FB87
:104320000262A1FB031611F1004142EB06020021DB
:10433000EE1703FB06FB05FB09B9A3FB053BD944BC
:10434000CB1813F1004349EB070900FB06F605FB08
:104350000A6AA0FB05055544091A62EB050511F12F
:10436000004145F100054FEA490744F838706D00F7
:1043700044F80C500EF1010E019B9E459CD3022384
:10438000029D2A46DDF804804146204600F022F9CD
:1043900002232A464146039804EB800000F01AF9F4
:1043A000002217E01301E65803F1040E54F80E50F2
:1043B00003F1080C54F80C0003F10C07E1597600E6
:1043C0006D0040004900E65044F80E5044F80C00DF
:1043D000E15101324245E5D305B0BDE8F08F2DE94A
:1043E000F04F85B00446039102924B0801934FF0C1
:1043F000000C5FE04FEACC06029B53F83C200436E9
:104400009D59019B0CEB030854F83C104FEAC80E71
:1044100054F838309B10C3EBA10003EBA10344F820
:104420003C30A7590EF1040E54F80E309910C1EB30
:10443000A70301EBA701A1514FEAE07AD61700FBD1
:1044400006F702FB0A77A0FB021911F1004147EBC6
:1044500009074FEAE37902FB09F103FB0616A2FB09
:10446000032112F1004246EB01060021EA1703FB8B
:1044700002FB05FB09B9A3FB053BD944CB1A67EB4B
:10448000090913F1004349F1000900FB02F205FBA1
:104490000A2AA0FB0505AA44091811F100414AEBBC
:1044A00006064FEA490744F83870760044F80E6073
:1044B0000CF1010C019B9C459CD30223029D2A46D2
:1044C000DDF804804146204600F009FB02232A461D
:1044D0004146039804EB800000F001FB002217E046
:1044E0001301E65803F1040E54F80E5003F1080CC2
:1044F00054F80C0003F10C07E15976006D00400000
:104500004900E65044F80E5044F80C00E1510132E5
:104510004245E5D305B0BDE8F08F70B504460E46C0
:104520001D460188012A0DD0B1F5807F46D030D9D3
:10453000B1F5006F37D03BD9B1F5805F3ED0002D8B
:1045400042D170BDB1F5807F1DD007D9B1F5006FA4
:104550000ED012D9B1F5805FF1D114E0402912D00C
:1045600002D9802904D0EAE710290CD02029E6D10D
:1045700062683046FFF733FFE1E7B1F5007FF7D01F
:10458000B1F5806FDBD101236268304600F0A7FAF5
:10459000D5E7402912D002D9802904D0CFE71029CD
:1045A0000CD02029CBD162683046FFF77AFEC6E7EF
:1045B000B1F5007FF7D0B1F5806FC0D101236268FB
:1045C000304600F007F8BAE7A268A1893046FFF745
:1045D0003DFEB6E72DE9F04F99B081460D9113925B
:1045E0000B938B081793159300240094A246179AF7
:1045F0000AEB020C0AEB420302EB030B4FEACA0080
:1046000059F83A20DF00019359F833301B1103EBBE
:104610002216C3EB221202924FEACC0559F83C4015
:104620004FEACB0159F83B301A1102EB2412043047
:1046300059F800400437079759F807301F1107EB66
:104640002413C7EB24140394B41849F83A40B21A5F
:1046500005F1040E59F80E400D1D59F80510091109
:1046600001EB24115C1849F800405B1A59F80E0060
:10467000089559F805100911C1EB2011049159F85A
:104680003C0059F83B100911C1EB20160596009C1F
:1046900021011398455804314158D617E8170A905C
:1046A00002FB00F0099605FB0600A2FB056420440E
:1046B000DE17CC1703FB04F701FB06770691A3FB7B
:1046C00001810F443844400049F83C0005FB06F6E0
:1046D0000A9803FB0066A5FB0353334402FB04F472
:1046E000099E069901FB0644A2FB012121445B1AA5
:1046F0005B0049F80E30029A049BD518A2EB030820
:104700000399059E8A1B8B19009CE100139850F8B1
:104710003460043141584FEAE57EF417029405FBFA
:1047200004F006FB0E00A5FB067420440390D71787
:10473000CC1702FB04FC049701FB07C0A2FB01C7D6
:1047400038448446039860444000019F49F837008C
:10475000049F06FB07F7029802FB0077A6FB0262A4
:104760003A4405FB04F401FB0E44A5FB015121442E
:10477000521A5200079F49F80720009C04EB44029C
:10478000D20013988458043282584FEAE8774FEAEF
:10479000E47C08FB0CF104FB0711A8FB0450014466
:1047A0000191DD17D01703FB00F602FB0566A3FBA2
:1047B000021E764401993144490049F83B1004FB3C
:1047C00005F503FB0C55A4FB03432B4408FB00F049
:1047D00002FB0707A8FB02123A449B1A5B00089DE4
:1047E00049F80530009C0B9BE31800930AF1010A7D
:1047F000159B013B15937FF4FAAE0B9B9B00149322
:104800000D9B9B081693179B1093CA4613E10C9AB5
:104810000AEB020C0AEB420302EB03094FEACA045B
:104820005BF83A10D80005935BF833208B188A1A8E
:10483000009204345BF80410043009905BF80070B7
:10484000CA19C91B06914FEACC055BF83C004FEA38
:10485000C9065BF8391001445F18BF104BF83A7075
:104860005B1A04355BF8050004365BF8061001445A
:10487000501880104BF80400521A5BF805000A9695
:104880005BF80610441A07945BF83C705BF839102B
:10489000791A0891DC1703984FEAE07803FB08F1D6
:1048A0000B9400FB0411A3FB00400144D417049FA8
:1048B000F81702FB00F607FB0466A2FB07E73E447D
:1048C0000E4476104BF83C60039901FB04F402FBA4
:1048D0000848A1FB0224A04403FB00F0049A0B9CAF
:1048E00002FB040EA3FB02308644A8EB0E084FEA3D
:1048F00068044BF80540009A079C1019111B0091A1
:10490000069A089BD41A13441F464FEAE07C01998B
:104910004FEAE17E00FB0EF301FB0C33A0FB0151DB
:104920000B44E517029AD11704FB01F602FB05665A
:10493000A4FB022846441E447610059B4BF83360C6
:10494000019B03FB05F504FB0E5EA3FB0445AE448F
:1049500000FB01F1029B03FB0C1CA0FB03018C4438
:10496000AEEB0C0E4FEA6E0509984BF8005000991B
:104970004FEAE1780E9AD61701FB06F302FB0833E3
:10498000A1FB02010B44F8170F9DE91707FB01F487
:1049900005FB0044A7FB05EC64441C4464104BF881
:1049A000394002FB00F007FB0606A2FB0770064435
:1049B000009A02FB01F12B4605FB0815A2FB03211F
:1049C0000D44761B76100A9B4BF80360109B9A44AB
:1049D0000D9B9A45FFF41BAF119B013311930C9B68
:1049E000013B119A93421DD3129800EB4002C30081
:1049F000139951F8304001940433CB5802930301CA
:104A0000CC5803940433CB580493D30051F832208C
:104A10000E920433CB580F93149BC3181293119D1D
:104A2000AA46D5E7DA46149B9B001493169B9B0875
:104A300016930C9B1093169B042B07D9109B9B0875
:104A40000C93159B11931293D346C8E7179CD1463C
:104A5000D9F80020D9F80430D9F80870D9F80C80BA
:104A6000D9F810E0D9F81460D9F81850D9F81CC05A
:104A7000D0197044284403EB080131446144C9F85B
:104A80000000C9F80410D01B7044401BA3EB0801C0
:104A90003144A1EB0C01C9F80800C9F80C1002EB75
:104AA0000800A0EB0E00A0EB0C00D91B891B2944C9
:104AB000C9F81000C9F81410A2EB0802A2EB0E020C
:104AC00062443B449B1B5B1BC9F81820C9F81C308F
:104AD00009F12009013CBBD119B0BDE8F08F2DE9E7
:104AE000F04F99B081460D9113920B938B08179359
:104AF000159300240094A246179A0AEB020C0AEBC5
:104B0000420302EB030B4FEACA0059F83A20DF00D8
:104B1000019359F833301B1103EB2216C3EB221219
:104B200002924FEACC0559F83C404FEACB0159F8C4
:104B30003B301A1102EB2412043059F800400437BC
:104B4000079759F807301F1107EB2413C7EB2414FC
:104B50000394B41849F83A40B21A05F1040E59F812
:104B60000E400D1D59F80510091101EB24115C18B8
:104B700049F800405B1A59F80E00089559F80510DD
:104B80000911C1EB2011049159F83C0059F83B1070
:104B90000911C1EB20160596009C21011398455878
:104BA00004314158D617E8170A9002FB00F0099625
:104BB00005FB0600A2FB05642044DE17CC1703FBAF
:104BC00004F701FB06770691A3FB01810F44C01B8C
:104BD000400049F83C0005FB06F60A9803FB006616
:104BE000A5FB0353334402FB04F4099E069901FB21
:104BF0000644A2FB012121440B445B0049F80E301E
:104C0000029A049BD51A134498460399059E8A1963
:104C10008B1B009CE100139850F83460043141581C
:104C20004FEAE57EF417029405FB04F006FB0E0044
:104C3000A5FB067420440390D717CC1702FB04FC95
:104C4000049701FB07C0A2FB01C7384484460398C0
:104C5000A0EB0C004000019F49F83700049F06FBC1
:104C600007F7029802FB0077A6FB02623A4405FBB5
:104C700004F401FB0E44A5FB015121440A445200F7
:104C8000079F49F80720009C04EB4402D2001398C8
:104C90008458043282584FEAE8774FEAE47C08FBF4
:104CA0000CF104FB0711A8FB045001440191DD172E
:104CB000D01703FB00F602FB0566A3FB021E764439
:104CC0000199891B490049F83B1004FB05F503FBDA
:104CD0000C55A4FB03432B4408FB00F002FB070721
:104CE000A8FB02123A4413445B00089D49F80530C2
:104CF000009C0B9BE31800930AF1010A159B013BF2
:104D000015937FF4F9AE0B9B9B0014930D9B9B08AE
:104D10001693179B1093CA4610E10C9A0AEB020CEB
:104D20000AEB420302EB03094FEACA045BF83A10AC
:104D3000D80005935BF833208B188A1A009204344C
:104D40005BF80410043009905BF80070CA19C91BA5
:104D500006914FEACC055BF83C004FEAC9065BF8C8
:104D6000391001445F18BF104BF83A705B1A0435D4
:104D70005BF8050004365BF80610014450188010FB
:104D80004BF80400521A5BF805000A965BF806100F
:104D9000441A07945BF83C705BF83910791A089153
:104DA000DC1703984FEAE07803FB08F10B9400FB53
:104DB0000411A3FB00400144D417049FF81702FB21
:104DC00000F607FB0466A2FB07E73E448E1B761045
:104DD0004BF83C60039901FB04F402FB0848A1FB7B
:104DE0000224A04403FB00F0049A0B9C02FB040E77
:104DF000A3FB02308644F0444FEA68044BF80540B8
:104E0000009A079C101B11190091069A089BD41850
:104E1000D71A4FEAE07C01994FEAE17E00FB0EF3DE
:104E200001FB0C33A0FB01510B44E517029AD1178B
:104E300004FB01F602FB0566A4FB022846449E1B08
:104E40007610059B4BF83360019B03FB05F504FBD3
:104E50000E5EA3FB0445AE4400FB01F1029B03FB85
:104E60000C1CA0FB03018C44E6444FEA6E05099834
:104E70004BF8005000994FEAE1780E9AD61701FBE3
:104E800006F302FB0833A1FB02010B44F8170F9D48
:104E9000E91707FB01F405FB0044A7FB05EC64449C
:104EA0001C1B64104BF8394002FB00F007FB0606A0
:104EB000A2FB07700644009A02FB01F12B4605FB9A
:104EC0000815A2FB03210D442E4476100A9B4BF8D3
:104ED0000360109B9A440D9B9A45FFF41EAF119BF3
:104EE000013311930C9B013B119A93421DD31298ED
:104EF00000EB4002C300139951F830400194043391
:104F0000CB5802930301CC5803940433CB58049339
:104F1000D30051F832200E920433CB580F93149BD8
:104F2000C3181293119DAA46D5E7DA46149B9B003D
:104F30001493169B9B0816930C9B1093169B042BA3
:104F400007D9109B9B080C93159B11931293D34682
:104F5000C8E7179CD146D9F80020D9F80430D9F811
:104F60000870D9F80C80D9F810E0D9F81460D9F895
:104F70001850D9F81CC0D0197044284403EB08011C
:104F800031446144C9F80000C9F80410D01B7044D2
:104F9000401BA3EB08013144A1EB0C01C9F8080048
:104FA000C9F80C10A2EB0800A0EB0E006044D91960
:104FB000891B491BC9F81000C9F814104244A2EB20
:104FC0000E02A2EB0C02DB1B9B1B2B44C9F8182022
:104FD000C9F81C3009F12009013CBCD119B0BDE869
:104FE000F08F08B500F03EF800F002F808BD0000B0
:104FF00010B5124C124A0021204606F05BF8114809
:1050000003F0FAFB104A0121204606F053F80F483E
:1050100003F0F2FB04F540740D4A0621204606F029
:1050200049F80C4803F0E8FB0B4A0721204606F03C
:1050300041F80A4803F0E0FB10BD00BF000031401A
:10504000986D0110CC6D0110D06D0110046E01102F
:10505000606D0110946D0110286D01105C6D0110E0
:10506000FEE7000030B583B09621002008F058FD1F
:1050700008F0E8FCC0B97A4BD3F8004F04F03F04C5
:1050800008F0D0FC30B1012008F0C2FC754B9B6CDD
:10509000002B24DB724BC3F8004F07F0EBFE07F048
:1050A000DFFE012007F0FAFE012009F08FFA09F077
:1050B00035FA09F00FFB09F0F9FA0021084607F06C
:1050C0006BFE002007F0D6FD012007F0BBFD00209D
:1050D00007F076FD644B1B6893F83F4006E006201E
:1050E000FFF7BEFF204608F0FDF8013C002CF9D187
:1050F0000021012007F006FF002007F03BFE0028FA
:1051000000F0928007F0B2FF0021084607F0FAFE97
:105110000021084607F00EFE544D0024009423465B
:1051200022462146284605F089FE00942346224661
:105130000121284605F082FE012007F081FE4C483F
:1051400007F064FE00287BD1012007F063FD0020FA
:1051500007F090FD002007F075FD002007F030FDFE
:105160000021012007F0CEFE0021084607F0CAFE0C
:105170000021022007F0C6FE0021032007F0C2FE36
:105180000021042007F0BEFE0021052007F0BAFE32
:10519000384807F085FF002855D1374808F030F827
:1051A000002853D10021084607F0C4FD002108461D
:1051B00007F0F2FD3149012008F0BAF8002848D183
:1051C00042F21071012008F041F9002844D1002179
:1051D000022007F0AFFD0021022007F0DDFD0220D4
:1051E00007F062FD002007F005FD07F039FE012001
:1051F00007F054FE6421002008F092FC00F052F801
:105200001F4803F0F9FA1F4803F0F6FA1E4803F0AE
:10521000F3FA1E4803F0F0FA1D4803F0EDFA1D48BA
:1052200003F0EAFA03B030BD07F09AFE40F2111322
:1052300098427FF467AF0121002007F07BFD61E712
:105240000520FFF70DFF0420FFF70AFF0420FFF7FA
:1052500007FF0320FFF704FF0320FFF701FF00BF54
:1052600000F02740000027400046020800003140BF
:1052700040420F00086E0110400D0300346E011013
:105280001C6E0110206E0110246E0110286E01109A
:105290002C6E0110306E011008B5012006F04AF99D
:1052A00008BD704710B5002008F0DAFA00B910BD4B
:1052B0000446114B186007F0D3FC0130B4FBF0F04A
:1052C0000E4B186007F0E4FC0130B4FBF0F40C4B1B
:1052D0001C60013C0B4BA3FB04239B0C01330A4ACB
:1052E00013700A4BA3FB04239B090133084A136084
:1052F000DB03084A1360DAE7F0220008F422000812
:10530000EC22000883DE1B4300230008D34D62100B
:10531000FC220008F822000808B5094805F0C0FC86
:10532000FFF7BFFFFFF7BEFF00221146032006F084
:1053300057F9044805F0B8FF034806F00DF808BD1A
:105340008C7A0110443900083C6E011008B5FEF754
:1053500038FD074AD2F8883043F47003C2F8883029
:10536000BFF34F8FBFF36F8FFEF72FFD08BD00BF58
:1053700000ED00E008B5044808F054FD08B1002035
:1053800008BD0248FCE700BF042300080000020635
:1053900010B503F02FFA044628B144B1FFF721FEFF
:1053A0005CB1204610BD04F08DFE0446F5E740F6E2
:1053B000E441002004F038FFF0E7FFF7DBFF04468C
:1053C000EFE7B0F1FF3F22D008B338B5C50E430177
:1053D0001B1A65F10005AD0045EA93759B0018188E
:1053E00045F10005ED0045EA5075C4004FF47A72AE
:1053F0000023204629460BF093FE6FF47A73A342F4
:1054000040F2E733AB4101D26FF0010038BD704785
:10541000034B0360034B0B6080231360704700BF96
:10542000E43E0008E43A0008034B0360034B0B60C2
:1054300080231360704700BFB43F0008E43C0008BD
:1054400030B583B00546002301931C4B1B68C3B1E4
:105450001A4B1B689BB1FEF7B4FC044601F0AAFE90
:1054600050B14FF47A7005FB00F01549A1FB0031F3
:105470008D09B0F57A7F0ED22046FEF7A6FC03B068
:1054800030BD104803F084FC18B90C4B0D4A1A606B
:10549000DEE701BEDCE7012301AA294607480068D0
:1054A00004F058FE0028E7D1019BAB4200D901BEB1
:1054B0000198FFF786FF01F00BFBDDE7CC3A00080F
:1054C000D34D6210D03A000880B110B50446017186
:1054D00031B1042001F039F8206028B1002010BD5E
:1054E000012001F032F8F7E70148F8E7014870477A
:1054F00001000E0605000E0698B110B504460846D8
:10550000FFF75FFF014623792BB1206801F029F9ED
:1055100028B1002010BD206801F052F8F8E70248D9
:10552000F8E70248704700BF00000E0605000E06AF
:1055300088B108B503792BB1006801F020F840B1BB
:10554000002008BD00231A461946006800F02CFF11
:10555000F5E70248F5E70248704700BF02000E0673
:1055600005000E0608B5FFF72CFF01F0C9FB00206F
:1055700008BDEFF3058303B100BE704708B5074BC4
:105580001B7813B1054B187808BD01F03DFE0138BA
:1055900018BF0120014B1870F4E700BFD441000888
:1055A00010B5FFF7E6FF00F04DF90024032C0BDCEB
:1055B000104B53F8243013B1013424B2F6E70D4BED
:1055C000012143F8241001E04FF0FF3400F05CF9B2
:1055D000002C0BDB04EB8401074B03EB01110420CF
:1055E00000F0BEFF034B43F8240010BD00BE0020B6
:1055F000FBE700BF844000089440000810B5044653
:10560000FFF7B7FFFFF7BAFF30B142F21071204643
:1056100001F0A7F80128F8D110BD10B50446FFF736
:10562000A8FFFFF7ABFF00B910BD204600F0A7FFB1
:10563000FAE7000008B5FFF7B3FF074B1860FFF764
:10564000AFFF064B1860FFF7ABFF054B1860FFF785
:10565000A7FF044B186008BDE0410008DC410008CA
:10566000D8410008E441000808B50346084A10681C
:10567000084A121A9A4203DB0344054A136008BD24
:105680000BF016FF0C2303604FF0FF30F7E700BF6D
:105690002023000800E80F0808B5024B1868FFF740
:1056A000ADFF08BDE041000808B5024B1868FFF7E0
:1056B000B4FF08BDE041000800F1080343604FF06B
:1056C000FF328260C36003610023036070470023E0
:1056D0000361704743684B609A688A6051609960C3
:1056E0000861036801330360704703694168826899
:1056F0008A60416851605A68824206D00022026185
:105700001A68013A1A601868704782685A60F5E7AB
:1057100030B40D68B5F1FF3F11D000F108031C460D
:105720005B681A68AA42FAD963684B6099608C601A
:105730006160086103680133036030BC704704692D
:10574000F2E7000082B0002301930D4B1B68B3F118
:10575000FF3F08D04FF03F0383F31188BFF36F8FF3
:10576000BFF34F8F01BE4FF03F0383F31188BFF3A8
:105770006F8FBFF34F8F019B002BFCD002B070479F
:105780002423000808480068006880F308884FF068
:10579000000080F3148862B661B6BFF34F8FBFF389
:1057A0006F8F00DF00BF000008ED00E0DFF80C00A5
:1057B000016841F4700101607047000088ED00E06D
:1057C00008B54FF03F0383F31188BFF36F8FBFF32A
:1057D0004F8F01F097F928B14FF0E0234FF080523E
:1057E000C3F8042D002383F3118808BD4FF08073A4
:1057F00040F8043C21F0010140F8081C054B40F83A
:105800000C3C40F8202C6FF0020340F8243C443854
:10581000704700BF45570010000000000000000066
:10582000074B19680868B0E8F04F80F30988BFF3A8
:105830006F8F4FF0000080F311887047AFF3008046
:10584000604202084FF03F0383F31188BFF36F8F6C
:10585000BFF34F8F0B4A136801331360012B00D045
:1058600070474FF0E023D3F8043D13F0FF0FF7D05B
:105870004FF03F0383F31188BFF36F8FBFF34F8F58
:1058800001BEEDE724230008094B1B6843B94FF024
:105890003F0383F31188BFF36F8FBFF34F8F01BEB8
:1058A000034A1368013B13600BB983F311887047F7
:1058B0002423000800000000000000000000000099
:1058C000EFF30980BFF36F8F154B1A681EF0100FAE
:1058D00008BF20ED108A20E9F04F10602DE9090083
:1058E0004FF03F0080F31188BFF34F8FBFF36F8FEE
:1058F00001F064FA4FF0000080F3118809BC1968C8
:105900000868B0E8F04F1EF0100F08BFB0EC108A26
:1059100080F30988BFF36F8F704700BFAFF300803B
:10592000604202084FF0E022002313619361074BAD
:105930001B680749A1FB03139B09013B5361072324
:105940001361044B9B68044ADA637047EC22000839
:10595000D34D621000ED00E0C157001030B583B0A8
:105960004FF0E023D3F8002D3E4B9A421AD04FF06F
:10597000E023D3F8002D3C4B9A421DD03B4B1A78C4
:10598000D2B20192FF221A701B78DBB28DF803307D
:105990009DF8033003F03F03354A1370354B07225F
:1059A0001A601DE04FF03F0383F31188BFF36F8F40
:1059B000BFF34F8F01BEDAE74FF03F0383F3118847
:1059C000BFF36F8FBFF34F8F01BED7E7294A13682C
:1059D000013B13609DF803305B00DBB28DF80330B0
:1059E0009DF8033013F0800FF0D1224B1B68042B7D
:1059F00008D04FF03F0383F31188BFF36F8FBFF3DD
:105A00004F8F01BE1B4A13681B02136003F4E0634F
:105A10001360019BDBB2154A13704FF0E024D4F8F9
:105A2000203D43F47F03C4F8203DD4F8203D43F0EB
:105A30007F43C4F8203DFFF775FF00250E4B1D6026
:105A4000FFF7B4FED4F8343F43F04043C4F8343F8A
:105A5000FFF798FE01F0B2F9FFF774FE284603B095
:105A600030BD00BF71C20F4170C20F4100E400E0C1
:105A7000E8410008EC41000824230008EFF3058307
:105A80000F2B0FD9114A9B5CDBB2114A12789A4254
:105A900008D94FF03F0383F31188BFF36F8FBFF333
:105AA0004F8F01BE4FF0E023D3F80C3D03F4E063C9
:105AB000084A1268934208D94FF03F0383F31188D4
:105AC000BFF36F8FBFF34F8F01BE7047F0E300E06D
:105AD000E8410008EC4100084FF03F0383F31188D0
:105AE000BFF36F8FBFF34F8F01BEFEE74FF03F0351
:105AF00083F31188BFF36F8FBFF34F8F01BEFEE7B3
:105B0000124A12F0070F1ED0D11D21F00701C1F576
:105B1000003313440A460E480260002141601344DA
:105B2000083B23F007030B48036059601960991A7A
:105B300051601360084B1960084B1960084B4FF017
:105B400000421A6070474FF40033E4E7F441000864
:105B500008420208F0410008FC410208F84102082E
:105B6000F4410208164B1A461B688342FBD3516866
:105B700002EB010C844509D0416800EB010C634540
:105B800009D00360904219D010607047406801440A
:105B900051601046F0E710B40A4C2468A3420BD0C1
:105BA0005B681944416013681B680360904200D031
:105BB00010605DF8044B70470460F7E7704700BF62
:105BC00008420208F041000838B5044601F056FCCE
:105BD000414B1B6833B3414B1B681C4225D1631EEC
:105BE00013F10A0F0BD804F1080214F0070F05D0C7
:105BF00022F007030833934267D91A46CAB901F065
:105C000003F80025FFF768FF15F0070F08D04FF0E5
:105C10003F0383F31188BFF36F8FBFF34F8F01BE34
:105C2000284638BDFFF76CFFD5E700F0EDFF0025F3
:105C3000E8E72B4B1B68934202D32A490C6805E026
:105C400000F0E2FF0025DDE721461C466368934231
:105C500002D22368002BF7D11F4B1B68A34230D020
:105C60000D68083523680B6063689B1A102B12D9E6
:105C7000A01810F0070F08D04FF03F0383F31188EE
:105C8000BFF36F8FBFF34F8F01BE63689B1A4360F2
:105C90006260FFF767FF626811490B689B1A0B602F
:105CA000114909688B4201D20F490B600B4B1B68ED
:105CB00013436360002323600C4A136801331360AD
:105CC00004E000F0A1FF00259CE7002500F09CFF08
:105CD000002D99D196E700BFF0410008F441020879
:105CE000F841020808420208FC410208004202088A
:105CF00000283ED038B50446A0F1080550F8042C21
:105D00001C4B1B681A4208D14FF03F0383F31188E4
:105D1000BFF36F8FBFF34F8F01BE54F8083C43B100
:105D20004FF03F0383F31188BFF36F8FBFF34F8FA3
:105D300001BE54F8043C0F4A1268134202D054F8D2
:105D4000081C01B138BD23EA020344F8043C01F009
:105D500095FB54F8041C084A13680B44136028464A
:105D6000FFF700FF054A13680133136000F04CFF92
:105D7000E8E77047F4410208F841020804420208CB
:105D80000346406A18B11B6B1868C0F107007047E2
:105D900010B50446FFF756FDA26BE36B9A4204D0A0
:105DA0000024FFF771FD204610BD0124F9E710B56E
:105DB0000446FFF747FDA36B23B90124FFF764FDF9
:105DC000204610BD0024F9E770B504461546866BE1
:105DD000026C5AB903681BB100200136A66370BD7E
:105DE000806801F0CBFB0023A360F6E76DB9406843
:105DF0000BF0DEFC226C636813446360A26893427C
:105E000019D3236863602846E7E7C0680BF0D0FC2D
:105E1000226C5142E3689B1AE3602268934202D2EB
:105E2000A3680B44E360022D01D00020D5E726B122
:105E3000013E0020D1E72846CFE70020CDE703460A
:105E4000026C6AB110B50846D9681144D9609C68E3
:105E5000A14201D31968D960D9680BF0A9FC10BD23
:105E6000704738B50546FFF7EDFC95F8454064B23C
:105E700001E0013C64B2002C0ADD6B6A43B105F11C
:105E8000240001F0BBF80028F3D001F08DF9F0E711
:105E9000FF2385F84530FFF7F7FCFFF7D3FC95F8B3
:105EA000444064B201E0013C64B2002C0ADD2B697D
:105EB00043B105F1100001F0A1F80028F3D001F082
:105EC00073F9F0E7FF2385F84430FFF7DDFC38BDB8
:105ED0002DE9F8430E4691461D460446C8B116B357
:105EE000022D2DD0FFF7CAFDEFF311884FF03F03CD
:105EF00083F31188BFF36F8FBFF34F8FA26BE36BF8
:105F00009A422AD3022D28D0002088F31188BDE8B8
:105F1000F8834FF03F0383F31188BFF36F8FBFF314
:105F20004F8F01BEDBE7236C002BD9D04FF03F032E
:105F300083F31188BFF36F8FBFF34F8F01BECFE79D
:105F4000E36B012BCED04FF03F0383F31188BFF3F7
:105F50006F8FBFF34F8F01BEC4E794F845707FB2D7
:105F6000A36B2A4631462046FFF72EFFB7F1FF3FCD
:105F700007D07F2F15D001377FB284F845700120FC
:105F8000C3E7636A0BB90120BFE704F1240001F005
:105F900035F880B1B9F1000F0FD00120C9F8000029
:105FA000B3E74FF03F0383F31188BFF36F8FBFF365
:105FB0004F8F01BEDFE70120A7E70120A5E770B5FD
:105FC0000E46044660B3236C43B14FF03F0383F3A6
:105FD0001188BFF36F8FBFF34F8F01BE23684BB3A0
:105FE000FFF74CFDEFF311854FF03F0383F311886A
:105FF000BFF36F8FBFF34F8FA26BE36B93423DD91B
:1060000094F845305BB20132A263B3F1FF3F1ED07A
:106010007F2B29D001335BB284F8453001202EE07C
:106020004FF03F0383F31188BFF36F8FBFF34F8FA0
:1060300001BEC8E7A368002BD2D04FF03F0383F323
:106040001188BFF36F8FBFF34F8F01BEC8E7636A3C
:106050000BB9012013E004F1240000F0CFFF88B158
:1060600096B1012030600AE04FF03F0282F31188C0
:10607000BFF36F8FBFF34F8F01BECBE7002085F3D7
:10608000118870BD0120FAE70120F8E7F0B585B06E
:106090000F460192044680B1CFB101F0B5F850B976
:1060A000019B43B14FF03F0383F31188BFF36F8F20
:1060B000BFF34F8F01BE002655E04FF03F0383F33F
:1060C0001188BFF36F8FBFF34F8F01BEE4E7236CDE
:1060D000002BE2D04FF03F0383F31188BFF36F8FA3
:1060E000BFF34F8F01BED8E739462046FFF7A7FE22
:1060F000013DA563236923B9FFF7C6FB012005B065
:10610000F0BD04F1100000F079FF0028F4D04FF04A
:10611000E0234FF08052C3F8042DBFF34F8FBFF33D
:106120006F8FE9E7FFF7B0FB0020E8E702A801F076
:10613000CDF9012621E0002384F8443029E0002332
:1061400084F845302BE02046FFF78BFE00F05CFD25
:1061500009E02046FFF785FE00F056FD2046FFF7D8
:1061600026FE00283FD1FFF76DFBA56B002DBBD1AC
:10617000019B002BD6D0002ED8D0FFF785FB01F075
:106180007DF9FFF75FFB94F844305BB2B3F1FF3F5A
:10619000D1D094F845305BB2B3F1FF3FCFD0FFF7D9
:1061A00073FB01A902A800F0B9FF0028D1D1204655
:1061B000FFF7FDFD0028C6D0019904F1240001F08D
:1061C0006BF92046FFF74DFE00F01EFD0028CAD1F6
:1061D0004FF0E0234FF08052C3F8042DBFF34F8FF0
:1061E000BFF36F8FBFE7002089E738B50D4604463F
:1061F000D0B1FFF727FB2368E26B216C01FB023073
:10620000A0600020A0636360013A02FB0133E360F9
:10621000FF2384F8443084F8453005BB23696BB90B
:10622000FFF732FB012038BD4FF03F0383F31188A5
:10623000BFF36F8FBFF34F8F01BEDAE704F1100099
:1062400000F0DCFE0028EBD04FF0E0234FF080524E
:10625000C3F8042DBFF34F8FBFF36F8FE0E704F156
:106260001000FFF729FA04F12400FFF725FAD7E719
:1062700038B51D46049C0B4649B92460E06323648D
:1062800001212046FFF7B1FF84F84C5038BD226051
:10629000F4E710B584B01C46844640B94FF03F0384
:1062A00083F31188BFF36F8FBFF34F8F01BE3CB3F1
:1062B0004AB141B94FF03F0383F31188BFF36F8FA9
:1062C000BFF34F8F01BE2AB350230393039B502B80
:1062D00008D04FF03F0383F31188BFF36F8FBFF3F4
:1062E0004F8F01BE039B44B1012384F846300094D4
:1062F0009DF818306046FFF7BBFF204604B010BD84
:106300004FF03F0383F31188BFF36F8FBFF34F8FBD
:1063100001BECDE70029D7D04FF03F0383F31188AA
:10632000BFF36F8FBFF34F8F01BECDE7F0B583B0E2
:106330000C461746064640B94FF03F0383F31188D9
:10634000BFF36F8FBFF34F8F01BE04FB06F064B144
:10635000B0FBF4F3B34208D04FF03F0383F311884E
:10636000BFF36F8FBFF34F8F01BE10F1510F08D9EC
:106370004FF03F0383F31188BFF36F8FBFF34F8F4D
:1063800001BE5030FFF720FC054650B1002380F8D5
:10639000463000903B4600F1500221463046FFF760
:1063A00067FF284603B0F0BDF0B585B00F460192F7
:1063B0001D46044690B1DFB1022D26D000F024FF27
:1063C00050B9019B43B14FF03F0383F31188BFF3F2
:1063D0006F8FBFF34F8F01BE002661E04FF03F0388
:1063E00083F31188BFF36F8FBFF34F8F01BEE2E7D6
:1063F000236C002BE0D04FF03F0383F31188BFF3F1
:106400006F8FBFF34F8F01BED6E7E36B012BD5D063
:106410004FF03F0383F31188BFF36F8FBFF34F8FAC
:1064200001BECBE72A4639462046FFF7CDFC636A1A
:106430007BB948B14FF0E0234FF08052C3F8042DF0
:10644000BFF34F8FBFF36F8FFFF71EFA012005B028
:10645000F0BD04F1240000F0D1FD0028F4D04FF08D
:10646000E0234FF08052C3F8042DBFF34F8FBFF3EA
:106470006F8FE9E7FFF708FA0020E8E702A801F0CC
:1064800025F8012619E0002384F8443021E0002398
:1064900084F8453023E02046FFF7E3FC00F0B4FB2E
:1064A000FFF7D0F9A26BE36B9A42BBD3022DB9D0B0
:1064B000019B002BDED0002EE0D0FFF7E5F900F0C5
:1064C000DDFFFFF7BFF994F8440040B2B0F1FF3FA1
:1064D000D9D094F8450040B2B0F1FF3FD7D0FFF7D4
:1064E000D3F901A902A800F019FED8B92046FFF798
