:020000041000EA
:1000000000200008EB0000100D0000004D01001062
:1000100000000000000000000000000000000000E0
:100020000000000000000000000000004901001076
:10003000000000000000000049010010490100100C
:100040004901001049010010490100104901001048
:100050004901001049010010490100104901001038
:100060004901001049010010490100104901001028
:100070004901001049010010490100104901001018
:1000800010B5064C2378002B07D1054B002B02D06E
:10009000044800E000BF0123237010BDB003000836
:1000A000000000000C150010044B10B5002B03D00D
:1000B0000349044800E000BF10BDC0460000000036
:1000C000B40300080C1500100230800803D0013082
:1000D0000238FCD1C046C0467047EFF3108072B6BC
:1000E000704780F3108870477047FFF7FDFF72B6C6
:1000F0000F4C104DAC4209DA21686268A368043BDA
:1001000002DBC858D050FAE70C34F3E70A490B4A2F
:100110000020521A02DD043A8850FCDC08480949E4
:100120000860BFF34F8F00F0F9FE00F0A9FEFEE774
:100130001815001030150010B0030008C80500089D
:100140000000000808ED00E0FEE7FEE700B504202F
:100150007146084202D0EFF3098002E0EFF3088015
:10016000043000F08DFCFEE7014B18607047C0467C
:10017000C4050008044B1B681A00BA3212881B6AB7
:100180005043C0187047C046C40500081D4B984234
:100190000FD010D840282FD005D8002830D01028F4
:1001A00028D019481EE0802828D080235B00984280
:1001B000F7D1144816E0154B984214D008D8A02364
:1001C0001B0698421CD0124B9842EAD1A0200BE0AB
:1001D000104B98420AD0104B984209D00F4B9842CE
:1001E000DFD10F487047A420C003FBE70D48F9E7B3
:1001F0000D48F7E70D48F5E70D48F3E70D48F1E73F
:100200000020EFE706005200FF005200010000F05E
:10021000090000A0040000F0050000F0030000F059
:100220000100520002005200030052000100500081
:10023000020050000500520010B50020FFF79AFFA1
:100240000A4B1C682300BC331B68C0180368002BD2
:100250000ADB074B1868FFF799FF012263689A6071
:100260009A68002AFCD110BD0248FCE7C4050008CA
:10027000CC03000802005000064B1B68BC331B680F
:10028000C3181B68002B03DA89B241600020704755
:100290000148FCE7C405000801008A000368002B40
:1002A00004DA89B2C2608160002070470048FCE730
:1002B00001008A00064B1B68BC331B68C3181B680F
:1002C000002B03DAC36800200B6070470148FCE78D
:1002D000C405000801008A00024B1A68002A00D1F8
:1002E00018607047E0030008F0B52C246043154CFB
:1002F0001F0024681D0A2018FF2425402740124CA7
:100300001B0C26680760346A45608360BA363688FD
:1003100077433F1907612F0080376D017F01E7198F
:1003200064190A4D47611F043B436419236000238D
:100330008361059BC2610162002B01D01B88838110
:10034000F0BDC046E0030008C40500080810000026
:10035000F0B5836885B002AD2B800368066A173359
:100360006B804368476A0095826AC16A0400039300
:100370000369C068FFF7B8FF00213B000A00009145
:100380003000FFF7B1FF216B280000F02DFB0022A9
:10039000AB5E002B06DB1F2213401E3A9A4013006F
:1003A000014A136005B0F0BD00E100E0F7B52C256F
:1003B000134C684326686943341825690193711802
:1003C000002D19D08869002818D12E68002E15DA62
:1003D0006768012426004B689E40B44613689EB2AD
:1003E00063461B041E431660EA608C61BC40019B9F
:1003F000A4B24B62AC60FEBD0248FCE70248FAE7DB
:10040000E003000804028A0007028A0073B5002690
:1004100042690400D56801962B0CB34221D01B041D
:1004200013601368194B00691B68BC331B68C31841
:100430001B68B34215DA01A9FFF73CFFB0420CD1AB
:100440000198E26903681E0CDBB29A4205D9226A60
:100450009B009B58002B00D0984731002069FFF784
:100460000BFFADB2002D09D063691D6000251B682C
:10047000636AAB4205D098476562A56163691B68F2
:1004800073BDA36A002BF8D09847F6E7C4050008AF
:100490002C2310B54343034A1068C018FFF7B6FF7A
:1004A00010BDC046E0030008F8B5194B0F001B68EB
:1004B0001A0033321278824227D9002925D01F250D
:1004C0000A68154021D11900BA310C88114E6043D9
:1004D0001C6AD208041929007868346000F07EFF95
:1004E00029002000FFF7C8FE3A0029003068FFF716
:1004F000D5FE041E07D101003068FFF7BDFE0300E2
:100500002000002B00D00448F8BD0448FCE7C0469A
:10051000C4050008E403000801018A0003018A0001
:1005200010B5002A0DD1002914D10B4B1A68130005
:10053000BA331B885843136AC018084B1860080068
:1005400010BD002906D0064B196019005A60FFF74C
:10055000ABFFF5E70348F3E7C4050008E403000830
:100560007803000803018A00F7B5184F04003B68C0
:100570000191DE683368834226D90025A94202D161
:10058000FFF7ABFD050038680368002B1ADA1F225D
:1005900001232240934064097268A4001419226860
:1005A00013420DD09A43226000240021FFF764FE1D
:1005B000019B002B02D12800FFF793FD2000FEBD18
:1005C000034CF2E7034CF3E7034CF7E7E4030008BE
:1005D000020188000301880004018A000A4B1B689D
:1005E000DB681A6882420DD959681F2342091840F6
:1005F0001E3B8340920050581840431E9841034BC5
:10060000C01870470248FCE7E403000800018800B6
:1006100004018A00054B1B681A0088321B681268A7
:100620009B181868000AC0B27047C046C40500088D
:10063000044B1B681A0088321B6812689B181868E4
:10064000000E7047C4050008024B18694007C00F30
:100650007047C04600002740A6220549D2008B58AB
:100660000220DB439B0702D00123885818407047C3
:100670000000264010B5FFF7EFFF0023022801D14C
:10068000014B1B68180010BDEC030008094A8300E9
:100690009B18D0229200985807221040042807D1B6
:1006A000C022920098581F23034080204000184326
:1006B0007047C0460000264010B5FFF7E7FF02284C
:1006C0001CD005D8002824D0012814D0002014E024
:1006D0001223FF33984214D01423FF33984215D0CD
:1006E000033B9842F2D10C4A0C4BD358002BEDDA65
:1006F0008020000201E00A4B186810BDFFF7BAFF26
:10070000FBE7FFF7A1FF0028E0D0F1E7024A054B25
:10071000EBE70548F1E7C046000026400C05000065
:10072000E80300083C05000000127A00B023154AD7
:10073000DB00D35810B59903DB01DB0F890BC371C4
:10074000114B0160D3580F24D904DB01DB0D038169
:10075000B123DB00D358C90C81801900214081727C
:1007600019092140C172D9029B009B0F8373074B6B
:10077000C90CD35881815A05DB01520FDB0D827100
:10078000038210BD00002640840500008C05000097
:1007900010B5104B421E1B683F331B78934216D98D
:1007A0007F221F248030FF300B4B8000C3581A403B
:1007B0000A701A0C2240180A8A701A012040E2407E
:1007C000487000209B009B0FCA700B7110BD03483E
:1007D000FCE7C046C40500080000264001004A00AE
:1007E000F0B589B003AC14220021200000F0F6FD22
:1007F0002000FFF79BFFB0231A4ADB00D2580023EA
:100800009A4203DAA37B023B5A1E9341E579002604
:100810006A1E95410135B34221D0A488B4421ED04E
:10082000039B30000193FFF747FF2A0033000700C6
:100830003100200000F0BCFC0C0005003300019AE0
:100840003100380000F0B4FCE6076A083243630860
:10085000801859412A00230000F08AFC060030006D
:1008600009B0F0BD00002640F0B50026244B85B04D
:100870001B6807003F331B78B3423ED0B0423CD0E8
:1008800083423AD30522310002A800F0A7FD02A955
:100890003800FFF77DFF3B008033FF33194A9B0090
:1008A0009B58B34229DA02AB1B79022B25D002AB4D
:1008B0005C78B44221D09D78B5421ED01B783800B8
:1008C0000193FFF7F9FE2A003300070031002000F2
:1008D00000F06EFC0C0005003300019A3100380076
:1008E00000F066FCE6076A08324363088018594145
:1008F0002A00230000F03CFC0600300005B0F0BDEB
:10090000C40500080000264010B5041E04D1FFF7FE
:1009100067FF002806D008E0064B1B683F331B78B2
:10092000834203D22000FFF7C7FE10BDFFF79CFFF4
:10093000EFE7C046C4050008E02210B50124094BCA
:1009400080009200C018835880589B069B0F9C40E3
:100950000F231840FFF7D8FF63081818210000F094
:100960007BFB10BD00002640144B30B51A680724ED
:1009700013002C331B781F2B15D883081D00A543AB
:100980002C1E0FD103342040A040814012689B00F0
:100990002032D3180A00FF2181401C6862401140B8
:1009A0006140196030BD802320401B06184380231E
:1009B0009B011268C91889008850F3E7C405000834
:1009C000064B9A680300064810339B00824202D10E
:1009D000985899507047034AD058FBE700ED00E063
:1009E0000000000800000010F8B506000D00002807
:1009F0003AD00023C05E002828DB7188FFF7B4FFDF
:100A00000024FF22032794460023F05E716883B21E
:100A10001F40FF006646BA4089013140D243B940C9
:100A2000002815DB114E83089B009B19C026B600D9
:100A30009F593A40114399510D4B9A680D4B9A4278
:100A400002D12900FFF7BCFF2000F8BD0A4CD8E70F
:100A50000F263340083B064E9B089B009B19DE691E
:100A600032401143D961E7E7034CEDE700E100E0D4
:100A700000ED00E00000000801005600FEE7000065
:100A800002680A4B10B51A6042685A6082689A6020
:100A9000C268DA6002691A6142695A6182699A61C0
:100AA000C269DA61FFF7EAFF10BDC0469003000893
:100AB000B0235B055A782120002A01D05878C0B2B3
:100AC0007047B0235B059A89002A02D0988980B2CA
:100AD000704780204000FBE77FB5274B86000D0064
:100AE000F458042901D0012927D100200FE0A36880
:100AF0002B420BD1E36829001A685B6802920193CC
:100B0000039302A8236898471C4B1C606469002C5F
:100B10000BD01B4B9842EAD1012DE8D1174B184856
:100B20001A68184B9A5104B070BD012DFBD1144BBB
:100B30009842F3D0134B9C51F5E7022906D10F4B95
:100B40001B68181EEFD01C6903E01C006369002BB2
:100B5000FBD10020002CE6D0A3682B4209D1E3682A
:100B600029001A685B6802920193039302A8236824
:100B700098472469EEE7C046300400082C040008BA
:100B8000FF004200180400081A4B1B681900883146
:100B90001A68096851180968016219008C310968DE
:100BA0005218126842621A0046321278002A1FD088
:100BB0009A68E0321268D2061AD5F222DB68D201B6
:100BC0009A580260F022D2019A5842600A4A9A5812
:100BD00082600A4A9A58C260094A9A580261094AD0
:100BE0009A584261084A9A588261084A9B58C361E0
:100BF0007047C046C405000804780000087800006B
:100C00000C780000107800001478000018780000BC
:100C10001A4B1B681A008832196812688A18016A10
:100C200011601A008C32196812688A18416A1160C2
:100C30001A0046321278002A1ED09A68E0321268F2
:100C4000D20619D5F0224168DB68D201995081683B
:100C50000B4A9950C1680B4A995001690A4A995048
:100C600041690A4A99508169094A9950C169094AFA
:100C700099500168E83299507047C046C405000891
:100C800004780000087800000C780000107800005C
:100C90001478000018780000F7B50700FFF708FF88
:100CA000664D06006B68002B00D07DE0FFF715FA5B
:100CB0006B680090002B00D089E0614C2268130023
:100CC000BA33198807234B43126A9B181A68002A03
:100CD000FCDADB68DA0021D51B0F1B0759480193AA
:100CE000FFF752FF5849212E00D075E0226890206E
:100CF000130088331C68136800011C1923680B401B
:100D00000343236013008C3312681B68D3181A68DE
:100D10001140084318604B4B019A13438022484E00
:100D20009205316813430A00BA3210880722002462
:100D30004243096A5218D36054605368FFF7C1FEFA
:100D400080235B0098425DD1380000F05DFB326883
:100D50001300BA33198807234B43126A9B181A6889
:100D6000002AFCDADF68FB0003D538010009FFF731
:100D70004FFF364B32681F401300BA3319880723E0
:100D80004B43126A00989B180022DF605A60FFF7FD
:100D9000A8F9002C0FD16B68002B03D0082101208B
:100DA000FFF79AFE2000FEBD01210800FFF794FE28
:100DB000041E00D17AE76B68002B03D002210120CA
:100DC000FFF78AFE224B9C42ECD0224CEAE704213A
:100DD0000120FFF781FE70E720688022030088333E
:100DE0001C68036852001C1923680B4013432360DE
:100DF00003008C3300681B68C318186801400A435D
:100E00001A6088E733681A00BC32196A12685218EF
:100E10001168002910DBBA331B889A181368002B5D
:100E20000ADB04230C4A11690B431361012F01D023
:100E300030BF8CE720BF8AE7054C88E73004000804
:100E4000C4050008F0030008FF00FFFFFFFFFFDFFD
:100E500005004200FF00420000ED00E0C0228020BB
:100E6000064952008B58C0059B009B0803438B50DA
:100E7000802388581B0603438B5070470000264090
:100E800010B562B6034800F0C1F80020FFF704FF78
:100E9000FBE7C0460020001010B50020FFF7F8FA6D
:100EA00010BD704710B50020FFF746FD041E25D089
:100EB000134B1860FFF7BCFB411C200000F0CCF87E
:100EC000104B04001860FFF7A5FB411C200000F048
:100ED000C3F80D4B441E18600C49200000F0BCF80C
:100EE000FA210B4B013018708900200000F0B4F893
:100EF000084B01301860084BC003186010BDC04695
:100F000084000008880000088000000840420F00AC
:100F100094000008900000088C00000810B52048DC
:100F2000FFF722F9B022E02130201E4CD200A35856
:100F300089005B005B08A3506358834363508023A0
:100F40005B04A350184B194AE250A02204339201CB
:100F5000E250FF22164BE250FFF780FFC022012132
:100F60005200A3588B43A350FFF79BFFFFF79AFF54
:100F7000104B03201A681300BA33198807234B4318
:100F8000126A80219B180022DA605A600A4AFFF731
:100F9000C7FA0A48FFF7A0F90948FFF7D9F910BDC9
:100FA0001814001000002640840500000100020013
:100FB0008C050000C40500088003000844040008F4
:100FC000D81400109023034A5B01D0580323184023
:100FD0007047C0460000204010B59024FFF77DF810
:100FE000074B64011A5907491140074A0A431A512D
:100FF000102259681142FCD0FFF773F810BDC046AB
:1010000000002040FCFF00000100FA05F8B5902523
:101010000E4C6D010700FFF760F863590600DB43D3
:101020009B0701D1FFF7D8FF80239B00E75063594E
:10103000074A1A40074B13436351102362681A4250
:10104000FCD03000FFF74DF8F8BDC046000020404E
:10105000FCFF00000300FA05002243088B4274D312
:1010600003098B425FD3030A8B4244D3030B8B42A9
:1010700028D3030C8B420DD3FF22090212BA030CB2
:101080008B4202D31212090265D0030B8B4219D393
:1010900000E0090AC30B8B4201D3CB03C01A5241B3
:1010A000830B8B4201D38B03C01A5241430B8B42FB
:1010B00001D34B03C01A5241030B8B4201D30B03E4
:1010C000C01A5241C30A8B4201D3CB02C01A52410B
:1010D000830A8B4201D38B02C01A5241430A8B42CE
:1010E00001D34B02C01A5241030A8B4201D30B02B7
:1010F000C01A5241CDD2C3098B4201D3CB01C01AD1
:10110000524183098B4201D38B01C01A52414309DA
:101110008B4201D34B01C01A524103098B4201D3C8
:101120000B01C01A5241C3088B4201D3CB00C01A35
:10113000524183088B4201D38B00C01A52414308AD
:101140008B4201D34B00C01A5241411A00D20146D2
:10115000524110467047FFE701B5002000F006F845
:1011600002BDC0460029F7D076E770477047C046F9
:10117000002B11D1002A0FD1002900D1002802D064
:101180000021C943081C07B4024802A1401802907C
:1011900003BDC046D9FFFFFF03B4684601B50298FE
:1011A00000F030F8019B9E4602B00CBC7047C04670
:1011B000F0B5CE46474615042D0C2E0080B5070429
:1011C000140C3F0C9946030C7E435D436743634315
:1011D0007F19340CE4199C46A54203D980235B0295
:1011E0009846C4444B4643435143250C360465445A
:1011F000360C2404A4195B19591820000CBC904625
:101200009946F0BDF0B54F464646D646C0B50400F7
:1012100082B00D00914698468B422FD82CD0414683
:10122000484600F0CFF829000600200000F0CAF878
:10123000331A9C46203B9A4600D576E04B465246F0
:1012400093401F004B46624693401E00AF4228D891
:1012500025D05346A41BBD41002B00DA7BE00022C1
:1012600000230092019301235246934001930123EE
:1012700062469340009318E08242D0D900220023B6
:10128000009201930A9B002B01D01C605D600098C6
:10129000019902B01CBC90469946A246F0BDA342FB
:1012A000D7D900220023009201936346002BE9D096
:1012B000FB079846414672080A437B0866460EE0E3
:1012C000AB4201D1A2420CD8A41A9D41012024199D
:1012D0006D410021013E24184D41002E06D0AB4245
:1012E000EED9013E24196D41002EF8D100980199E4
:1012F000534600196941002B23DB2B005246D34093
:101300002A006446E2401C0053461500002B2DDBEA
:1013100026005746BE40330026006746BE403200D6
:10132000801A994100900191ACE7624620239B1AF4
:101330004A46DA406146130042468A4017001F437E
:1013400080E7624620239B1A2A0066469A402300C3
:10135000F3401343D4E76246202300219B1A002266
:10136000009101920122DA40019280E72023624637
:1013700026009B1ADE402F00B0466646B740464620
:101380003B003343C8E7C0461C2101231B0498429D
:1013900001D3000C10391B0A984201D3000A083906
:1013A0001B09984201D30009043902A2105C4018BD
:1013B0007047C04604030202010101010000000061
:1013C0000000000010B5002903D1FFF7DDFF203039
:1013D00002E0081CFFF7D8FF10BDC046030012183A
:1013E000934200D1704719700133F9E7F8B5C04650
:1013F000F8BC08BC9E467047F8B5C046F8BC08BCAF
:101400009E4670470000000001B40248844601BCBB
:10141000604700BF61020008000020400000244037
:1014200000000040000000000000234000003040A9
:101430000000314000009F400000224000001040AA
:1014400000009D402020202020101010101D1D8025
:1014500017007500FF030602060036041020000086
:101460007FC0000000040000000000000019324BA3
:10147000647D0000000000804000080B10000000A8
:101480000000FF012002001F00800004FF08101868
:10149000001000140018001C4044484C500000008C
:1014A0000810000008000000040000000410000004
:1014B00000120000042100000021000000160000BE
:1014C00040114002C41300138013A013401388136B
:1014D000A81320001C000000030000000100000011
:1014E000010000000000000005036000040000008F
:1014F0000100000000000000010000000604600080
:1015000008000000A4050008990E0010000000006B
:10151000F4FCFF7F01000000000000100000000844
:10152000800000003815001080000008F80200005C
:10153000B00300081802000000093D0000127A0004
:1015400000093D000000D007A00F000004000000CB
:10155000A90000108100001080B230B5C00020D07A
:10156000104B07221C682300BA331B885A43236A96
:10157000D31819680029FCDA3E210B4B06251960A7
:101580000A4B0B491960A3210A4BC9005D500A4957
:1015900058505858206A1218002050605A58002A93
:1015A000FCDA30BDC40500080401264008012640CD
:1015B0001E1F0000000026401C05000010B54378E7
:1015C000FF2B11D100F01CF90400032000F008F9F2
:1015D000C3685A68012311681943116011681942E0
:1015E000FCD1200000F0DCF810BDF7B50090002021
:1015F000019100F0F5F83F4D06002B681A005033BA
:10160000BC3214681B780419002B5AD000F0F0F893
:10161000070003281BD000F0F3F8374A374B0500CA
:10162000D358002B3EDA364A0121300000F0F0F8A2
:10163000002837D10198FFF78FFF009B002B3ED089
:101640002368002BFCDB00F0BBF804002BE0062035
:1016500000F0C6F82B68BC331B68C0180368002B69
:1016600002DA284C2000FEBD002000F0A1F8264B35
:101670009842F6D00023254A19001268012000F094
:10168000A7F80025A842ECD1002000F091F81E4AEE
:101690001F4B904203D09D42E3D00135F4E79D42B9
:1016A000B9D1DEE7174C032F05D10121002000F04E
:1016B000B7F80028F9D1280000F072F8D2E7154CED
:1016C000F1E700F09DF80E4A05000121300000F01E
:1016D0009FF8002809D1009B002B08D02368002B1D
:1016E000FCDB00F06DF80400E5E7064CE3E7094C8D
:1016F000E1E7C046C4050008000026401C050000C4
:10170000CC0300080500520001018800DC0300083A
:10171000F049020001005000184BF7B51B68184A49
:101720005C68042311690B431361012824D030BF86
:101730002300FC331B69002B1DD1A320114B124940
:10174000124AC0000F681E5815680195104D0D60B3
:1017500006251D503E2010600E483E351D501D5878
:10176000002DFCDA0C48FC3420610F60A321C90075
:101770005E50019B1360F7BD20BFD9E7C405000888
:1017800000ED00E00000264008012640040126404C
:101790001E1F00001C050000AAAAAAAA0000000043
:1017A00001B40248844601BC604700BFE30000105A
:1017B00001B40248844601BC604700BFDD0500104B
:1017C00001B40248844601BC604700BF39020010E2
:1017D00001B40248844601BC604700BFAD0300105D
:1017E00001B40248844601BC604700BF7501001087
:1017F00001B40248844601BC604700BFC50F001019
:1018000001B40248844601BC604700BFDB00001001
:1018100001B40248844601BC604700BF9D0200102D
:1018200001B40248844601BC604700BF690500104E
:1018300000000000000000000000000000000000A8
:081840000000000000000000A0
:1020000000F80F08153700100D0000008937001088
:102010008937001089370010893700100000000050
:10202000000000000000000000000000A1590010A6
:102030008537001000000000415A0010415900107F
:102040008537001085370010853700108537001060
:102050008537001085370010853700108537001050
:102060008537001085370010853700108537001040
:102070008537001085370010853700108537001030
:1022E00010B5054C237833B9044B13B10448AFF350
:1022F00000800123237010BD202A00080000000088
:10230000BC8F011008B5034B1BB103490348AFF361
:10231000008008BD00000000242A0008BC8F0110C6
:1023200003460021084604E011B9013040B2012102
:1023300001331A781AB1202AF6D00021F8E701B942
:102340007047013840B2FBE738B50A46094B1B68B5
:1023500053B1084C25682B68596810F03EF96B683A
:1023600023602BB1012038BD024B03491960F0E70F
:102370000020F8E7402A0008E422000838B50546A6
:1023800090B1082003F0E0FC0446B8B104B303F0B8
:1023900019FB2560002363600E4B1A6854601C60B3
:1023A00003F032FB012038BD4FF03F0383F3118867
:1023B000BFF36F8FBFF34F8F01BEE2E74FF03F03D4
:1023C00083F31188BFF36F8FBFF34F8F01BEDDE73B
:1023D0000020E8E7E02200082DE9F047074688469C
:1023E00091462B4B1B68ABB10126294B1B680BB1E7
:1023F000002E3DD0002B44D01B689B683A464946CE
:1024000040469847064610B9214B00221A603046D4
:10241000BDE8F0871E4B1F4A1A6009E03846FFF7F7
:102420007FFF8442E1D10126DFE76A68184B1A601A
:10243000174B1D68D5B1D5F800A0DAF8006030461A
:1024400010F0AFF8044602463146384610F0B1F8B5
:1024500006460028E9D13B5D202B01D0002BE4D1BA
:102460009AF90C40002CD9DA0126BEE70126BCE718
:102470004A460949404610F0B0F8054B00221A6060
:10248000C5E74A460549404610F0A7F80026BEE7D2
:102490003C2A0008E4220008705A0110C85A0110B2
:1024A000002313609C460EE0013003780BB1202B13
:1024B000FAD10378202B01D10130FAE7A3B10CF156
:1024C000010C61450ED08C45EFD300207047136896
:1024D0000133136001310B780BB1202BF7D1136856
:1024E00023B170470146F6E700207047002070478F
:1024F00070B52DED028B8EB004465E4E01A930689A
:102500000DF019F8054630680DF0A4FB07EE100A2F
:10251000DDED047AF8EEE77A67EE278A30680DF091
:1025200099FB07EE100ADDED037AF8EEE77A27EE65
:10253000278A9DF83030012B05D0022B23D0032BA6
:1025400023D04D4E00E04D4E0DB34D4DA44605F148
:1025500020062C460FCCCCF80000CCF80410CCF8A8
:102560000820CCF80C3025460CF1100CB442F0D108
:102570002068CCF80000A388ACF8043000200EB02E
:10258000BDEC028B70BD3F4EDEE73F4EDCE73F48BF
:102590000FF092FD0A200FF0A7FD3D480FF08CFDD3
:1025A00031463C480FF088FD0A200FF09DFD3A4867
:1025B0000FF082FD18EE900A0DF0F2FF02460B4676
:1025C000364D28460FF078FD0A200FF08DFD344877
:1025D0000FF072FD18EE100A0DF0E2FF02460B46F6
:1025E00028460FF069FD0A200FF07EFD2D480FF000
:1025F00063FD05980DF0D4FF02460B4628460FF008
:102600005BFD0A200FF070FD27480FF055FD06987E
:102610000DF0C6FF02460B4628460FF04DFD0A207E
:102620000FF062FD21480FF047FD9DF83130C3B136
:102630001F480FF041FD0A200FF056FD1D480FF016
:102640003BFD9DF8323083B119480FF035FD0A206B
:102650000FF04AFD0D480FF02FFD174B1B8823800C
:102660008CE716480FF028FDE5E714480FF024FD2D
:10267000EDE700BF442A0008885B01106C5B011085
:10268000945B0110785B01105C5B0110BC5B011076
:10269000C85B0110D85B0110DC5B0110F05B01101E
:1026A000F45B0110085C0110245C0110405C011017
:1026B0005C5C01106C5C0110885D0110645C0110B1
:1026C00038B50446134D28460FF0F6FC0A200FF0EB
:1026D0000BFD11480FF0F0FC0A200FF005FD0F482C
:1026E0000FF0EAFC0A200FF0FFFC0D480FF0E4FCAD
:1026F0000A200FF0F9FC0B480FF0DEFC0A200FF067
:10270000F3FC28460FF0D8FC074B1B8823800020E1
:1027100038BD00BF885C0110985C0110DC5C0110C2
:10272000FC5C01102C5D0110885D011070B58EB04D
:10273000034610461D462BB36A460121FFF7B0FE43
:10274000044648B301A9584B18680CF0F4FE68BB66
:10275000564920460FF01BFF002846D0544920461A
:102760000FF015FF00285BD0524920460FF00FFFF5
:10277000002857D0504920460FF009FF002853D1B8
:10278000012333E04FF03F0383F31188BFF36F8FD2
:10279000BFF34F8F01BECFE74FF03F0383F31188A4
:1027A000BFF36F8FBFF34F8F01BECBE7434CAC46F7
:1027B00004F12005A646BEE80F00CCF80000CCF8D6
:1027C0000410CCF80820CCF80C3074460CF1100C36
:1027D000AE45EFD1DEF80000CCF80000BEF80430C2
:1027E000ACF8043000200EB070BD0123002B52D095
:1027F0002E4920460FF0CBFEC0B12D4920460FF0E8
:10280000C6FE00283DD02B4920460FF0C0FE002810
:1028100039D0294920460FF0BAFEB0B3002306E0B4
:102820000123E3E70123E1E70023DFE700238DF83D
:10283000303004F0E3FE1C4E01A930680CF085FE38
:10284000044630680DF014FA04F09EFAFCB11C4EF8
:10285000AC4606F1200534460FCCCCF80000CCF88D
:102860000410CCF80820CCF80C3026460CF1100CE3
:10287000AC42F0D12288A378ACF800208CF802306A
:10288000B0E70123D3E70223D1E70323CFE70D4BC2
:1028900018682860A6E70C4C0FCC28606960AA6015
:1028A000EB6023882B829DE7442A0008885B011097
:1028B0006C5B0110785B01105C5B0110945B011094
:1028C000505D0110745D0110785D0110F0B58FB09E
:1028D000034610461D46CBB16A460121FFF7E0FDD5
:1028E0000446E8B101A94B4B18680CF024FE08BB64
:1028F000494920460FF04BFE00283AD04749204670
:102900000FF045FE00286ED1012633E04FF03F0363
:1029100083F31188BFF36F8FBFF34F8F01BEDBE7E7
:102920004FF03F0383F31188BFF36F8FBFF34F8FD7
:1029300001BED7E73A4CAC4604F12005A646BEE8F6
:102940000F00CCF80000CCF80410CCF80820CCF82C
:102950000C3074460CF1100CAE45EFD1DEF80000DF
:10296000CCF80000BEF80430ACF8043000200FB002
:10297000F0BD0126002E43D0274920460FF007FE68
:10298000074620B1254920460FF001FE68BB07B17C
:1029900000268DF8326004F031FE1E4E01A9306829
:1029A0000CF0D3FD044630680DF062F904F0ECF948
:1029B00014B31C4EAC4606F1200534460FCCCCF8BF
:1029C0000000CCF80410CCF80820CCF80C302646D7
:1029D0000CF1100CAC42F0D12288A378ACF80020A6
:1029E0008CF80230C2E70026C4E70F4B0F4A40F2D2
:1029F0006B310F480EF0FEFA0E4B18682860B5E7F1
:102A00000D4C0FCC28606960AA60EB6023882B8294
:102A1000ACE700BF442A00085C5C0110645C011054
:102A2000945B0110505D01108C5D0110AC610110D0
:102A3000CC5D0110745D0110785D011070B58EB031
:102A4000034610461C463BB36A460121FFF728FDAA
:102A5000054658B301A93F4B18680CF06CFD78B3DC
:102A60003D4DA44605F1200E2C460FCCCCF80000BD
:102A7000CCF80410CCF80820CCF80C3025460CF12A
:102A8000100C7445F0D12068CCF80000A388ACF895
:102A9000043000200EB070BD4FF03F0383F3118867
:102AA000BFF36F8FBFF34F8F01BECDE74FF03F03F2
:102AB00083F31188BFF36F8FBFF34F8F01BEC9E758
:102AC0000021284610F0BAFB07EE900A9FED237A0A
:102AD000F4EEC77AF1EE10FA19DB9FED217AF4EEED
:102AE000C77AF1EE10FA12D8069004F087FD194E5D
:102AF00001A930680CF029FD054630680DF0B8F8E2
:102B000004F042F965B9174B18682060C1E7164D0B
:102B10000FCD20606160A260E3602B882382B8E75C
:102B2000124DA44605F120062C460FCCCCF800002F
:102B3000CCF80410CCF80820CCF80C3025460CF169
:102B4000100CB442F0D12288A378ACF800208CF8A5
:102B500002309EE7442A0008945B0110CDCC4C3E25
:102B60000000C642745D0110785D0110505D0110D7
:102B700070B58EB0034610461C463BB36A46012131
:102B8000FFF78EFC054658B301A93F4B18680CF0BF
:102B9000D2FC78B33D4DA44605F1200E2C460FCC57
:102BA000CCF80000CCF80410CCF80820CCF80C309D
:102BB00025460CF1100C7445F0D12068CCF80000CB
:102BC000A388ACF8043000200EB070BD4FF03F0376
:102BD00083F31188BFF36F8FBFF34F8F01BECDE733
:102BE0004FF03F0383F31188BFF36F8FBFF34F8F15
:102BF00001BEC9E70021284610F020FB07EE900A2D
:102C00009FED237AF4EEC77AF1EE10FA19DB9FED0F
:102C1000217AF4EEC77AF1EE10FA12D8059004F09A
:102C2000EDFC194E01A930680CF08FFC05463068A8
:102C30000DF01EF804F0A8F865B9174B186820606D
:102C4000C1E7164D0FCD20606160A260E3602B8864
:102C50002382B8E7124DA44605F120062C460FCC7E
:102C6000CCF80000CCF80410CCF80820CCF80C30DC
:102C700025460CF1100CB442F0D12288A378ACF8B0
:102C800000208CF802309EE7442A0008945B011073
:102C9000CDCCCC3D0000C842745D0110785D0110C0
:102CA000505D011070B52DED028B8EB003461046BD
:102CB0001C464BB36A460121FFF7F2FB054668B399
:102CC00001A9454B18680CF036FC88B3434DA44667
:102CD00005F1200E2C460FCCCCF80000CCF80410E7
:102CE000CCF80820CCF80C3025460CF1100C7445BB
:102CF000F0D12068CCF80000A388ACF804300020A4
:102D00000EB0BDEC028B70BD4FF03F0383F3118812
:102D1000BFF36F8FBFF34F8F01BECBE74FF03F0381
:102D200083F31188BFF36F8FBFF34F8F01BEC7E7E7
:102D30000021284610F082FA08EE100ADFED287A0A
:102D4000B4EEE78AF1EE10FA23DBF1EE047AB4EE8A
:102D5000E78AF1EE10FA1CD81F4E30680CF07AFFAB
:102D600007EE100AC8EE077AFDEEE77ACDED047A99
:102D700004F044FC01A930680CF0E7FB054630681C
:102D80000CF076FF04F000F865B9164B1868206067
:102D9000B5E7154D0FCD20606160A260E3602B8820
:102DA0002382ACE7114DA44605F120062C460FCC3A
:102DB000CCF80000CCF80410CCF80820CCF80C308B
:102DC00025460CF1100CB442F0D12288A378ACF85F
:102DD00000208CF8023092E7442A0008945B01102E
:102DE000C3F5283F745D0110785D0110505D01103E
:102DF000F0B583B0034610461D468BB101AA0121F0
:102E0000FFF74EFB0446A8B1244920460FF0BFFB54
:102E1000D0B1234920460FF0BAFB50BB012614E085
:102E20004FF03F0383F31188BFF36F8FBFF34F8FD2
:102E300001BEE3E74FF03F0383F31188BFF36F8FC9
:102E4000BFF34F8F01BEDFE70126DEB113492046F5
:102E50000FF09DFB074620B1114920460FF097FB6C
:102E600048B907B100260F4B1E730F4B1868286036
:102E700010E00026E9E70D4B0D4A40F26B310D489A
:102E80000EF0B8F80C4C0FCC28606960AA60EB60BB
:102E900023882B82002003B0F0BD00BF5C5C0110D2
:102EA000645C0110043D0008745D01108C5D01102C
:102EB000AC610110CC5D0110785D0110F0B58FB0F0
:102EC000034610461D46CBB16A460121FFF7E8FADA
:102ED0000446E8B101A94B4B18680CF02CFB08BB69
:102EE000494920460FF053FB00283AD04749204675
:102EF0000FF04DFB00286ED1012633E04FF03F0369
:102F000083F31188BFF36F8FBFF34F8F01BEDBE7F1
:102F10004FF03F0383F31188BFF36F8FBFF34F8FE1
:102F200001BED7E73A4CAC4604F12005A646BEE800
:102F30000F00CCF80000CCF80410CCF80820CCF836
:102F40000C3074460CF1100CAE45EFD1DEF80000E9
:102F5000CCF80000BEF80430ACF8043000200FB00C
:102F6000F0BD0126002E43D0274920460FF00FFB6D
:102F7000074620B1254920460FF009FB68BB07B181
:102F800000268DF8316004F039FB1E4E01A930682F
:102F90000CF0DBFA044630680CF06AFE03F0F4FE35
:102FA00014B31C4EAC4606F1200534460FCCCCF8C9
:102FB0000000CCF80410CCF80820CCF80C302646E1
:102FC0000CF1100CAC42F0D12288A378ACF80020B0
:102FD0008CF80230C2E70026C4E70F4B0F4A40F2DC
:102FE0006B310F480EF006F80E4B18682860B5E7F5
:102FF0000D4C0FCC28606960AA60EB6023882B829F
:10300000ACE700BF442A00085C5C0110645C01105E
:10301000945B0110505D01108C5D0110AC610110DA
:10302000CC5D0110745D0110785D011008B53D4B59
:10303000186080B13C4C2068002302221946406889
:103040000FF058F9206800230222194680680FF01B
:1030500051F9002407E001BEECE7344800EB04100E
:10306000FFF78CF90134082CF7DD0024254607E032
:103070001B281CD00D282BD0082842D0312D4ADD2A
:103080000EF014F9002CF3D10D28F9D132220021D1
:1030900027480EF063F900221146224B18680CF005
:1030A00047FA24480FF008F801240025E8E7322207
:1030B00000211F480EF052F91F480FF099F8002226
:1030C0001E49184B18680CF033FA00242546D7E740
:1030D0000A200FF009F81A4E642231461448FFF70F
:1030E0007BF90546314617480EF0E6FF002DF2D178
:1030F000322200210E480EF031F913480EF0DCFFA9
:10310000BEE7002DBCDD013D6DB2094B20225A55B2
:103110000EF0EAFFB4E7064B585501356DB20EF0DC
:10312000E3FFADE7442A0008BC230008BC6101109E
:10313000482A0008E05D0110105E0110C93500103A
:103140007C2A0008D85B0110445E011008B50023FA
:1031500006220121502005F0E3F978B90023062268
:103160000121512005F0DCF970B90023062201216C
:10317000522005F0D5F968B9002008BD08480FF0C5
:1031800037F84FF0FF30F8E706480FF031F84FF00E
:10319000FF30F2E704480FF02BF84FF0FF30ECE778
:1031A0004C62011080620110B4620110F0B587B06A
:1031B0000023059300230493344B1B7B002B63D027
:1031C00007460E46314B1B6903F57A738B425BD879
:1031D0002E4B1B7A012B16D0022B1BD01BB12C4877
:1031E0000FF006F805E00A46284B596829480EF00A
:1031F00063FF38460CF000FD0546314626480EF0C8
:103200005BFF00241BE00A46204B596823480EF060
:1032100053FFEEE722480EF04FFFEAE70023029348
:103220000393022202A905EBC40000F09DFB0DF000
:10323000B7F902460B461B480EF03EFF01341D2C29
:10324000ECD90A200EF050FF04AA05A938460CF06C
:10325000D5FC05980DF0A4F902460B46009604999A
:1032600011480EF029FF04AA05A938460CF0DCFC31
:1032700005980DF095F902460B46009604990B4807
:103280000EF01AFF014B1E6107B0F0BD043D0008AF
:103290003C630110E86201107063011008630110C3
:1032A0002863011084630110886301109C6301107E
:1032B00000B585B0184919480CF030F9184903A831
:1032C0000CF064FD00B101BE0022164903980CF019
:1032D0002FF9002301930093039B4FF420621249BE
:1032E000124803F025FC012800D001BE4FF0FF3248
:1032F0000121002004F0AEFA039C04F087F9024695
:103300000B4920460CF040F9039C04F07FF901467C
:103310002046FFF74BFFE9E7715E0010495D0010A2
:1033200064650110C9350010B06301102D30001024
:10333000183D000808B5044B1B689869012100F589
:10334000B06007F0F5FE08BD506A020810B586B0FF
:10335000002304930393082202920193FF23009316
:103360002A2329222821364806F0F0FD002849D1D9
:10337000344C236898690022114600F5207007F04C
:1033800021FF236898690322002100F5207007F0CF
:1033900037FF236898690022022100F5207007F0AA
:1033A00011FF236898690322022100F5207007F0BD
:1033B00027FF2549224806F08BFA48BB0123062245
:1033C0001946442005F0ACF840BB052007F038F85A
:1033D000262301931D4B00934A232B2218491C4896
:1033E0000BF004FF00BB002301931A4B009306234C
:1033F0004B224FF4006116480BF04EFFD0B900206D
:1034000006B010BD14480EF0F3FE4FF0FF30F7E7A2
:1034100012480EF0EDFE4FF0FF30F1E710480EF0CD
:10342000E7FE4FF0FF30EBE70E480EF0E1FE4FF005
:10343000FF30E5E70C480EF0DBFE4FF0FF30DFE732
:10344000205D0008506A020840787D0198650110EF
:10345000E03C000895350010BC630110DC630110EE
:10346000046401102C6401105464011000B583B091
:103470003D4B0093002301224FF47A713B4804F046
:1034800021FC3B4A106050B3394B1C6804F0BEF875
:103490000246002300930121204604F02FFC01285E
:1034A00000D001BE334B01930523009300234FF45A
:1034B00000723149314803F03BFB012800D001BEC6
:1034C000FFF744FF00B101BEFFF740FE00B101BEAF
:1034D00001212B480BF018FE98B301BE31E001BE6C
:1034E000D2E733F8020B07EE900AF8EE677A9FED09
:1034F000257A67EE877AE2EC017A0131B1F5006F47
:10350000EFDB80222049002000F04CFE08E01E483E
:10351000802302461D4901EB442100F055F9013496
:103520000F2CF4DD1848802302464FF0765100F04E
:10353000EDF90021009102230A460E48006804F0CC
:10354000DDF94FF0FF320121002004F083F94FF440
:1035500000620F490A480BF021FD04460028F0D113
:1035600001460A4A0A4BC9E7353300108864011046
:10357000905D00081C5D000890640110B1320010DD
:10358000E03C000800008039E02A0008183D0008EF
:10359000E02C000800B583B00021019101AA094B7D
:1035A000186804F051FA019B4BB14FF0E0234FF043
:1035B0008052C3F8042DBFF34F8FBFF36F8F03B05A
:1035C0005DF804FB185D000838B50C462A4B1B7BE0
:1035D000FBB90B7A012B22D0022B37D01BB1274825
:1035E0000EF006FE15E0264D2B6898690122002199
:1035F00000F5A06007F086FD2B6898690022012184
:1036000000F5A06007F07EFD226861681D480EF09D
:1036100053FD194B94E8070083E8070038BD184DA7
:103620002B6898690122002100F5A06007F06AFD6F
:103630002B6898690022012100F5A06007F062FD67
:103640002268616810480EF037FDE2E709680F480C
:103650000EF032FD0A4D2B6898690022114600F5E4
:10366000A06007F04FFD2B6898690122114600F514
:10367000A06007F047FDCCE7043D00083C63011063
:10368000506A0208E8620110086301102863011003
:1036900000B583B001F03CFF00B101BE62B64FF44B
:1036A000E1330093FF231A462C212D200BF092FAD0
:1036B000012306221946592004F032FF0E480EF06D
:1036C000FBFC0E480EF094FD0D480EF091FD0D4BE5
:1036D00001930623009300234FF400720A490B481C
:1036E00003F026FA012800D001BE03F055FA01BE0E
:1036F000002003B05DF804FBA0640110AC6401106D
:1037000018650110185D0008586501106D3400102F
:1037100070477047FFF7FCFF72B6144C144DAC4273
:1037200009DA21686268A368043BA2BFC858D05078
:10373000FAE70C34F3E70F490F4A00209142BCBF6F
:1037400041F8040BFAE70D480D490860BFF34F8FAD
:1037500001F0BCFE01F0A0FE02F02CF80DF0B8FD67
:10376000FFF796FF0DF040FDFEE70000C88F011047
:10377000E08F0110202A0008C46B02080020000816
:1037800008ED00E0FEE7FEE700B5042071460842C0
:1037900002D0EFF3098002E0EFF3088004300AF072
:1037A00077FAFEE7000000000230800803D0013005
:1037B0000238FCD100BF00BF7047EFF3108072B633
:1037C000704780F31088704710B49C0823E0D0ED58
:1037D000007A91ED007A77EE877AC2ED007AD0ED2B
:1037E000017A91ED017A77EE877AC2ED017AD0ED18
:1037F000027A91ED027A77EE877AC2ED027AD0ED05
:10380000037A91ED037A77EE877AC2ED037A013C71
:10381000103210311030002CD9D103F0030308E02E
:10382000F0EC017AB1EC017A77EE877AE2EC017A7A
:10383000013B002BF4D15DF8044B704710B49C0899
:1038400023E0D0ED007A91ED007A67EE877AC2ED41
:10385000007AD0ED017A91ED017A67EE877AC2EDB8
:10386000017AD0ED027A91ED027A67EE877AC2EDA5
:10387000027AD0ED037A91ED037A67EE877AC2ED92
:10388000037A013C103210311030002CD9D103F0F2
:10389000030308E0F0EC017AB1EC017A67EE877A75
:1038A000E2EC017A013B002BF4D15DF8044B704748
:1038B00007EE901A99081AE090ED007A37EE277A11
:1038C00082ED007A90ED017A37EE277A82ED017A67
:1038D00090ED027A37EE277A82ED027A90ED037A44
:1038E00037EE277A82ED037A013910321030002941
:1038F000E2D103F0030306E0B0EC017A37EE277A59
:10390000A2EC017A013B002BF6D1704707EE901A2A
:1039100099081AE0D0ED005A65EEA75A90ED016AB9
:1039200026EE276AD0ED026A66EEA76A90ED037A6A
:1039300027EE277AC2ED005A82ED016AC2ED026AD3
:1039400082ED037A0139103210300029E2D103F000
:10395000030306E0B0EC017A27EE277AA2EC017AA5
:10396000013B002BF6D170479FED0E7A0AE0F0EC98
:10397000017AF1EC016A77EEE67A67EEA77A37EE24
:10398000277A013A002AF2D1B5EEC07AF1EE10FAA8
:1039900005DB08B517EE100A0CF0C2FB08BD0020CD
:1039A000704700BF0000000007EE900A9FED237AE9
:1039B00067EE877AB5EE007A77EE877ABDEEE77A22
:1039C000F5EEC07AF1EE10FA31D4B8EEC77A77EEA0
:1039D000C77A9FED1B7A67EE877ABCEEE77A17EE1F
:1039E000103A9BB2B3F5007F04D39FED157A77EEC2
:1039F000C77A002307EE103AB8EE477A77EEC77A17
:103A0000104A02EB830191ED006A013302EB83035C
:103A1000D3ED006AB7EE007A37EE677A27EE067AC2
:103A200067EEA67A77EE277A17EE900A704717EEC0
:103A3000103A013B07EE103AC7E700BF83F9223E78
:103A400000000044406801102DE9F04F83B00746A4
:103A50000C469046866842680092B0F80290027860
:103A6000B3FBF2F3019309F18040013806EB8000CB
:103A70004FEA930BB646BA465F46CB469DE091EDC2
:103A8000007A92ED004A95ED005A9CED006AD3ED64
:103A9000003A27EE044A74EE244A27EE055A75EEE2
:103AA000255A27EE066A76EE266A27EE237A77EE07
:103AB000277A91ED016A92ED014A95ED015A9CED4C
:103AC000017AD3ED013A26EE044A74EE244A26EE3A
:103AD000055A75EE255A26EE077A77EE266A26EE07
:103AE000236A76EE277A91ED026A92ED024A95ED0D
:103AF000025A9CED027AD3ED023A26EE044A34EEE5
:103B0000244A26EE055A35EE255A26EE077A37EE78
:103B1000267A26EE236A36EE276AD1ED037AD2EDB5
:103B2000034AD5ED035ADCED036AD3ED033A67EEA1
:103B3000A44A74EE844A67EEA55A75EE855A67EE7C
:103B4000A66A76EE876A67EEA37A77EE867A013EFA
:103B500010330CF1100C103510311032002E8ED1B4
:103B60000BF003061AE0B1EC017AB2EC014AB5ECB5
:103B7000015ABCEC016AF3EC013A27EE044A74EEF8
:103B8000844A27EE055A75EE855A27EE066A76EEC8
:103B9000866A27EE237A77EE877A013E002EE2D1FD
:103BA0000EEB091EC8ED004AC8ED015AC8ED026AC5
:103BB000C8ED037A013F08F1100807B39AF8002016
:103BC000920001460430236804340B60013AF8D1B6
:103BD0009AF800900EEB89050EEBC90C09EB49032E
:103BE0000EEB83034FEA9B0600997246DFED3B7AAA
:103BF000F0EE676AF0EE675AF0EE674AAEE7D94634
:103C000076465746019B03F0030138E092ED007AB7
:103C1000D3ED006A27EE267A77EE277A92ED017AC5
:103C2000D3ED016A27EE267A37EE277AD2ED027AB3
:103C3000D3ED026A67EEA67A37EE877AD2ED037A81
:103C4000D3ED036A67EEA67A77EE877A013D1032EC
:103C50001033002DDAD109F0030508E0B2EC017A47
:103C6000F3EC016A27EE267A77EE877A013D002D84
:103C7000F4D13B7806EB8306E8EC017A013971B1A7
:103C80003A7805460430236804342B60013AF8D1B1
:103C90004FEA9905009A3346DFED107AD9E7BB6801
:103CA00009F1FF3291080AE03068186070685860C6
:103CB000B0689860F068D860013910331036002978
:103CC000F2D102F0030204E056F8041B43F8041B8F
:103CD000013A002AF8D103B0BDE8F08F00000000DF
:103CE00070B504461546049E059AB2FBF5F005FB37
:103CF000102060B961806360114401398A0000219D
:103D000030460DF02BFBA6602570002070BD6FF0D3
:103D10000100FBE72DE9F0432DED028B86461446AA
:103D20004068DEF80860BEF8005005F1804C0CF1E8
:103D3000FF3C00EB8C0CDF0873E19CED007A91ED09
:103D4000006A65EE878A78EEA68A65EE076A36EE27
:103D5000888A64EE876A36EE800A64EE076A76EE39
:103D6000A00A63EE876A36EE811A63EE076A76EE82
:103D7000A11A62EE876A36EE822A27EE067A77EE7D
:103D8000277ADCED016AD1ED015A25EE265A75EE4F
:103D9000288A24EEA67A37EE088A24EE267A37EEB1
:103DA000000A23EEA67A77EE200A23EE267A37EE73
:103DB000011A22EEA67A77EE211A26EE267A37EE3F
:103DC000022A26EEA57A37EE277ADCED026A91ED1B
:103DD000025A64EEA64A74EEA88A64EE267A37EE9A
:103DE000888A63EEA67A37EE800A63EE267A77EE4B
:103DF000A00A62EEA67A37EE811A66EE267A77EE90
:103E0000A11A65EEA67A37EE822A66EE856A36EE4C
:103E1000877ADCED037AD1ED034A64EE276A76EE09
:103E2000A86A23EEA74A34EE088A23EE274A34EE26
:103E3000000A22EEA74A74EE200A26EE274A34EE44
:103E4000011A25EEA74A74EE211A25EE274A34EE10
:103E5000022A67EEA47A77EE877A9CED047A91EDD8
:103E6000044A63EE873A73EEA66A63EE073A33EECE
:103E7000888A62EE873A33EE800A66EE073A73EE7E
:103E8000A00A65EE873A33EE811A65EE073A73EEC3
:103E9000A11A64EE873A33EE822A27EE047A37EECF
:103EA000277ADCED057AD1ED053A23EE273A73EE59
:103EB000266A22EEA73A33EE088A26EE273A33EE38
:103EC000000A25EEA73A73EE200A25EE273A33EED4
:103ED000011A24EEA73A73EE211A24EE273A33EEA4
:103EE000022A67EEA37A37EE877ADCED067A91ED47
:103EF000063A62EEA72A72EEA66A66EE272A32EE2C
:103F0000888A65EEA72A32EE800A65EE272A72EECD
:103F1000A00A64EEA72A32EE811A64EE272A72EE16
:103F2000A11A63EEA72A32EE822A67EE837A77EE31
:103F3000877A9CED077AD1ED072A26EE076A76EE9E
:103F4000266A25EE876A36EE088A25EE076A36EE7F
:103F5000000A24EE876A76EE200A24EE076A36EE1F
:103F6000011A23EE876A76EE211A23EE076A36EEEF
:103F7000022A27EE227A77EE277A013A0CF1200CFA
:103F80002031002A7FF4D9AE05F0070232E0BCEC04
:103F9000016AB1EC017A65EE865A76EEA56A65EEA5
:103FA000065A38EE258A64EE865A30EE250A64EE0B
:103FB000065A70EEA50A63EE865A31EE251A63EEB4
:103FC000065A71EEA51A62EE865A32EE252A26EEC0
:103FD000076A77EE867A013AF0EE455AB0EE645AF7
:103FE000F0EE444AB0EE634AF0EE433AB0EE623A85
:103FF000F0EE472A002ACAD12030C4ED006A84EDD1
:10400000018A84ED020AC4ED030A84ED041AC4EDAA
:10401000051A84ED062AC4ED077A013FCC46203408
:104020004146002F3ED00A68CCF800204A68CCF800
:1040300004208A68CCF80820CA68CCF80C200A69E9
:10404000CCF810204A69CCF814208A69CCF81820E2
:1040500001F120080CF12009CA69CCF81C20D0ED30
:10406000005A90ED015AD0ED024A90ED034AD0ED8E
:10407000043A90ED053A00F11C01D0ED062AEA0859
:10408000B446DFED287AB0EE672AF0EE671AB0EE9C
:10409000671AF0EE670AB0EE670AB0EE678AF0EED4
:1040A000676A6EE703F007070FE0F3EC017AF1ECC3
:1040B000016A67EEA67A37EE277A013A002AF4D130
:1040C000A4EC017A0430013F414657B1884658F8C4
:1040D000043B4CF8043B2A46314603469FED117AD7
:1040E000ECE7DEF804306A1E91080AE004681C6000
:1040F00044685C6084689C60C468DC60013910338B
:1041000010300029F2D102F0030204E050F8041B41
:1041100043F8041B013A002AF8D1BDEC028BBDE83C
:10412000F08300BF0000000038B504461D46018042
:104130008260049A11444A1E9200002118460DF034
:104140000DF9656038BD00008B08DFED157A11E0D0
:1041500090ED007A77EE877A90ED017A77EE877AA4
:1041600090ED027A77EE877A90ED037A77EE877A90
:10417000013B1030002BEBD101F0030304E0B0EC65
:10418000017A77EE877A013B002BF8D107EE101AFF
:10419000B8EE477AC7EE876AC2ED006A704700BF83
:1041A00000000000930805E0086048608860C8606F
:1041B000013B1031002BF7D102F0030202E041F87D
:1041C000040B013A002AFAD1704730B54FF0000EC7
:1041D0001DE032F81EC04FEA9C0C0EF1010332F8CC
:1041E00013309B0850F82C4050F8235040F82C50C6
:1041F00040F823400CF1010C50F82C40013350F8EA
:10420000235040F82C5040F823400EF1020E714527
:10421000DFD830BD2DE9F0412DED028B90B0064680
:104220000846358801EB850774684FEA550801EBAD
:10423000880E07EB880CED083A460B46CFE093ED6D
:10424000005A8DED0C5A93ED016A8DED0D6A93EDD8
:10425000021A8DED0E1A93ED037A8DED0F7A92ED21
:10426000000A8DED080AD2ED010ACDED090A92EDA2
:10427000023A8DED0A3AD2ED031ACDED0B1A9EEDFE
:10428000002A8DED042ADEED012ACDED052A9EEDF2
:10429000024A8DED064ADEED034ACDED074ADCED1C
:1042A000005ACDED005ADCED016ACDED016ADCED7E
:1042B000023ACDED023ADCED037ACDED037A35EE2C
:1042C000008A83ED008A36EE208A83ED018A31EE82
:1042D000038A83ED028A37EE218A83ED038A35EE65
:1042E000405A8DED085A36EE606A8DED096A31EE5E
:1042F000433A8DED0A3A37EE617A8DED0B7A72EE24
:10430000251ACEED001A72EEA61ACEED011A74EE41
:10431000231ACEED021A74EEA71ACEED031A75EE2B
:10432000C25ACDED005A76EEE26ACDED016A73EE27
:10433000C42ACDED022A77EEE47ACDED037AD4EDEE
:10434000004A94ED014A65EE243A26EE042A26EE50
:10435000246A25EE045A73EE823AC2ED003A36EE34
:10436000456A82ED016A25EE846A26EEA45A66EE5D
:10437000846A65EEA45A36EE456A8CED006A76EEE4
:10438000A56ACCED016A94ED026AD4ED035A23EEDE
:10439000065A67EE254A27EE067A63EE256A35EE61
:1043A000245A82ED025A37EE667A82ED037A62EE83
:1043B000A56A27EE865A67EEA57A22EE867A76EE11
:1043C000C56ACCED026A77EE877ACCED037A013DBF
:1043D000103410320CF1100C0EF1100E1033002DB1
:1043E0007FF42DAF1FFA88F802237268414600F06F
:1043F000F7FA022372684146384600F0F1FA10B02D
:10440000BDEC028BBDE8F0812DE9F04F2DED048B62
:1044100095B0054606900C46079103885B0801EBB2
:104420008302039201EBC3010E46049101EB83006A
:104430000590171FA0F1040C0CEB83016D685B085D
:104440000293234694ED007A3446A6F10408D6ED93
:10445000007A37EE272A37EE677AD3ED017AD6ED68
:10446000016A77EEA62A77EEE67A92ED013A73EECC
:10447000073AD0ED016A73EEE63ACDED103AD2ED8F
:10448000005A37EEE54A90ED006A34EE064A8DEDAB
:10449000114A72EE654A74EEC64ACDED0C4A32EE10
:1044A000C35A35EE665A8DED0D5A37EE437A36EE25
:1044B000877A8DED087A75EEA77A77EEC67ACDED1C
:1044C000097A75EE825A36EE256A9E461E460836F1
:1044D00083ED006AD2ED016A76EEA26A034690EDA2
:1044E000016A76EE866ACEED016A10460832C0EDAA
:1044F000003A80ED014A20460830C4ED004A84EDC0
:10450000015A1C46083384ED007AC4ED017A05F1A6
:10451000080A05F1100405F1180E029DA5F1020B21
:104520004FEA5B0B22E1D6ED006AD0ED007A76EE21
:10453000A73A76EEE76A96ED017AD0ED017A37EE8A
:10454000274A37EE677AD2ED017A37EEA62A93ED45
:10455000013A32EE432A8DED102AD2ED004A77EE71
:10456000645A93ED006A75EE865ACDED115A73EEDA
:10457000E42A72EEC62ACDED0C2A34EE675A35EEE7
:10458000435A8DED0D5A76EEE76A33EE263A8DEDFD
:10459000083A34EE877A77EE467ACDED097A74EEF2
:1045A000A34A36EE246A3546083586ED006A019541
:1045B00092ED017A37EE047AD3ED016A37EE267A6E
:1045C00086ED017A57ED016A1CED017A76EE878A55
:1045D00076EEC76A97ED007A9CED000A77EE001A36
:1045E00037EE400AD8ED000A91ED001A30EEC19A7C
:1045F00039EE264A8DED124A18ED018A70EE483ADE
:1046000011ED017A73EE873ACDED133A78EEC84A90
:1046100074EEC74ACDED0E4A31EEE06A36EE416ADD
:104620008DED0F6A79EE666ACDED0A6A37EE487A4B
:1046300037EE407A8DED0B7A70EEA10A31EE201A3A
:10464000A7F1080587ED001A58ED011A71EEA81AB6
:1046500011ED011A71EE811A47ED011A0AF10809EC
:10466000DAED001A9AED011A62EE210A25EE810AAE
:1046700065EEA15A22EE012A70EE800A02F1080AC4
:10468000C2ED000A75EEC25AC2ED015A63EE815ABC
:1046900024EE212A24EE014A63EEA13A75EEC25AB5
:1046A000A8F10806C8ED005A34EE234A08ED014A85
:1046B00094ED004AD4ED015A103462EE843A25EEAE
:1046C000252A25EE045A62EEA52A73EE823A0246A6
:1046D0000832C0ED003A35EE625A80ED015A26EEFE
:1046E000445A64EEA53A64EE844A26EE256A75EED5
:1046F000635AACF10807CCED005A36EE646A0CED53
:10470000016A9EED006ADEED015A0EF1180E23EEED
:10471000065A67EEA54A67EE867A23EE253A35EE0D
:10472000245A1846083083ED005A77EEC37AC3ED59
:10473000017A67EE257A26EE865A66EEA56A27EE9E
:10474000067A77EEC57AA1F1080CC1ED007A36EE53
:10475000877A01ED017A0BF1FF3B03461046524682
:10476000CA466146BC46B0462F46019EBBF1000FCB
:104770007FF4D9AE96ED004AD0ED004A34EE242AFB
:1047800034EE644A96ED015AD0ED017A75EE272A8F
:1047900035EE675AD2ED017A77EE845AD3ED014AAD
:1047A00075EEE45ACDED105A92ED003A75EE436A7B
:1047B000D3ED003A76EEA36ACDED116A32EE436A8C
:1047C00036EE636A8DED0C6A32EEE77A37EE647A84
:1047D0008DED0D7A34EE674A74EE844ACDED084AC9
:1047E00033EE055A75EE637ACDED097A33EE023A6F
:1047F00073EE833AC6ED003A92ED015A35EE225A35
:1048000093ED014A35EE045A86ED015ADAED003A8D
:104810009AED014A25EEA35A26EE843A66EEA36A83
:1048200065EE845A35EE035A82ED005A76EEE56A5B
:10483000C2ED016A94ED005AD4ED015A66EE056AA4
:1048400027EE254A27EE057A26EE256A76EE846A5B
:10485000C0ED006A37EE467A80ED017A9EED006A7F
:10486000DEED016A24EE867A67EEA65A67EE867A56
:1048700064EEA64A37EE257A83ED007A77EEE47A85
:10488000C3ED017ABDF808400423069D6A682146FD
:10489000079800F0A5F804236A682146039800F001
:1048A0009FF804236A682146049800F099F80423CD
:1048B0006A682146059800F093F815B0BDEC048BAA
:1048C000BDE8F08F2DE9F04106460C4617469846A4
:1048D0000588012A0FD0B5F5807F21D025D8402D3D
:1048E0002AD019D9802D34D0B8F1000F36D1012F3C
:1048F0003AD0BDE8F08101F1040C002109E0DCEDC3
:10490000007AF1EE677A63460CF1080CC3ED007A89
:104910000131A942F3D3DEE7102D1AD0202DE3D1C7
:1049200021463046FFF770FDDEE7B5F5006FF7D0A2
:1049300009D9B5F5805FD7D1012372682946204691
:1049400000F04EF8D0E7B5F5007FF5D0B5F5806FF3
:10495000CAD121463046FFF75DFCC5E7B268B18990
:104960002046FFF732FCC2E707EE905AF8EE677A6E
:10497000F7EE006A86EEA77A00230DE0D4ED007A08
:1049800067EE877AC4ED007AD4ED017A67EEC77AD4
:10499000C4ED017A08340133AB42EFD3A9E700003C
:1049A00001800023436040290AD0802911D10A4B9D
:1049B0009A8982819A6882605B68436000207047B0
:1049C000064B9A8982819A6882605B684360002006
:1049D00070474FF0FF307047447801105478011051
:1049E0002DE9F04F2DED0E8B8DB081460791089289
:1049F0000B930691069B4FEAD30A4FF0000E0EEB85
:104A00000A010EEB4A030AEB030503EB4A020AEB29
:104A1000020602EB4A070AEB070B4FEACE0809EB46
:104A2000CE0090ED007A4FEAC20C09EBC202D2ED43
:104A3000007A77EE276A37EE677ACC00019409EBAB
:104A4000C1010291D1ED005AF10009EBC6060396AF
:104A5000D6ED007A35EEA76A75EEE75ADE0009EB6F
:104A6000C30393ED005AFC00049409EBC707D7ED8C
:104A7000007A75EE274A75EE677AEC00059409EB2B
:104A8000C5050995D5ED003A4FEACB040A9409EB28
:104A9000CB0B9BED004A33EE845A73EEC43A76EEAC
:104AA000E40A76EEA46A36EE451A36EE056A36EE6C
:104AB000865A80ED005A76EEC66AC2ED006A08F1A9
:104AC0000408C84498ED006A0CF1040CCC44DCEDF9
:104AD000006A36EE265A76EE664A019C04344C444F
:104AE00094ED006A04314944D1ED006A36EE263A6D
:104AF00036EE666A04364E4496ED004A049A151D59
:104B00004D44D5ED006A34EE262A34EE664A059A05
:104B100004324A44D2ED006A0A9804304844D0ED89
:104B2000002A76EEA21A76EEE26A75EE422A35EE99
:104B3000025A33EE612A33EE213A75EE031AC8EDBC
:104B4000001A35EE435A8CED005A30EE825A83ED4E
:104B5000005A30EEC23A87ED003A32EEC15A86ED85
:104B6000005A31EE225A85ED005A35EEE35ADFED58
:104B7000F12A25EE225A75EEA35A65EEA25A36EEB8
:104B8000663A23EE223A76EE266A66EEA26A77EE5F
:104B9000453A37EE057A37EEE55A77EEA57A74EEA8
:104BA000C35A34EE836A74EE664A74EE266A37EEB0
:104BB000264A029B83ED004A37EE667A8BED007A37
:104BC00033EEA47A039E86ED007A73EEE43A099DF3
:104BD000C5ED003A36EE677A84ED007A77EE867A94
:104BE000C0ED007A75EEC57AC1ED007A35EE255A32
:104BF00082ED005A069B9E44079B73453FF6FFAE2D
:104C0000BAF1070F40F2BA8101230A9300230993F6
:104C1000D046099C0B9B1C4404EB440204EB840328
:104C2000E71803EB4406E500089800EBC401D1ED5A
:104C3000008A21462401099100EB011191ED008ABF
:104C40004FEAC20C00EBC20292ED000A0998410142
:104C5000089A02EB4012D2ED000ADA00089800EB45
:104C6000C30393ED001AFB0000EBC707D7ED001A52
:104C7000F70000EBC60696ED002A0435064605440B
:104C8000D5ED002A0434044494ED003A0CF10400FC
:104C90003044D0ED003A0431314491ED004A043201
:104CA0003244D2ED004A0433334493ED005A0437C2
:104CB0003744D7ED005A0A9B9A460AEB08000AEBE4
:104CC000480308EB030403EB480208EB020602EB7F
:104CD000480108EB010B4FEACA0E09EBCA0595ED36
:104CE000009A4FEAC20C09EBC202D2ED007A79EECB
:104CF000276A39EE67AAC700019709EBC000029046
:104D000090ED006AF00009EBC6060396D6ED007A36
:104D100036EE277A36EE67CADF0009EBC30393ED60
:104D2000006ACE0009EBC1010491D1ED007A76EE64
:104D3000279A76EE677AE10009EBC4040594D4ED76
:104D400000AA4FEACB0409EBCB0B9BED006A3AEECD
:104D5000869A3AEEC66A36EEE9DA76EEA96A37EE58
:104D600049EA37EE097A36EE879A85ED009A76EEB3
:104D7000C7EA0EF1040ECE449EED00BA0CF1040C0D
:104D8000CC44DCED006A3BEE267A3BEE66BA019D30
:104D900004354D44D5ED00BA04304844D0ED006AE6
:104DA0007BEEA6CA7BEEE6BA04374F44D7ED00AAE5
:104DB00004364E44D6ED006A7AEEA69A7AEEE6AA5A
:104DC0000431494491ED009A04344C44D4ED006A16
:104DD00079EE26DA79EE666A37EE699A37EE297A45
:104DE0007CEEED9A7CEEADCA7DEE29DA3DEE69DA15
:104DF00077EE2C9ACEED009A37EE6C7A79EE4E9AD9
:104E00003EEE099A60EEAECA24EE07EA20EE877AFB
:104E100064EE2EEA7CEE8ECAC2ED00CA37EE6E7AE0
:104E20008CED007A28EE2D7A63EE29CA68EE299A75
:104E300063EE2DDA37EE2C7A83ED007A79EEED9A77
:104E4000C7ED009A21EE8D7A65EE099A21EE899AD6
:104E500025EE0DDA37EE297A049A82ED007A39EEE2
:104E60004D9A86ED009A3CEE469A9FED327A29EEF5
:104E7000079A3CEE066A26EE076A3BEEE6CA2CEE7F
:104E800007CA7BEEA66A66EE876A7AEE499A3AEE20
:104E9000099A77EEC6BA77EE867A7BEE4CCA3BEE7D
:104EA0000C6A3AEEE6AA7AEEA66A39EE26BA39EE2E
:104EB000667A79EE8AAA79EECA9A76EE676A77EE12
:104EC000867A3CEEEBAA3BEEAC9A28EE8B6A62EE59
:104ED000A6BA68EEA66A22EE8BBA36EE2B6A029B61
:104EE00083ED006A76EECB6AC5ED006A62EE076A72
:104EF00025EEA7BA62EE277A25EE876A36EE8B7A20
:104F00008BED007A77EEC67AC4ED007A61EE2A7AEC
:104F100024EE8A6A21EE0A7A64EEAA6A77EE867A2D
:104F2000039EC6ED007A37EE667A80ED007A60EE79
:104F3000296A01E0F304353F23EE896A60EE097ABD
:104F400023EEA97A76EE866A059CC4ED006A77EEB8
:104F5000C77AC1ED007A069B9A44079B53453FF6FA
:104F6000ACAE0A9B01330A9398453FF652AE0B9BB9
:104F7000DB009BB20B93CDF818803BE50DB0BDEC88
:104F80000E8BBDE8F08F00BF00B54369B0F800C0DC
:104F90000CF1FF3CD1ED007A91ED017A03F10800AC
:104FA00077EEA77A37EE077A77EE876AB6EE006A71
:104FB00066EE866A13460833C2ED006A77EEC77A5A
:104FC00067EE867AC2ED017A01EBCC0E08319EEDD8
:104FD000015A7246AEF1080E92ED007AD1ED004A08
:104FE000D1ED017AD0ED006AD0ED015A083037EEEC
:104FF000646A35EE274A66EE863A25EE866A66EEE4
:10500000846A65EE845A37EE247A37EE237A37EED7
:10501000257AF6EE005A27EE257A83ED007A77EEB0
:10502000C57A77EE867A77EEE67A1A46083367EE27
:10503000A57AC2ED017A08310CF1FF3CBCF1000FFA
:10504000C5DC5DF804FB10B5436900880138D1ED7B
:10505000007A91ED016A03F1080E37EE867AF6EEDA
:10506000006A27EE267A02F1080C82ED007A77EECC
:10507000C67A67EEA67AC2ED017A01EBC004083168
:1050800037E094ED015A2346083C93ED007AD1EDC8
:10509000005AD1ED017A72460832DEED006A9EEDCB
:1050A000016A35EEC74A75EE274A26EE843A66EE67
:1050B000243A26EE046A66EEA46A37EE257A37EEC5
:1050C000437A37EE637AF6EE005A27EE257A634686
:1050D00008338CED007A77EEC57A77EE867A77EE34
:1050E000E67A67EEA57ACCED017A0831013896466A
:1050F0009C460028C5DC10BDF8B504460D46164692
:105100001F4643B1FFF79FFF01233A463146204631
:10511000FFF7D8FBF8BD01233A46FFF7D3FB324631
:1051200029462046FFF730FFF4E7000050B110B5E4
:1051300004464021FFF734FC18B980232382034B37
:10514000636110BD4FF0FF30704700BF447601101F
:10515000802903D108B5FFF7E9FF08BD4FF0FF3004
:10516000704708B500F03EF800F002F808BD0000F6
:1051700010B5124C124A0021204606F0A5F811483D
:1051800003F03CFC104A0121204606F09DF80F4830
:1051900003F034FC04F540740D4A0621204606F065
:1051A00093F80C4803F02AFC0B4A0721204606F02E
:1051B0008BF80A4803F022FC10BD00BF000031400C
:1051C000D4780110087901100C7901104079011090
:1051D0009C780110D0780110647801109878011043
:1051E000FEE7000030B583B09621002008F0A2FD54
:1051F00008F032FDC0B97A4BD3F8004F04F03F04F9
:1052000008F01AFD30B1012008F00CFD754B9B6CC5
:10521000002B24DB724BC3F8004F07F035FF07F07B
:1052200029FF012007F044FF012009F0D9FA09F015
:105230007FFA09F059FB09F043FB0021084607F00B
:10524000B5FE002007F020FE012007F005FE00203B
:1052500007F0C0FD644B1B6893F83F4006E0062052
:10526000FFF7BEFF204608F047F9013C002CF9D1BA
:105270000021012007F050FF002007F085FE0028E4
:1052800000F0928007F0FCFF0021084607F044FF81
:105290000021084607F058FE544D00240094234690
:1052A00022462146284605F0CBFE0094234622469E
:1052B0000121284605F0C4FE012007F0CBFE4C4832
:1052C00007F0AEFE00287BD1012007F0ADFD0020E5
:1052D00007F0DAFD002007F0BFFD002007F07AFD9F
:1052E0000021012007F018FF0021084607F014FFF5
:1052F0000021022007F010FF0021032007F00CFF1F
:105300000021042007F008FF0021052007F004FF1A
:10531000384807F0CFFF002855D1374808F07AF811
:10532000002853D10021084607F00EFE0021084650
:1053300007F03CFE3149012008F004F9002848D16B
:1053400042F21071012008F08BF9002844D10021AD
:10535000022007F0F9FD0021022007F027FE0220BD
:1053600007F0ACFD002007F04FFD07F083FE0120A1
:1053700007F09EFE6421002008F0DCFC00F052F8EB
:105380001F4803F03BFB1F4803F038FB1E4803F0A7
:1053900035FB1E4803F032FB1D4803F02FFB1D4870
:1053A00003F02CFB03B030BD07F0E4FE40F2111314
:1053B00098427FF467AF0121002007F0C5FD61E747
:1053C0000520FFF70DFF0420FFF70AFF0420FFF779
:1053D00007FF0320FFF704FF0320FFF701FF00BFD3
:1053E00000F0274000002740506A020800003140CA
:1053F00040420F0044790110400D03007079011004
:10540000587901105C7901106079011064790110FC
:10541000687901106C79011008B5012006F094F943
:1054200008BD704710B5002008F024FB00B910BD7E
:105430000446114B186007F01DFD0130B4FBF0F07D
:105440000E4B186007F02EFD0130B4FBF0F40C4B4E
:105450001C60013C0B4BA3FB04239B0C01330A4A49
:1054600013700A4BA3FB04239B090133084A136002
:10547000DB03084A1360DAE7F0220008F422000890
:10548000EC22000883DE1B4300230008D34D62108A
:10549000FC220008F822000808B5094805F002FDC2
:1054A000FFF7BFFFFFF7BEFF00221146032006F003
:1054B000A1F9044806F002F8034806F057F808BDC1
:1054C000C8850110945D00087879011008B5FEF7D1
:1054D00074F9074AD2F8883043F47003C2F8883070
:1054E000BFF34F8FBFF36F8FFEF76BF908BD00BF9F
:1054F00000ED00E008B5044808F09EFD08B100206A
:1055000008BD0248FCE700BF0423000800000206B3
:1055100010B503F071FA044628B144B1FFF721FE3B
:105520005CB1204610BD04F0CFFE0446F5E740F61E
:10553000E441002004F07AFFF0E7FFF7DBFF0446C8
:10554000EFE7B0F1FF3F22D008B338B5C50E4301F5
:105550001B1A65F10005AD0045EA93759B0018180C
:1055600045F10005ED0045EA5075C4004FF47A722C
:105570000023204629460BF093FB6FF47A73A34275
:1055800040F2E733AB4101D26FF0010038BD704704
:10559000034B0360034B0B6080231360704700BF15
:1055A00034630008345F0008034B0360034B0B6057
:1055B00080231360704700BF046400083461000852
:1055C00030B583B00546002301931C4B1B68C3B163
:1055D0001A4B1B689BB1FEF7F0F8044601F0AAFED7
:1055E00050B14FF47A7005FB00F01549A1FB003172
:1055F0008D09B0F57A7F0ED22046FEF7E2F803B0AF
:1056000030BD104803F0C6FC18B90C4B0D4A1A60A7
:10561000DEE701BEDCE7012301AA2946074800684E
:1056200004F09AFE0028E7D1019BAB4200D901BEED
:105630000198FFF786FF01F00BFBDDE71C5F000818
:10564000D34D6210205F000880B110B5044601718F
:1056500031B1042001F039F8206028B1002010BDDC
:10566000012001F032F8F7E70148F8E701487047F8
:1056700001000E0605000E0698B110B50446084656
:10568000FFF75FFF014623792BB1206801F029F96C
:1056900028B1002010BD206801F052F8F8E7024858
:1056A000F8E70248704700BF00000E0605000E062E
:1056B00088B108B503792BB1006801F020F840B13A
:1056C000002008BD00231A461946006800F02CFF90
:1056D000F5E70248F5E70248704700BF02000E06F2
:1056E00005000E0608B5FFF72CFF01F0C9FB0020EE
:1056F00008BDEFF3058303B100BE704708B5074B43
:105700001B7813B1054B187808BD01F03DFE013838
:1057100018BF0120014B1870F4E700BF2466000891
:1057200010B5FFF7E6FF00F04DF90024032C0BDC69
:10573000104B53F8243013B1013424B2F6E70D4B6B
:10574000012143F8241001E04FF0FF3400F05CF930
:10575000002C0BDB04EB8401074B03EB011104204D
:1057600000F0BEFF034B43F8240010BD00BE002034
:10577000FBE700BFD4640008E464000810B50446E9
:10578000FFF7B7FFFFF7BAFF30B142F210712046C2
:1057900001F0A7F80128F8D110BD10B50446FFF7B5
:1057A000A8FFFFF7ABFF00B910BD204600F0A7FF30
:1057B000FAE7000008B5FFF7B3FF074B1860FFF7E3
:1057C000AFFF064B1860FFF7ABFF054B1860FFF704
:1057D000A7FF044B186008BD306600082C6600085F
:1057E000286600083466000808B50346084A1068B1
:1057F000084A121A9A4203DB0344054A136008BDA3
:105800000BF016FC0C2303604FF0FF30F7E700BFEE
:105810002023000800E80F0808B5024B1868FFF7BE
:10582000ADFF08BD3066000808B5024B1868FFF7E9
:10583000B4FF08BD3066000800F1080343604FF074
:10584000FF328260C360036100230360704700235E
:105850000361704743684B609A688A605160996041
:105860000861036801330360704703694168826817
:105870008A60416851605A68824206D00022026103
:105880001A68013A1A601868704782685A60F5E72A
:1058900030B40D68B5F1FF3F11D000F108031C468C
:1058A0005B681A68AA42FAD963684B6099608C6099
:1058B0006160086103680133036030BC70470469AC
:1058C000F2E7000082B0002301930D4B1B68B3F197
:1058D000FF3F08D04FF03F0383F31188BFF36F8F72
:1058E000BFF34F8F01BE4FF03F0383F31188BFF327
:1058F0006F8FBFF34F8F019B002BFCD002B070471E
:105900002423000808480068006880F308884FF0E6
:10591000000080F3148862B661B6BFF34F8FBFF307
:105920006F8F00DF00BF000008ED00E0DFF80C0023
:10593000016841F4700101607047000088ED00E0EB
:1059400008B54FF03F0383F31188BFF36F8FBFF3A8
:105950004F8F01F097F928B14FF0E0234FF08052BC
:10596000C3F8042D002383F3118808BD4FF0807322
:1059700040F8043C21F0010140F8081C054B40F8B8
:105980000C3C40F8202C6FF0020340F8243C4438D3
:10599000704700BFC5580010000000000000000064
:1059A000074B19680868B0E8F04F80F30988BFF327
:1059B0006F8F4FF0000080F311887047AFF30080C5
:1059C000B06602084FF03F0383F31188BFF36F8F77
:1059D000BFF34F8F0B4A136801331360012B00D0C4
:1059E00070474FF0E023D3F8043D13F0FF0FF7D0DA
:1059F0004FF03F0383F31188BFF36F8FBFF34F8FD7
:105A000001BEEDE724230008094B1B6843B94FF0A2
:105A10003F0383F31188BFF36F8FBFF34F8F01BE36
:105A2000034A1368013B13600BB983F31188704775
:105A30002423000800000000000000000000000017
:105A4000EFF30980BFF36F8F154B1A681EF0100F2C
:105A500008BF20ED108A20E9F04F10602DE9090001
:105A60004FF03F0080F31188BFF34F8FBFF36F8F6C
:105A700001F064FA4FF0000080F3118809BC196846
:105A80000868B0E8F04F1EF0100F08BFB0EC108AA5
:105A900080F30988BFF36F8F704700BFAFF30080BA
:105AA000B06602084FF0E022002313619361074BB8
:105AB0001B680749A1FB03139B09013B53610723A3
:105AC0001361044B9B68044ADA637047EC220008B8
:105AD000D34D621000ED00E04159001030B583B0A5
:105AE0004FF0E023D3F8002D3E4B9A421AD04FF0EE
:105AF000E023D3F8002D3C4B9A421DD03B4B1A7843
:105B0000D2B20192FF221A701B78DBB28DF80330FB
:105B10009DF8033003F03F03354A1370354B0722DD
:105B20001A601DE04FF03F0383F31188BFF36F8FBE
:105B3000BFF34F8F01BEDAE74FF03F0383F31188C5
:105B4000BFF36F8FBFF34F8F01BED7E7294A1368AA
:105B5000013B13609DF803305B00DBB28DF803302E
:105B60009DF8033013F0800FF0D1224B1B68042BFB
:105B700008D04FF03F0383F31188BFF36F8FBFF35B
:105B80004F8F01BE1B4A13681B02136003F4E063CE
:105B90001360019BDBB2154A13704FF0E024D4F878
:105BA000203D43F47F03C4F8203DD4F8203D43F06A
:105BB0007F43C4F8203DFFF775FF00250E4B1D60A5
:105BC000FFF7B4FED4F8343F43F04043C4F8343F09
:105BD000FFF798FE01F0B2F9FFF774FE284603B014
:105BE00030BD00BF71C20F4170C20F4100E400E040
:105BF000386600083C66000824230008EFF305839C
:105C00000F2B0FD9114A9B5CDBB2114A12789A42D2
:105C100008D94FF03F0383F31188BFF36F8FBFF3B1
:105C20004F8F01BE4FF0E023D3F80C3D03F4E06347
:105C3000084A1268934208D94FF03F0383F3118852
:105C4000BFF36F8FBFF34F8F01BE7047F0E300E0EB
:105C5000386600083C6600084FF03F0383F3118864
:105C6000BFF36F8FBFF34F8F01BEFEE74FF03F03CF
:105C700083F31188BFF36F8FBFF34F8F01BEFEE731
:105C8000124A12F0070F1ED0D11D21F00701C1F5F5
:105C9000003313440A460E48026000214160134459
:105CA000083B23F007030B48036059601960991AF9
:105CB00051601360084B1960084B1960084B4FF096
:105CC00000421A6070474FF40033E4E7446600086E
:105CD00058660208406600084C66020848660208DA
:105CE00044660208164B1A461B688342FBD3516870
:105CF00002EB010C844509D0416800EB010C6345BF
:105D000009D00360904219D0106070474068014488
:105D100051601046F0E710B40A4C2468A3420BD03F
:105D20005B681944416013681B680360904200D0AF
:105D300010605DF8044B70470460F7E7704700BFE0
:105D4000586602084066000838B5044601F056FC63
:105D5000414B1B6833B3414B1B681C4225D1631E6A
:105D600013F10A0F0BD804F1080214F0070F05D045
:105D700022F007030833934267D91A46CAB901F0E3
:105D800003F80025FFF768FF15F0070F08D04FF064
:105D90003F0383F31188BFF36F8FBFF34F8F01BEB3
:105DA000284638BDFFF76CFFD5E700F0EDFF002572
:105DB000E8E72B4B1B68934202D32A490C6805E0A5
:105DC00000F0E2FF0025DDE721461C4663689342B0
:105DD00002D22368002BF7D11F4B1B68A34230D09F
:105DE0000D68083523680B6063689B1A102B12D965
:105DF000A01810F0070F08D04FF03F0383F311886D
:105E0000BFF36F8FBFF34F8F01BE63689B1A436070
:105E10006260FFF767FF626811490B689B1A0B60AD
:105E2000114909688B4201D20F490B600B4B1B686B
:105E300013436360002323600C4A1368013313602B
:105E400004E000F0A1FF00259CE7002500F09CFF86
:105E5000002D99D196E700BF40660008446602080D
:105E600048660208586602084C6602085066020836
:105E700000283ED038B50446A0F1080550F8042C9F
:105E80001C4B1B681A4208D14FF03F0383F3118863
:105E9000BFF36F8FBFF34F8F01BE54F8083C43B17F
:105EA0004FF03F0383F31188BFF36F8FBFF34F8F22
:105EB00001BE54F8043C0F4A1268134202D054F851
:105EC000081C01B138BD23EA020344F8043C01F088
:105ED00095FB54F8041C084A13680B4413602846C9
:105EE000FFF700FF054A13680133136000F04CFF11
:105EF000E8E77047446602084866020854660208EC
:105F00000346406A18B11B6B1868C0F10700704760
:105F100010B50446FFF756FDA26BE36B9A4204D01E
:105F20000024FFF771FD204610BD0124F9E710B5EC
:105F30000446FFF747FDA36B23B90124FFF764FD77
:105F4000204610BD0024F9E770B504461546866B5F
:105F5000026C5AB903681BB100200136A66370BDFC
:105F6000806801F0CBFB0023A360F6E76DB94068C1
:105F70000BF0E6F9226C636813446360A2689342F5
:105F800019D3236863602846E7E7C0680BF0D8F9A7
:105F9000226C5142E3689B1AE3602268934202D26A
:105FA000A3680B44E360022D01D00020D5E726B1A1
:105FB000013E0020D1E72846CFE70020CDE7034689
:105FC000026C6AB110B50846D9681144D9609C6862
:105FD000A14201D31968D960D9680BF0B1F910BD9D
:105FE000704738B50546FFF7EDFC95F8454064B2BB
:105FF00001E0013C64B2002C0ADD6B6A43B105F19B
:10600000240001F0BBF80028F3D001F08DF9F0E78F
:10601000FF2385F84530FFF7F7FCFFF7D3FC95F831
:10602000444064B201E0013C64B2002C0ADD2B69FB
:1060300043B105F1100001F0A1F80028F3D001F000
:1060400073F9F0E7FF2385F84430FFF7DDFC38BD36
:106050002DE9F8430E4691461D460446C8B116B3D5
:10606000022D2DD0FFF7CAFDEFF311884FF03F034B
:1060700083F31188BFF36F8FBFF34F8FA26BE36B76
:106080009A422AD3022D28D0002088F31188BDE837
:10609000F8834FF03F0383F31188BFF36F8FBFF393
:1060A0004F8F01BEDBE7236C002BD9D04FF03F03AD
:1060B00083F31188BFF36F8FBFF34F8F01BECFE71C
:1060C000E36B012BCED04FF03F0383F31188BFF376
:1060D0006F8FBFF34F8F01BEC4E794F845707FB256
:1060E000A36B2A4631462046FFF72EFFB7F1FF3F4C
:1060F00007D07F2F15D001377FB284F8457001207B
:10610000C3E7636A0BB90120BFE704F1240001F083
:1061100035F880B1B9F1000F0FD00120C9F80000A7
:10612000B3E74FF03F0383F31188BFF36F8FBFF3E3
:106130004F8F01BEDFE70120A7E70120A5E770B57B
:106140000E46044660B3236C43B14FF03F0383F324
:106150001188BFF36F8FBFF34F8F01BE23684BB31E
:10616000FFF74CFDEFF311854FF03F0383F31188E8
:10617000BFF36F8FBFF34F8FA26BE36B93423DD999
:1061800094F845305BB20132A263B3F1FF3F1ED0F9
:106190007F2B29D001335BB284F8453001202EE0FB
:1061A0004FF03F0383F31188BFF36F8FBFF34F8F1F
:1061B00001BEC8E7A368002BD2D04FF03F0383F3A2
:1061C0001188BFF36F8FBFF34F8F01BEC8E7636ABB
:1061D0000BB9012013E004F1240000F0CFFF88B1D7
:1061E00096B1012030600AE04FF03F0282F311883F
:1061F000BFF36F8FBFF34F8F01BECBE7002085F356
:10620000118870BD0120FAE70120F8E7F0B585B0EC
:106210000F460192044680B1CFB101F0B5F850B9F4
:10622000019B43B14FF03F0383F31188BFF36F8F9E
:10623000BFF34F8F01BE002655E04FF03F0383F3BD
:106240001188BFF36F8FBFF34F8F01BEE4E7236C5C
:10625000002BE2D04FF03F0383F31188BFF36F8F21
:10626000BFF34F8F01BED8E739462046FFF7A7FEA0
:10627000013DA563236923B9FFF7C6FB012005B0E3
:10628000F0BD04F1100000F079FF0028F4D04FF0C9
:10629000E0234FF08052C3F8042DBFF34F8FBFF3BC
:1062A0006F8FE9E7FFF7B0FB0020E8E702A801F0F5
:1062B000CDF9012621E0002384F8443029E00023B1
:1062C00084F845302BE02046FFF78BFE00F05CFDA4
:1062D00009E02046FFF785FE00F056FD2046FFF757
:1062E00026FE00283FD1FFF76DFBA56B002DBBD12B
:1062F000019B002BD6D0002ED8D0FFF785FB01F0F4
:106300007DF9FFF75FFB94F844305BB2B3F1FF3FD8
:10631000D1D094F845305BB2B3F1FF3FCFD0FFF757
:1063200073FB01A902A800F0B9FF0028D1D12046D3
:10633000FFF7FDFD0028C6D0019904F1240001F00B
:106340006BF92046FFF74DFE00F01EFD0028CAD174
:106350004FF0E0234FF08052C3F8042DBFF34F8F6E
:10636000BFF36F8FBFE7002089E738B50D460446BD
:10637000D0B1FFF727FB2368E26B216C01FB0230F1
:10638000A0600020A0636360013A02FB0133E36078
:10639000FF2384F8443084F8453005BB23696BB98A
:1063A000FFF732FB012038BD4FF03F0383F3118824
:1063B000BFF36F8FBFF34F8F01BEDAE704F1100018
:1063C00000F0DCFE0028EBD04FF0E0234FF08052CD
:1063D000C3F8042DBFF34F8FBFF36F8FE0E704F1D5
:1063E0001000FFF729FA04F12400FFF725FAD7E798
:1063F00038B51D46049C0B4649B92460E06323640C
:1064000001212046FFF7B1FF84F84C5038BD2260CF
:10641000F4E710B584B01C46844640B94FF03F0302
:1064200083F31188BFF36F8FBFF34F8F01BE3CB36F
:106430004AB141B94FF03F0383F31188BFF36F8F27
:10644000BFF34F8F01BE2AB350230393039B502BFE
:1064500008D04FF03F0383F31188BFF36F8FBFF372
:106460004F8F01BE039B44B1012384F84630009452
:106470009DF818306046FFF7BBFF204604B010BD02
:106480004FF03F0383F31188BFF36F8FBFF34F8F3C
:1064900001BECDE70029D7D04FF03F0383F3118829
:1064A000BFF36F8FBFF34F8F01BECDE7F0B583B061
:1064B0000C461746064640B94FF03F0383F3118858
:1064C000BFF36F8FBFF34F8F01BE04FB06F064B1C3
:1064D000B0FBF4F3B34208D04FF03F0383F31188CD
:1064E000BFF36F8FBFF34F8F01BE10F1510F08D96B
