:020000041000EA
:1000000000200008EB0000100D0000004D01001062
:1000100000000000000000000000000000000000E0
:100020000000000000000000000000004901001076
:10003000000000000000000049010010490100100C
:100040004901001049010010490100104901001048
:100050004901001049010010490100104901001038
:100060004901001049010010490100104901001028
:100070004901001049010010490100104901001018
:1000800010B5064C2378002B07D1054B002B02D06E
:10009000044800E000BF0123237010BDB003000836
:1000A0000000000014150010044B10B5002B03D005
:1000B0000349044800E000BF10BDC0460000000036
:1000C000B4030008141500100230800803D001307A
:1000D0000238FCD1C046C0467047EFF3108072B6BC
:1000E000704780F3108870477047FFF7FDFF72B6C6
:1000F0000F4C104DAC4209DA21686268A368043BDA
:1001000002DBC858D050FAE70C34F3E70A490B4A2F
:100110000020521A02DD043A8850FCDC08480949E4
:100120000860BFF34F8F00F0EDFE00F09BFEFEE78E
:100130002015001038150010B0030008C80500088D
:100140000000000808ED00E0FEE7FEE700B504202F
:100150007146084202D0EFF3098002E0EFF3088015
:10016000043000F091FCFEE7014B18607047C04678
:10017000CC030008044B1B681A00BA3212881B6AB1
:100180005043C0187047C046CC030008A02300B5F8
:100190001B06984226D015D8802825D00AD81028CA
:1001A00024D0402824D000280BD0154809E0A420F2
:1001B000C00306E08022134B520090421CD09842AC
:1001C000F3D100BD104B984218D0104BC018042832
:1001D000EBD800F035FFECEA0F0305000C48F0E720
:1001E0000C48EEE70020ECE70B48EAE70B48E8E7AD
:1001F0000B48E6E70B48E4E71800E2E7A020D7E762
:10020000FF00520006005200090000A0FFFFFF0F90
:10021000020052000300520005005200010050008D
:10022000020050000100520010B50020FFF7A2FFAD
:100230000A4B1C682300BC331B68C0180368002BE2
:100240000ADB074B1868FFF7A1FF012263689A6079
:100250009A68002AFCD110BD0248FCE7CC030008D4
:10026000D003000802005000064B1B68BC331B681B
:10027000C3181B68002B03DA89B241600020704765
:100280000148FCE7CC03000801008A000368002B4A
:1002900004DA89B2C2608160002070470048FCE740
:1002A00001008A00064B1B68BC331B68C3181B681F
:1002B000002B03DAC36800200B6070470148FCE79D
:1002C000CC03000801008A00024B1A68002A00D102
:1002D00018607047E4030008F0B52C244443154827
:1002E0001F0000681E0A0019FF2426402740124CF8
:1002F0001B0C256807602C6A46608360BA352D8820
:100300006F433F190761370080377F01E7190B4DB5
:1003100076014761A4191F043B436419236000233D
:100320008361059BC2610162002B01D01B88838120
:10033000F0BDC046E4030008CC030008081000002C
:10034000F0B5836885B002AD2B800368066A173369
:100350006B804368476A0095826AC16A0400039310
:100360000369C068FFF7B8FF00213B000A003000B6
:100370000091FFF7B1FF2800216B00F039FB00224C
:10038000AB5E002B06DB1F2213401E3A9A4013007F
:10039000014A136005B0F0BD00E100E0F7B52C267E
:1003A000134C70434E43246801932518A4192E69F9
:1003B000002E19D0A069002818D13168002915DA5B
:1003C00001216F680D0063689D40AC4613689DB2C3
:1003D00063461B041D431560F260A161B940019B97
:1003E00089B26362B160FEBD0248FCE70248FAE7E9
:1003F000E403000804028A0007028A0073B500269D
:1004000042690400D56801962B0CB34221D01B042D
:1004100013601368194B00691B68BC331B68C31851
:100420001B68B34215DA01A9FFF73CFFB0420CD1BB
:100430000198E26903681E0CDBB29A4205D9226A70
:100440009B009B58002B00D0984731002069FFF794
:100450000BFFADB2002D09D063691D6000251B683C
:10046000636AAB4205D098476562A56163691B6802
:1004700073BDA36A002BF8D09847F6E7CC030008B9
:100480002C2310B54343034A1068C018FFF7B6FF8A
:1004900010BDC046E40300081A4B70B51A680C0082
:1004A000130033331B7883422AD9002928D00D68E2
:1004B0001F212B000B400D4222D11100BA310988B7
:1004C000126A48431900104D8018286022685209AA
:1004D000934210D30021FFF7C7FE002122002868B5
:1004E000FFF7D4FE011E04D12868FFF7BDFE0028E7
:1004F00000D0064870BD66689A0091510133E5E767
:100500000348F7E7CC030008E803000801018A006C
:1005100003018A0010B504000800002A0CD100294C
:1005200013D10B4B1A681300BA331B88126A63434A
:100530009B18084A136010BD002906D006490860C0
:1005400020004A60FFF7A8FFF5E70448F3E7C0463C
:10055000CC030008E80300087803000803018A00C0
:10056000F7B5184F04003B680191DE683368834299
:1005700026D90025A94202D1FFF7AFFD0500386852
:100580000368002B1ADA1F220123224093406409DA
:100590007268A4001419226813420DD09A43226095
:1005A00000240021FFF760FE019B002B02D12800F0
:1005B000FFF797FD2000FEBD034CF2E7034CF3E785
:1005C000034CF7E7E80300080201880003018800F4
:1005D00004018A000A4B1B68DB681A6882420DD945
:1005E00059681F23420918401E3B8340920050580F
:1005F0001840431E9841034BC01870470248FCE75F
:10060000E80300080001880004018A00054B1B680C
:100610001A0088321B6812689B181868000AC0B25A
:100620007047C046CC030008044B1B681A00883290
:100630001B6812689B181868000E7047CC030008EE
:10064000034BE0308000C0588006800F7047C046E2
:1006500000002640024B18694007C00F7047C04693
:1006600000002740A6220549D2008B580220DB4318
:100670009B0702D00123885818407047000026408D
:1006800010B5FFF7EFFF0023022801D1014B1B68D3
:10069000180010BDF0030008094A83009B18D022FF
:1006A0009200985807221040042807D1C0229200D7
:1006B00098581F2303408020400018437047C046CD
:1006C0000000264010B5FFF7E7FF88235B00984243
:1006D0001AD009D8012811D0022812D0434258411B
:1006E000114B4042184010BD1223FF33984213D0E3
:1006F0001423FF33984214D00020F4E70B4B186802
:10070000F1E7FFF7BDFFEEE7094A0A4BD358002B8C
:10071000F2DA80200002E6E7FFF79CFF0028EBD02A
:10072000F7E7034A044BF1E700127A00EC030008F4
:10073000000026400C0500003C050000B023154ACF
:10074000DB00D35810B59903DB01DB0F890BC371B4
:10075000114B0160D3580F24D904DB01DB0D038159
:10076000B123DB00D358C90C81801900214081726C
:1007700019092140C172D9029B009B0F8373074B5B
:10078000C90CD35881815A05DB01520FDB0D8271F0
:10079000038210BD00002640840500008C05000087
:1007A0008030034BFF308000C058C00F7047C046F8
:1007B0000000264010B5104B421E1B683F331B78CB
:1007C000934216D97F221F2480300C4BFF308000CB
:1007D000C3581A400A701A0C2240180A8A701A016B
:1007E0002040E240487000209B009B0FCA700B71B4
:1007F00010BD0348FCE7C046CC03000800002640BB
:1008000001004A00F0B589B003AC2000FFF796FF65
:10081000B0231A4ADB00D25800239A4203DAA37BA2
:10082000023B5A1E9341E57900266A1E9541013527
:10083000B34220D0A488B4421DD03000039FFFF7FC
:1008400041FF2A00330031000190200000F0AEFC8F
:100850000C00050033003A003100019800F0A6FCBE
:10086000E6076A0832436308801859412A002300CA
:1008700000F07CFC0600300009B0F0BD000026400E
:10088000F7B5234B06001B683F331B78002B08D0BD
:1008900000283BD0834204D36946FFF78BFF041E38
:1008A00001D0002632E03000FFF77AFF2300002855
:1008B00005D06B461C79023C23005A1E93416A46C0
:1008C0005478002BEDD0002CEBD09578002DE8D09B
:1008D00030001778FFF7F6FE002306002A002000FC
:1008E000190000F063FC00230C0005003A00300002
:1008F000190000F05BFCE6076A08324363088018C1
:1009000059412A00230000F031FC06003000FEBDF2
:10091000CC03000810B5041E04D1FFF773FF0028B4
:1009200006D008E0064B1B683F331B78834203D296
:100930002000FFF7C7FE10BDFFF7A2FFEFE7C0469C
:10094000CC03000870B50500FFF77AFEE035074BD1
:10095000AD000400E8580F231840FFF7DBFF012328
:10096000A3405B081818E04070BDC0460000264058
:10097000144B30B51C6823002C331A7807231F2A28
:1009800015D8820815009D432B1E0FD10333184044
:10099000984081402368920020339B180A00FF2171
:1009A00081401C68624011406140196030BD1840B0
:1009B00080231B06184380239B012268C9188900E5
:1009C0008850F3E7CC030008064B10B59A68064C34
:1009D00010308300A24202D19858995010BD034AAA
:1009E000D058FBE700ED00E0000000080000001018
:1009F000F8B506000D0000283AD00023C05E00289C
:100A000028DB7188FFF7B4FF0024FF2203279446F8
:100A10000023F05E71680740FF006646BA40890116
:100A20003140D243B94083B2002815DB114E830810
:100A30009B009B19C026B6009F593A40114399511B
:100A40000D4B9A680D4B9A4202D12900FFF7BCFF6B
:100A50002000F8BD0A4CD8E70F263340083B064E6D
:100A60009B089B009B19DE6932401143D961E7E77F
:100A7000034CEDE700E100E000ED00E000000008BD
:100A800001005600FEE7000002680A4B10B51A602C
:100A900042685A6082689A60C268DA6002691A61C4
:100AA00042695A6182699A61C269DA61FFF7EAFFB5
:100AB00010BDC04690030008B0235B055A78212082
:100AC000002A01D05878C0B27047B0235B059A89DC
:100AD000002A02D0988980B2704780204000FBE74E
:100AE0007FB5274B86000D00F458042901D0012959
:100AF00027D100200FE0A3682B420BD1E368290027
:100B00001A685B6802920193039302A823689847CE
:100B10001C4B1C606469002C0BD01B4B9842EAD123
:100B2000012DE8D1174B18481A68184B9A5104B098
:100B300070BD012DFBD1144B9842F3D0134B9C5147
:100B4000F5E7022915D026006469002CFBD10020AE
:100B5000002EECD0B3682B4209D1F36829001A6843
:100B60005B6802920193039302A833689847366941
:100B7000EEE7044B1B68181ED9D01E69E7E7C04694
:100B80003404000830040008FF0042001C04000880
:100B90001A4B1B68190088311A68096851180968CE
:100BA000016219008C3109685218126842621A00F9
:100BB00046321278002A1FD09A68E0321268D206B4
:100BC0001AD5F222DB68D2019A580260F022D201D3
:100BD0009A5842600A4A9A5882600A4A9A58C260F1
:100BE000094A9A580261094A9A584261084A9A5831
:100BF0008261084A9B58C3617047C046CC03000815
:100C000004780000087800000C78000010780000DC
:100C100014780000187800001A4B1B681A008832FC
:100C2000196812688A18016A11601A008C321968F2
:100C300012688A18416A11601A0046321278002A36
:100C40001ED09A68E0321268D20619D5F0224168A7
:100C5000DB68D201995081680B4A9950C1680B4AF0
:100C6000995001690A4A995041690A4A9950816923
:100C7000094A9950C169094A99500168E832995066
:100C80007047C046CC0300080478000008780000D4
:100C90000C7800001078000014780000187800002C
:100CA000F7B50700FFF708FF5D4D06006B68002BE6
:100CB00000D07DE0FFF711FA6B680090002B00D0A8
:100CC00089E0584C22681300BA33198807234B4334
:100CD000126A9B181A68002AFCDADB68DA0021D550
:100CE0001B0F1B0750480193FFF752FF20684F4925
:100CF000030088331C6803681C1923680B40212EED
:100D000000D06DE0902212011343236003008C3366
:100D100000681B68C318186801400A431A60424BF8
:100D2000019A134380223F4E9205316813430A0013
:100D3000BA321088072200244243096A5218D3604D
:100D400054605368FFF7C1FE80235B0098424AD18C
:100D5000380000F05DFB32681300BA3319880723AE
:100D60004B43126A9B181A68002AFCDADF68FB0002
:100D700003D538010009FFF74FFF2D4B32681F40A4
:100D80001300BA33198807234B43126A00989B1843
:100D90000022DF605A60FFF7A4F9002C0FD16B68C6
:100DA000002B03D008210120FFF79AFE2000FEBD92
:100DB00001210800FFF794FE041E00D17AE76B685A
:100DC000002B03D002210120FFF78AFE194B9C4221
:100DD000ECD0194CEAE704210120FFF781FE70E70F
:100DE0008022520090E733681A00BC32196A1268F8
:100DF00052181168002910DBBA331B889A1813683F
:100E0000002B0ADB04230D4A11690B431361012FE8
:100E100001D030BF9FE720BF9DE7064C9BE7C0464F
:100E200034040008CC030008F4030008FF00FFFFAF
:100E3000FFFFFFDF05004200FF00420000ED00E081
:100E4000C0228020064952008B58C0059B009B0899
:100E500003438B50802388581B0603438B507047F5
:100E60000000264010B562B6034800F0C3F8002029
:100E7000FFF716FFFBE7C0460020001010B500206A
:100E8000FFF7FEFA10BD704710B50020FFF75AFDBE
:100E9000041E28D0144B1860FFF7C6FB411C20002D
:100EA00000F0D8F8114B04001860FFF7AFFB411CAD
:100EB000200000F0CFF804000D4B013C18600D49F4
:100EC000200000F0C7F8FA210B4B013018708900A0
:100ED000200000F0BFF8094B013018600020FFF738
:100EE00031FD074B186010BD880000088C00000819
:100EF0008000000840420F009400000890000008A5
:100F00008400000810B52048FFF72EF9B022E02138
:100F100030201E4CD200A35889005B005B08A35010
:100F200063588343635080235B04A350184B194AD2
:100F3000E250A02204339201E250FF22164BE2500D
:100F4000FFF77EFFC02201215200A3588B43A3501C
:100F5000FFF799FFFFF798FF104B03201A68130063
:100F6000BA33198807234B43126A80219B18002249
:100F7000DA605A600A4AFFF7CDFA0A48FFF7A4F987
:100F80000948FFF7DDF910BD2014001000002640CD
:100F900084050000010002008C050000CC0300085D
:100FA0008003000848040008E01400109023034A5E
:100FB0005B01D058032318407047C0460000204012
:100FC00010B59024FFF789F8074B64011A590749B7
:100FD0001140074A0A431A51102259681142FCD0A5
:100FE000FFF77FF810BDC04600002040FCFF000066
:100FF0000100FA05F8B590260E4C76010700FFF7C0
:101000006CF8A3590500DB439B0701D1FFF7D8FF1C
:1010100080239B00E750A359074A1A40074B13430C
:10102000A351102362681A42FCD02800FFF759F838
:10103000F8BDC04600002040FCFF00000300FA0598
:1010400002B4714649084900095649008E4402BC61
:101050007047C046002243088B4274D303098B4279
:101060005FD3030A8B4244D3030B8B4228D3030C78
:101070008B420DD3FF22090212BA030C8B4202D31A
:101080001212090265D0030B8B4219D300E0090A42
:10109000C30B8B4201D3CB03C01A5241830B8B424B
:1010A00001D38B03C01A5241430B8B4201D34B0334
:1010B000C01A5241030B8B4201D30B03C01A524199
:1010C000C30A8B4201D3CB02C01A5241830A8B421E
:1010D00001D38B02C01A5241430A8B4201D34B0207
:1010E000C01A5241030A8B4201D30B02C01A52416B
:1010F000CDD2C3098B4201D3CB01C01A524183091F
:101100008B4201D38B01C01A524143098B4201D358
:101110004B01C01A524103098B4201D30B01C01A83
:101120005241C3088B4201D3CB00C01A52418308FD
:101130008B4201D38B00C01A524143088B4201D32A
:101140004B00C01A5241411A00D20146524110468A
:101150007047FFE701B5002000F006F802BDC04669
:101160000029F7D076E770477047C046002B11D1B1
:10117000002A0FD1002900D1002802D00021C94344
:10118000080007B4024802A14018029003BDC046FF
:10119000D9FFFFFF03B4684601B5029800F034F8A8
:1011A000019B9E4602B00CBC7047C046F0B5CE46CF
:1011B000474680B5070099463B0C9C4613041B0C20
:1011C0001D000E0061460004140C000C45434B4307
:1011D00060436143C0182C0C20188C46834203D90D
:1011E00080235B029846C444494679437243030C0A
:1011F00063442D042D0CC918000440198918C0BC83
:10120000B946B046F0BDC046F0B557464E464546D5
:10121000DE46E0B504000D009246994683B08B424D
:1012200030D82DD04946504600F0D8F829000600A5
:10123000200000F0D3F8331A9846203B9B4633D465
:101240005A465346934042461F00534693401E0061
:10125000AF423AD8AF4200D178E05B46A41BBD4113
:10126000002B00DA75E00022002300920193012395
:101270005A4693400193012342469340009328E04D
:101280008242CFD900220023009201930C9B002BB5
:1012900001D01C605D600098019903B0F0BCBB46B2
:1012A000B246A946A046F0BD424620239B1A5246AC
:1012B000DA40414613004A468A40170042461F431F
:1012C000534693401E00AF42C4D90022002300922F
:1012D00001934346002BD9D0FB0772081A434646B8
:1012E0007B080EE0AB4201D1A2420CD8A41A9D416A
:1012F000012024196D410021013E24184D41002E8A
:1013000006D0AB42EED9013E24196D41002EF8D132
:10131000009801995B4600196941002B24DB2B00E2
:101320005A464446D3402A00E2401C005B46150062
:10133000002B2ADB26009E40330026004746BE4095
:101340003200801A9941009001919FE7A342BCD8D6
:1013500083E74246202300219B1A0022009101923C
:101360000122DA40019286E7424620239B1A2A0096
:1013700046469A402300F340444613432A00E24085
:101380001C005B461500002BD4DA42462F002023B8
:10139000260097409B1ADE403B003343CDE7C04612
:1013A0001C2101231B04984201D3000C10391B0A95
:1013B000984201D3000A08391B09984201D3000959
:1013C000043902A2105C40187047C04604030202B0
:1013D00001010101000000000000000010B500291B
:1013E00003D1FFF7DDFF203002E00800FFF7D8FF50
:1013F00010BDC046F8B5C046F8BC08BC9E46704754
:10140000F8B5C046F8BC08BC9E4670470000000016
:1014100001B40248844601BC604700BF6102000875
:1014200000002040000024400000004000000000B8
:1014300000002340000030400000314000009F4089
:10144000000022400000104000009D40202020208D
:1014500020101010101D1D8017007500FF030602DC
:1014600006003604102000007FC0000000040000C9
:10147000000000000019324B647D00000000008075
:101480004000080B100000000000FF012002001FB8
:1014900000800004FF081018001000140018001C41
:1014A0004044484C500000000810000008000000B4
:1014B00004000000041000000012000004210000DD
:1014C000002100000016000040114002C413001368
:1014D0008013A01340138813A81320001C000000E1
:1014E00003000000010000000100000000000000F7
:1014F000050360000400000001000000000000007F
:10150000010000000604600008000000A8050008B3
:101510007D0E001000000000F0FCFF7F01000000C5
:1015200000000010000000088000000040150010BE
:1015300080000008F8020000B00300081802000054
:1015400000093D0000093D0000127A0000093D003D
:10155000A00F000004000000A9000010810000108E
:1015600080B230B5C400002820D0114B0722186883
:101570000300BA331B885343026A9A181168002982
:10158000FCDA3E210B4A062511600B4A0B4911601B
:10159000A3210B4AC90055500A495450006A5458B7
:1015A0001B18002058605358002BFCDA30BDC04691
:1015B000CC03000804012640080126401E1F00003D
:1015C000000026401C05000010B54378FF2B11D108
:1015D00000F0FAF80400032000F00EF90121C368BE
:1015E0005B681A680A431A601A680A42FCD1200034
:1015F00000F01AF910BDF7B507000020019100F0C6
:10160000FBF83E4C050023681A005033BC321668C4
:101610001B788619002B59D000F0F6F800900328AB
:101620001AD000F0D1F8364A364B0400D358002BBC
:101630003CDA01212800344A00F0D6F8002835D1E0
:101640000198FFF78DFF002F3ED03368002BFCDBA5
:1016500000F0B2F805002AE0062000F0CDF823687B
:10166000BC331B68C0180368002B02DA274D280022
:10167000FEBD002000F0B0F8254B9842F6D00023C4
:10168000244A19000120126800F0C6F8041EEDD1AA
:10169000002000F0A1F81E4A1F4B904203D09C424C
:1016A000E4D00134F4E79C42BBD1DFE7174D009B47
:1016B000032B05D10121002000F076F80028F9D194
:1016C000200000F0B1F8D2E7144DF0E700F07CF80C
:1016D000012104000C4A280000F086F8002808D1F7
:1016E000002F08D03368002BFCDB00F065F8050004
:1016F000E6E7064DE4E7094DE2E7C046CC03000803
:10170000000026401C050000D00300080500520020
:1017100001018800E0030008F049020001005000C8
:10172000184BF7B51B6818495A6804230C69234302
:101730000B61012824D030BF1300FC331B69002B40
:101740001DD1A324114B12481249E40007681E5909
:101750000D680195104D056006251D513E240C6055
:101760000E4C3E351D511D59002DFCDA0C4CFC323F
:101770001461A322D20007609E50019B0B60F7BD4D
:1017800020BFD9E7CC03000800ED00E000002640B0
:1017900008012640040126401E1F00001C05000011
:1017A000AAAAAAAA0000000001B40248844601BC0B
:1017B000604700BF6105001001B40248844601BCC7
:1017C000604700BF2902001001B40248844601BCF2
:1017D000604700BFDB00001001B40248844601BC32
:1017E000604700BFD505001001B40248844601BC23
:1017F000604700BF8D02001001B40248844601BC5E
:10180000604700BF7501001001B40248844601BC66
:10181000604700BFAD0F001001B40248844601BC10
:10182000604700BF9D03001001B40248844601BC1C
:10183000604700BFE300001000000000000000004F
:101840000000000000000000000000000000000098
:1020000000F80F08252300100D0000009923001090
:10201000992300109923001099230010000000005C
:10202000000000000000000000000000115D001032
:102030009523001000000000B15D0010B15C00109D
:102040009523001095230010952300109523001070
:102050009523001095230010952300109523001060
:102060009523001095230010952300109523001050
:102070009523001095230010952300109523001040
:1022E00010B5054C237833B9044B13B10448AFF350
:1022F00000800123237010BD242A00080000000084
:10230000EC96011008B5034B1BB103490348AFF32A
:10231000008008BD00000000282A0008EC9601108B
:1023200070477047FFF7FCFF72B6144C144DAC4277
:1023300009DA21686268A368043BA2BFC858D0507C
:10234000FAE70C34F3E70F490F4A00209142BCBF73
:1023500041F8040BFAE70D480D490860BFF34F8FB1
:1023600000F084F800F068F803F0DCFB0FF086F969
:1023700001F0F0FB0FF00EF9FEE70000F8960110F7
:1023800010970110242A0008305C02080020000881
:1023900008ED00E0FEE7FEE700B5042071460842C4
:1023A00002D0EFF3098002E0EFF3088004300BF075
:1023B00045FEFEE708B5012009F090FB08BD704717
:1023C00010B500200BF028FD00B910BD0446124BDB
:1023D00018600AF01FFF0130B4FBF0F00F4B1860DB
:1023E0000AF030FF0130B4FBF0F40D4B1C60013CEF
:1023F0000C4BA3FB04239B0C01330B4A13700B4BB8
:10240000A3FB0434A4090134094B1C6000200BF029
:1024100003FD084B1860D8E7E8220008EC2200080A
:10242000E022000883DE1B43F4220008D34D621033
:10243000F0220008E422000808B5094808F0EAFE86
:10244000FFF7BDFFFFF7BCFF00221146032009F094
:10245000A1FB044809F0EAF9034809F03FFA08BD76
:10246000F88C0110402A0008A8610110EFF31081D8
:1024700072B6074AD2F8883043F47003C2F8883045
:10248000BFF34F8FBFF36F8F81F31088704700BF8A
:1024900000ED00E008B500F035F800F007F808BDE1
:1024A00008B500F027F900F015F808BD10B5064C86
:1024B000064A0621204609F0BFF8054A07212046B2
:1024C00009F0BAF810BD00BF0003314014620110DA
:1024D000DC61011008B5064806F048FC054806F026
:1024E00045FC054806F042FC044806F03FFC08BDE8
:1024F0004C6201105062011048620110106201101C
:10250000FEE7000030B583B0962100200BF0E8FD17
:102510000BF078FDC0B96F4BD3F8004F04F03F04C7
:102520000BF060FD30B101200BF052FD6A4B9B6C4B
:10253000002B26DB674BC3F8004F0AF075FF0AF04B
:1025400069FF01200AF084FF01200CF01FFB0CF052
:10255000C5FA0CF09FFB0CF089FB0BF061F8002131
:1025600008460AF0F3FE00200AF05EFE01200AF0A1
:1025700043FE00200AF0FEFD584B1B6893F83F40D5
:1025800006E00620FFF7BCFF20460BF085F9013C72
:10259000002CF9D1002101200AF08EFF00200AF062
:1025A000C3FE00287BD0002108460AF085FF0021E9
:1025B00008460AF099FE4A4D00240094234622461C
:1025C0002146284608F0F4FE0094234622460121C5
:1025D000284608F0EDFE01200AF00CFF41480AF001
:1025E000EFFE002867D101200AF0EEFD00200AF07E
:1025F0001BFE00200AF000FE00200AF0BBFD0021B7
:1026000001200AF059FF002108460AF055FF002179
:1026100002200AF051FF002103200AF04DFF0021A3
:1026200004200AF049FF002105200AF045FF2E484A
:102630000BF010F8002841D12C480BF0BBF8002813
:102640003FD1002108460AF04FFE002108460AF05B
:102650007DFE274901200BF045F9A8BB42F210711D
:1026600001200BF0CDF990BB002102200AF03CFEC6
:10267000002102200AF06AFE02200AF0EFFD00208D
:102680000AF092FD0AF0C6FE01200AF0E1FE642184
:1026900000200BF025FDFFF793FE03B030BD0AF0DC
:1026A00039FF40F2111398427FF47DAF01210020E1
:1026B0000AF01AFE77E70520FFF722FF0420FFF754
:1026C0001FFF0420FFF71CFF0320FFF719FF032063
:1026D000FFF716FF00F0274000002740BC5A020811
:1026E0000000314040420F0054620110400D0300D1
:1026F0008062011008B5094806F038FB084806F06A
:1027000035FB084806F032FB074806F02FFB074868
:1027100006F02CFB064806F029FB08BD6862011094
:102720006C62011070620110746201107862011015
:102730007C62011008B504480BF054FE08B100207B
:1027400008BD0248FCE700BFF822000800000206AE
:1027500010B506F009FB044638B154B1FFF79AFEF4
:10276000FFF79EFE5CB1204610BD07F065FF0446F2
:10277000F3E740F6E441002008F010F8EEE7FFF739
:10278000D9FF0446EFE703460021084604E011B9EB
:10279000013040B2012101331A781AB1202AF6D053
:1027A0000021F8E701B97047013840B2FBE70000AB
:1027B00038B50A46094B1B6853B1084C25682B688D
:1027C000596810F000F96B6823602BB1012038BD07
:1027D000024B03491960F0E70020F8E7CC2B000812
:1027E0001823000838B5054690B1082003F064FCB2
:1027F0000446B8B104B303F09DFA2560002363607A
:102800000E4B1A6854601C6003F0B6FA012038BD04
:102810004FF03F0383F31188BFF36F8FBFF34F8FE8
:1028200001BEE2E74FF03F0383F31188BFF36F8FE0
:10283000BFF34F8F01BEDDE70020E8E71423000857
:102840002DE9F0470746884691462B4B1B68ABB1F4
:102850000126294B1B680BB1002E3DD0002B44D024
:102860001B689B683A46494640469847064610B959
:10287000214B00221A603046BDE8F0871E4B1F4AEC
:102880001A6009E03846FFF77EFF8442E1D1012655
:10289000DFE76A68184B1A60174B1D68D5B1D5F889
:1028A00000A0DAF80060304610F071F804460246E5
:1028B0003146384610F073F806460028E9D13B5DF2
:1028C000202B01D0002BE4D19AF90C40002CD9DA4E
:1028D0000126BEE70126BCE74A460949404610F0FA
:1028E00072F8054B00221A60C5E74A460549404682
:1028F00010F069F80026BEE7C82B0008182300086E
:1029000088620110E0620110002313609C460EE013
:10291000013003780BB1202BFAD10378202B01D1A1
:102920000130FAE7A3B10CF1010C61450ED08C45E2
:10293000EFD30020704713680133136001310B7827
:102940000BB1202BF7D1136823B170470146F6E78E
:10295000002070470020704770B52DED028B8EB0BF
:1029600004465E4E01A930680CF0BBFF0546306896
:102970000DF046FB07EE100ADDED047AF8EEE77A7B
:1029800067EE278A30680DF03BFB07EE100ADDED9D
:10299000037AF8EEE77A27EE278A9DF83030012B8C
:1029A00005D0022B23D0032B23D04D4E00E04D4EFB
:1029B0000DB34D4DA44605F120062C460FCCCCF8A6
:1029C0000000CCF80410CCF80820CCF80C302546D8
:1029D0000CF1100CB442F0D12068CCF80000A388B0
:1029E000ACF8043000200EB0BDEC028B70BD3F4E41
:1029F000DEE73F4EDCE73F480FF034FD0A200FF0E2
:102A000049FD3D480FF02EFD31463C480FF02AFDB0
:102A10000A200FF03FFD3A480FF024FD18EE900A0F
:102A20000DF094FF02460B46364D28460FF01AFD76
:102A30000A200FF02FFD34480FF014FD18EE100A95
:102A40000DF084FF02460B4628460FF00BFD0A20CE
:102A50000FF020FD2D480FF005FD05980DF076FFD5
:102A600002460B4628460FF0FDFC0A200FF012FD2F
:102A700027480FF0F7FC06980DF068FF02460B465A
:102A800028460FF0EFFC0A200FF004FD21480FF05C
:102A9000E9FC9DF83130C3B11F480FF0E3FC0A2078
:102AA0000FF0F8FC1D480FF0DDFC9DF8323083B1CB
:102AB00019480FF0D7FC0A200FF0ECFC0D480FF07E
:102AC000D1FC174B1B8823808CE716480FF0CAFCFB
:102AD000E5E714480FF0C6FCEDE700BFD02B000877
:102AE000A063011084630110AC63011090630110B6
:102AF00074630110D4630110E0630110F0630110EE
:102B0000F4630110086401100C64011020640110CA
:102B10003C64011058640110746401108464011055
:102B2000986501107C64011038B50446134D2846A1
:102B30000FF098FC0A200FF0ADFC11480FF092FC4A
:102B40000A200FF0A7FC0F480FF08CFC0A200FF0B2
:102B5000A1FC0D480FF086FC0A200FF09BFC0B48EF
:102B60000FF080FC0A200FF095FC28460FF07AFC4D
:102B7000074B1B882380002038BD00BFA0640110D4
:102B8000B0640110F4640110106501103C6501107F
:102B90009865011070B58EB0034610461D462BB3E4
:102BA0006A460121FFF7B0FE044648B301A9584B1D
:102BB00018680CF096FE68BB564920460FF0DDFE03
:102BC000002846D0544920460FF0D7FE00285BD09D
:102BD000524920460FF0D1FE002857D050492046D8
:102BE0000FF0CBFE002853D1012333E04FF03F0319
:102BF00083F31188BFF36F8FBFF34F8F01BECFE711
:102C00004FF03F0383F31188BFF36F8FBFF34F8FF4
:102C100001BECBE7434CAC4604F12005A646BEE816
:102C20000F00CCF80000CCF80410CCF80820CCF849
:102C30000C3074460CF1100CAE45EFD1DEF80000FC
:102C4000CCF80000BEF80430ACF8043000200EB020
:102C500070BD0123002B52D02E4920460FF08DFE6F
:102C6000C0B12D4920460FF088FE00283DD02B49E9
:102C700020460FF082FE002839D0294920460FF067
:102C80007CFEB0B3002306E00123E3E70123E1E784
:102C90000023DFE700238DF8303004F067FE1C4E80
:102CA00001A930680CF027FE044630680DF0B6F933
:102CB00004F022FAFCB11C4EAC4606F12005344665
:102CC0000FCCCCF80000CCF80410CCF80820CCF8DD
:102CD0000C3026460CF1100CAC42F0D12288A378BF
:102CE000ACF800208CF80230B0E70123D3E70223D0
:102CF000D1E70323CFE70D4B18682860A6E70C4CFB
:102D00000FCC28606960AA60EB6023882B829DE766
:102D1000D02B0008A06301108463011090630110A0
:102D200074630110AC6301106065011084650110CB
:102D300088650110F0B58FB0034610461D46CBB133
:102D40006A460121FFF7E0FD0446E8B101A94B4BBB
:102D500018680CF0C6FD08BB494920460FF00DFE6F
:102D600000283AD0474920460FF007FE00286ED1D0
:102D7000012633E04FF03F0383F31188BFF36F8FD9
:102D8000BFF34F8F01BEDBE74FF03F0383F31188A2
:102D9000BFF36F8FBFF34F8F01BED7E73A4CAC46FE
:102DA00004F12005A646BEE80F00CCF80000CCF8E0
:102DB0000410CCF80820CCF80C3074460CF1100C40
:102DC000AE45EFD1DEF80000CCF80000BEF80430CC
:102DD000ACF8043000200FB0F0BD0126002E43D027
:102DE000274920460FF0C9FD074620B12549204656
:102DF0000FF0C3FD68BB07B100268DF8326004F008
:102E0000B5FD1E4E01A930680CF075FD0446306812
:102E10000DF004F904F070F914B31C4EAC4606F141
:102E2000200534460FCCCCF80000CCF80410CCF8C8
:102E30000820CCF80C3026460CF1100CAC42F0D136
:102E40002288A378ACF800208CF80230C2E7002674
:102E5000C4E70F4B0F4A40F26E310F480EF0A0FA54
:102E60000E4B18682860B5E70D4C0FCC28606960E0
:102E7000AA60EB6023882B82ACE700BFD02B000850
:102E8000746401107C640110AC6301106065011072
:102E90009C650110F8690110DC6501108465011062
:102EA0008865011070B58EB0034610461C463BB3D2
:102EB0006A460121FFF728FD054658B301A9424B98
:102EC00018680CF00EFD78B3404DA44605F1200EB5
:102ED0002C460FCCCCF80000CCF80410CCF808201D
:102EE000CCF80C3025460CF1100C7445F0D120685C
:102EF000CCF80000A388ACF8043000200EB070BD00
:102F00004FF03F0383F31188BFF36F8FBFF34F8FF1
:102F100001BECDE74FF03F0383F31188BFF36F8FFE
:102F2000BFF34F8F01BEC9E70021284610F07AFB9E
:102F300007EE900A9FED267AF4EEC77AF1EE10FACA
:102F40001FDB9FED247AF4EEC77AF1EE10FA18D861
:102F5000069004F00BFD1C4E01A930680CF0CBFC70
:102F6000054630680DF05AF804F0C6F895B9069891
:102F70000DF0ECFC02460B46174920460FF09AFC78
:102F8000BBE7164D0FCD20606160A260E3602B8827
:102F90002382B2E7124DA44605F120062C460FCC41
:102FA000CCF80000CCF80410CCF80820CCF80C3099
:102FB00025460CF1100CB442F0D12288A378ACF86D
:102FC00000208CF8023098E7D02B0008AC63011089
:102FD000CDCC4C3E00004842F065011088650110E0
:102FE0006065011070B58EB0034610461C463BB3B9
:102FF0006A460121FFF788FC054658B301A9424BF8
:1030000018680CF06EFC78B3404DA44605F1200E14
:103010002C460FCCCCF80000CCF80410CCF80820DB
:10302000CCF80C3025460CF1100C7445F0D120681A
:10303000CCF80000A388ACF8043000200EB070BDBE
:103040004FF03F0383F31188BFF36F8FBFF34F8FB0
:1030500001BECDE74FF03F0383F31188BFF36F8FBD
:10306000BFF34F8F01BEC9E70021284610F0DAFAFE
:1030700007EE900AB6EE007AF4EEC77AF1EE10FA97
:103080001FDBB0EE007AF4EEC77AF1EE10FA18D832
:10309000059004F06BFC1C4E01A930680CF02BFC71
:1030A000054630680CF0BAFF04F026F895B905988B
:1030B0000DF04CFC02460B46154920460FF0FAFB7A
:1030C000BBE7144D0FCD20606160A260E3602B88E8
:1030D0002382B2E7104DA44605F120062C460FCC02
:1030E000CCF80000CCF80410CCF80820CCF80C3058
:1030F00025460CF1100CB442F0D12288A378ACF82C
:1031000000208CF8023098E7D02B0008AC63011047
:1031100010660110886501106065011070B52DED15
:10312000028B8EB0034610461C464BB36A46012103
:10313000FFF7EAFB054668B301A94E4B18680CF08F
:10314000D0FB88B34C4DA44605F1200E2C460FCC85
:10315000CCF80000CCF80410CCF80820CCF80C30E7
:1031600025460CF1100C7445F0D12068CCF8000015
:10317000A388ACF8043000200EB0BDEC028B70BD0B
:103180004FF03F0383F31188BFF36F8FBFF34F8F6F
:1031900001BECBE74FF03F0383F31188BFF36F8F7E
:1031A000BFF34F8F01BEC7E70021284610F03AFA5F
:1031B00008EE100ADFED317AB4EEE78AF1EE10FA8C
:1031C00035DBF1EE047AB4EEE78AF1EE10FA2ED890
:1031D000284D28680CF014FF07EE100AC8EE077A95
:1031E000FDEEE77ACDED047A04F0C0FB01A9286872
:1031F0000CF081FB064628680CF010FF03F07CFF02
:1032000028680CF0FDFE07EE100ADDED047AF8EEFA
:10321000E77A67EE277A9EB917EE900A0DF096FBD3
:1032200002460B46164920460FF044FBA3E7154D16
:103230000FCD20606160A260E3602B8823829AE753
:10324000114DA44605F120062C460FCCCCF8000009
:10325000CCF80410CCF80820CCF80C3025460CF142
:10326000100CB442F0D12288A378ACF800208CF87E
:10327000023080E7D02B0008AC630110C3F5283F73
:10328000346601108865011060650110F0B583B0E7
:10329000034610461D468BB101AA0121FFF734FBFE
:1032A0000446A8B1244920460FF067FBD0B123495A
:1032B00020460FF062FB50BB012614E04FF03F03A5
:1032C00083F31188BFF36F8FBFF34F8F01BEE3E726
:1032D0004FF03F0383F31188BFF36F8FBFF34F8F1E
:1032E00001BEDFE70126DEB1134920460FF045FBA2
:1032F000074620B1114920460FF03FFB48B907B1FE
:1033000000260F4B1E730F4B1868286010E0002634
:10331000E9E70D4B0D4A40F26E310D480EF040F8D2
:103320000C4C0FCC28606960AA60EB6023882B826C
:10333000002003B0F0BD00BF746401107C64011074
:10334000902E0008846501109C650110F869011039
:10335000DC65011088650110F0B58FB0034610469A
:103360001D46CBB16A460121FFF7CEFA0446E8B10B
:1033700001A94B4B18680CF0B4FA08BB4949204628
:103380000FF0FBFA00283AD0474920460FF0F5FA33
:1033900000286ED1012633E04FF03F0383F31188FC
:1033A000BFF36F8FBFF34F8F01BEDBE74FF03F03DB
:1033B00083F31188BFF36F8FBFF34F8F01BED7E741
:1033C0003A4CAC4604F12005A646BEE80F00CCF806
:1033D0000000CCF80410CCF80820CCF80C3074466F
:1033E0000CF1100CAE45EFD1DEF80000CCF8000077
:1033F000BEF80430ACF8043000200FB0F0BD012658
:10340000002E43D0274920460FF0B7FA074620B1D7
:10341000254920460FF0B1FA68BB07B100268DF8A8
:10342000316004F0A3FA1E4E01A930680CF063FA73
:10343000044630680CF0F2FD03F05EFE14B31C4E3F
:10344000AC4606F1200534460FCCCCF80000CCF891
:103450000410CCF80820CCF80C3026460CF1100CE7
:10346000AC42F0D12288A378ACF800208CF802306E
:10347000C2E70026C4E70F4B0F4A40F26E310F48F7
:103480000DF08EFF0E4B18682860B5E70D4C0FCC81
:1034900028606960AA60EB6023882B82ACE700BFDC
:1034A000D02B0008746401107C640110AC6301101F
:1034B000606501109C650110F8690110DC65011060
:1034C000846501108865011008B53D4B186080B116
:1034D0003C4C206800230222194640680FF0E0F8B7
:1034E000206800230222194680680FF0D9F80024D2
:1034F00007E001BEECE7344800EB0410FFF772F977
:103500000134082CF7DD0024254607E01B281CD0D9
:103510000D282BD0082842D0312D4ADD0EF09CF822
:10352000002CF3D10D28F9D13222002127480EF0CA
:10353000EBF800221146224B18680CF0CFF9244812
:103540000EF090FF01240025E8E7322200211F48F9
:103550000EF0DAF81F480FF021F800221E49184B30
:1035600018680CF0BBF900242546D7E70A200EF0B6
:1035700091FF1A4E642231461448FFF761F905465F
:10358000314617480EF06EFF002DF2D13222002195
:103590000E480EF0B9F813480EF064FFBEE7002D98
:1035A000BCDD013D6DB2094B20225A550EF072FF71
:1035B000B4E7064B585501356DB20EF06BFFADE721
:1035C000D02B0008BC230008086A0110D42B000887
:1035D00050660110806601108D3A0010082C00081A
:1035E000F0630110B466011008B5024B1B6901209D
:1035F000984708BDA84E000838B50D4614464FF44C
:103600000062014607480BF09FFE20B94FF480533B
:103610002B609C4201D3002038BD082101480BF0EB
:10362000DBFEF8E76C2E000808B500230622012116
:10363000502005F02DF978B90023062201215120F0
:1036400005F026F970B9002306220121522005F069
:103650001FF968B9002008BD08480EF09FFF4FF021
:10366000FF30F8E706480EF099FF4FF0FF30F2E721
:1036700004480EF093FF4FF0FF30ECE7986A01101A
:10368000D06A01100C6B0110F0B587B000230593D0
:1036900000230493344B1B7B002B63D007460E465C
:1036A000314B1B6903F57A738B425BD82E4B1B7A27
:1036B000012B16D0022B1BD01BB12C480EF06EFF35
:1036C00005E00A46284B596829480EF0CBFE3846DB
:1036D0000CF068FC0546314626480EF0C3FE002477
:1036E0001BE00A46204B596823480EF0BBFEEEE76C
:1036F00022480EF0B7FEEAE700230293039302226A
:1037000002A905EBC40000F0D7FC0DF01FF902463A
:103710000B461B480EF0A6FE01341D2CECD90A20E6
:103720000EF0B8FE04AA05A938460CF03DFC059839
:103730000DF00CF902460B460096049911480EF064
:1037400091FE04AA05A938460CF044FC05980DF03A
:10375000FDF802460B46009604990B480EF082FED7
:10376000014B1E6107B0F0BD902E00089C6B01104C
:10377000486B0110D46B0110686B0110886B01104D
:10378000E46B0110E86B0110FC6B011000B585B013
:10379000184919480CF098F8184903A80CF0CCFC0B
:1037A00000B101BE0022164903980CF097F80023DF
:1037B00001930093039B4FF420621249124803F0D7
:1037C0006FFB012800D001BE4FF0FF320121002025
:1037D00004F0F8F9039C04F0D1F802460B492046A6
:1037E0000CF0A8F8039C04F0C9F801462046FFF746
:1037F0004BFFE9E7E1610010B9600010DC6D0110DA
:103800008D3A0010106C0110C9340010A42E00086D
:1038100008B5044B1B689869012100F5B06007F0FA
:103820003FFE08BDBC5A020810B586B000230493C1
:103830000393082202920193FF2300932A23292253
:103840002821364806F03AFD002849D1344C236837
:1038500098690022114600F5207007F06BFE23687E
:1038600098690322002100F5207007F081FE23688B
:1038700098690022022100F5207007F05BFE2368A2
:1038800098690322022100F5207007F071FE254996
:10389000224806F0D5F948BB0123062219464420E8
:1038A00004F0F6FF40BB052006F082FF26230193BB
:1038B0001D4B00934A232B2218491C480BF06CFE29
:1038C00000BB002301931A4B009306234B224FF4B5
:1038D000805116480BF0B6FED0B9002006B010BDDE
:1038E00014480EF05BFE4FF0FF30F7E712480EF081
:1038F00055FE4FF0FF30F1E710480EF04FFE4FF04D
:10390000FF30EBE70E480EF049FE4FF0FF30E5E7E1
:103910000C480EF043FE4FF0FF30DFE7C44E0008C6
:10392000BC5A020840787D01106E01106C2E000810
:10393000E93500101C6C0110406C01106C6C01101A
:10394000986C0110C86C011000B585B0434B009312
:10395000002301224FF47A71414804F06BFB414A85
:103960001060002830D03F4B1C6804F007F8024676
:10397000002300930121204604F078FB012800D0A9
:1039800001BE394B01930523009300234FF40072CD
:103990003649374803F084FA012800D001BEFFF70A
:1039A00043FF00B101BEFFF73FFE00B101BE314B46
:1039B0005B68314A10689847012130480BF07AFD66
:1039C000002838D001BE36E001BECCE732F8020B49
:1039D00007EE900AF8EE677A9FED297A67EE877A0C
:1039E000E3EC017A0131B1F5006FEFDB214BDB68CD
:1039F0000120984780222349002000F07BFF00240B
:103A000008E02048802302461F4901EB442100F0D2
:103A100083FA01340F2CF4DD1A48802302464FF05C
:103A2000765100F01BFB0021009102230A460E484C
:103A3000006804F01BF94FF0FF320121002004F070
:103A4000C1F8002402940B4B9B6803AA02A9012031
:103A50009847029A21460C4BC5E700BF1138001069
:103A6000006D0110344F0008C04E0008086D0110B1
:103A70008D370010A84E0008A44E00086C2E0008D8
:103A8000000080396C2C0008A42E000838B50C46C4
:103A90002A4B1B7BFBB90B7A012B22D0022B37D090
:103AA0001BB127480EF07AFD15E0264D2B6898696A
:103AB0000122002100F5A06007F0DCFC2B6898696A
:103AC0000022012100F5A06007F0D4FC22686168A3
:103AD0001D480EF0C7FC194B94E8070083E8070067
:103AE00038BD184D2B6898690122002100F5A060AF
:103AF00007F0C0FC2B6898690022012100F5A06046
:103B000007F0B8FC2268616810480EF0ABFCE2E7F1
:103B100009680F480EF0A6FC0A4D2B689869002230
:103B2000114600F5A06007F0A5FC2B6898690122FA
:103B3000114600F5A06007F09DFCCCE7902E000830
:103B40009C6B0110BC5A0208486B0110686B011095
:103B5000886B011000B583B0FEF7FAFD00B101BE1D
:103B600062B64FF4E1330093FF231A462C212D2037
:103B70000BF006FA012306221946592004F088FEAC
:103B80001548164B03604FF480524FF4405100F03B
:103B900055F91349134800F04BF913480EF062FC35
:103BA00012480EF0FBFC12480EF0F8FC114B01938A
:103BB0000623009300234FF400720F490F4803F0CF
:103BC0006FF9012800D001BE03F09EF901BE00206C
:103BD00003B05DF804FB00BFA84E0008F9350010E3
:103BE000E1610010B9600010186D0110246D011022
:103BF000906D0110A44E0008D06D011049390010DD
:103C0000002838D010B404460123042B0AD81846E3
:103C1000DA1C1D4901EBC2029268A24228D001338E
:103C2000DBB2F2E7184B93F818C0BCF1040F25D0B3
:103C30001B6833B3012301E00133DBB2042B15D839
:103C40001846DA1C104901EBC2029268A2420FD05A
:103C5000002AF1D10A46033301EBC3030021197195
:103C60009C600CF1010C82F818C001E06FF00100BB
:103C70005DF8044B70474FF0FF3070476FF0010064
:103C8000F6E76FF00100F3E7384F0008431E032BFF
:103C90000BD8064B1B7E43B1044A033002EBC00035
:103CA000002101718160013B13767047384F000895
:103CB000431E032B16D810B40F4B9C685B699C42C3
:103CC00013D303300C4B03EBC000836883B10A4B62
:103CD0001868DC68204408605B69136000205DF8A8
:103CE000044B70474FF0FF3070476FF00100F6E76C
:103CF0006FF00100F3E700BF384F0008431E032BAD
:103D000005D80330024B03EBC00001230371704759
:103D1000384F000830B585B00546434A13695268EC
:103D2000934217D2414909680C683F490868D21A82
:103D300003A91844A04700280CDB3B4B5A681B69B9
:103D4000D21A03998A4205D30B44374A1361D168CA
:103D50005B1A9360344B9A685B699A422BD2324B60
:103D600019695A68914252D005B030BD00210091C6
:103D700002230A4603F07AFF0134042C1DDCE31C05
:103D8000294A02EBC30398680028F5D0002DEDD036
:103D90000021029102AA04F00FF8029B002BEBD045
:103DA0004FF0E0234FF08052C3F8042DBFF34F8F44
:103DB000BFF36F8FE0E70124DFE70123184600E03F
:103DC0000133042B0EDCDA1C174901EBC2029268A6
:103DD000002AF5D0DA1C01EBC2021279002AEFD1D9
:103DE0001046EDE70028BAD00F4B5969DA68114444
:103DF000D9600029B3D01C461D696D1A18682A467F
:103E000001440DF073FC25610023E360A7E7DB6844
:103E10009942A9D1044B00211961D96099601868B1
:103E20000DF072FCA0E700BF384F0008844F000877
:103E3000014B586499647047384F0008F8B5254B1A
:103E40001B68002B33D104460D461646002831D09E
:103E5000002932D0002A33D0914234D31D4B5B6C01
:103E600013B11C4B9B6C23B91A4B1B4A5A641B4A57
:103E70009A64184F7B6C28469847386030B32A46BE
:103E800000210DF041FC7E617D600020B860387635
:103E9000F8603861124B6360124B6361124B23610F
:103EA000124BA360124BE360124B1C60F8BD6FF025
:103EB0000100FBE74FF0FF30F8E74FF0FF30F5E788
:103EC0004FF0FF30F2E74FF0FF30EFE76FF0010007
:103ED000ECE700BF384F0008CD160110DD160110C9
:103EE000013C00108D3C0010153D0010B13C00104D
:103EF000FD3C0010844F00080230800803D00130E0
:103F00000238FCD100BF00BF7047EFF3108072B6DB
:103F1000704780F31088704710B49C0823E0D0ED00
:103F2000007A91ED007A77EE877AC2ED007AD0EDD3
:103F3000017A91ED017A77EE877AC2ED017AD0EDC0
:103F4000027A91ED027A77EE877AC2ED027AD0EDAD
:103F5000037A91ED037A77EE877AC2ED037A013C1A
:103F6000103210311030002CD9D103F0030308E0D7
:103F7000F0EC017AB1EC017A77EE877AE2EC017A23
:103F8000013B002BF4D15DF8044B704710B49C0842
:103F900023E0D0ED007A91ED007A67EE877AC2EDEA
:103FA000007AD0ED017A91ED017A67EE877AC2ED61
:103FB000017AD0ED027A91ED027A67EE877AC2ED4E
:103FC000027AD0ED037A91ED037A67EE877AC2ED3B
:103FD000037A013C103210311030002CD9D103F09B
:103FE000030308E0F0EC017AB1EC017A67EE877A1E
:103FF000E2EC017A013B002BF4D15DF8044B7047F1
:1040000007EE901A99081AE090ED007A37EE277AB9
:1040100082ED007A90ED017A37EE277A82ED017A0F
:1040200090ED027A37EE277A82ED027A90ED037AEC
:1040300037EE277A82ED037A0139103210300029E9
:10404000E2D103F0030306E0B0EC017A37EE277A01
:10405000A2EC017A013B002BF6D1704707EE901AD3
:1040600099081AE0D0ED005A65EEA75A90ED016A62
:1040700026EE276AD0ED026A66EEA76A90ED037A13
:1040800027EE277AC2ED005A82ED016AC2ED026A7C
:1040900082ED037A0139103210300029E2D103F0A9
:1040A000030306E0B0EC017A27EE277AA2EC017A4E
:1040B000013B002BF6D170479FED0E7A0AE0F0EC41
:1040C000017AF1EC016A77EEE67A67EEA77A37EECD
:1040D000277A013A002AF2D1B5EEC07AF1EE10FA51
:1040E00005DB08B517EE100A0CF0F0F908BD00204A
:1040F000704700BF0000000007EE900A9FED237A92
:1041000067EE877AB5EE007A77EE877ABDEEE77ACA
:10411000F5EEC07AF1EE10FA31D4B8EEC77A77EE48
:10412000C77A9FED1B7A67EE877ABCEEE77A17EEC7
:10413000103A9BB2B3F5007F04D39FED157A77EE6A
:10414000C77A002307EE103AB8EE477A77EEC77ABF
:10415000104A02EB830191ED006A013302EB830305
:10416000D3ED006AB7EE007A37EE677A27EE067A6B
:1041700067EEA67A77EE277A17EE900A704717EE69
:10418000103A013B07EE103AC7E700BF83F9223E21
:1041900000000044B87001102DE9F04F83B00746CD
:1041A0000C469046866842680092B0F80290027809
:1041B000B3FBF2F3019309F18040013806EB800074
:1041C0004FEA930BB646BA465F46CB469DE091ED6B
:1041D000007A92ED004A95ED005A9CED006AD3ED0D
:1041E000003A27EE044A74EE244A27EE055A75EE8B
:1041F000255A27EE066A76EE266A27EE237A77EEB0
:10420000277A91ED016A92ED014A95ED015A9CEDF4
:10421000017AD3ED013A26EE044A74EE244A26EEE2
:10422000055A75EE255A26EE077A77EE266A26EEAF
:10423000236A76EE277A91ED026A92ED024A95EDB5
:10424000025A9CED027AD3ED023A26EE044A34EE8D
:10425000244A26EE055A35EE255A26EE077A37EE21
:10426000267A26EE236A36EE276AD1ED037AD2ED5E
:10427000034AD5ED035ADCED036AD3ED033A67EE4A
:10428000A44A74EE844A67EEA55A75EE855A67EE25
:10429000A66A76EE876A67EEA37A77EE867A013EA3
:1042A00010330CF1100C103510311032002E8ED15D
:1042B0000BF003061AE0B1EC017AB2EC014AB5EC5E
:1042C000015ABCEC016AF3EC013A27EE044A74EEA1
:1042D000844A27EE055A75EE855A27EE066A76EE71
:1042E000866A27EE237A77EE877A013E002EE2D1A6
:1042F0000EEB091EC8ED004AC8ED015AC8ED026A6E
:10430000C8ED037A013F08F1100807B39AF80020BE
:10431000920001460430236804340B60013AF8D15E
:104320009AF800900EEB89050EEBC90C09EB4903D6
:104330000EEB83034FEA9B0600997246DFED3B7A52
:10434000F0EE676AF0EE675AF0EE674AAEE7D946DC
:1043500076465746019B03F0030138E092ED007A60
:10436000D3ED006A27EE267A77EE277A92ED017A6E
:10437000D3ED016A27EE267A37EE277AD2ED027A5C
:10438000D3ED026A67EEA67A37EE877AD2ED037A2A
:10439000D3ED036A67EEA67A77EE877A013D103295
:1043A0001033002DDAD109F0030508E0B2EC017AF0
:1043B000F3EC016A27EE267A77EE877A013D002D2D
:1043C000F4D13B7806EB8306E8EC017A013971B150
:1043D0003A7805460430236804342B60013AF8D15A
:1043E0004FEA9905009A3346DFED107AD9E7BB68AA
:1043F00009F1FF3291080AE030681860706858606F
:10440000B0689860F068D860013910331036002920
:10441000F2D102F0030204E056F8041B43F8041B37
:10442000013A002AF8D103B0BDE8F08F0000000087
:1044300070B504461546049E059AB2FBF5F005FBDF
:10444000102060B961806360114401398A00002145
:1044500030460DF059F9A6602570002070BD6FF050
:104460000100FBE72DE9F0432DED028B8646144653
:104470004068DEF80860BEF8005005F1804C0CF191
:10448000FF3C00EB8C0CDF0873E19CED007A91EDB2
:10449000006A65EE878A78EEA68A65EE076A36EED0
:1044A000888A64EE876A36EE800A64EE076A76EEE2
:1044B000A00A63EE876A36EE811A63EE076A76EE2B
:1044C000A11A62EE876A36EE822A27EE067A77EE26
:1044D000277ADCED016AD1ED015A25EE265A75EEF8
:1044E000288A24EEA67A37EE088A24EE267A37EE5A
:1044F000000A23EEA67A77EE200A23EE267A37EE1C
:10450000011A22EEA67A77EE211A26EE267A37EEE7
:10451000022A26EEA57A37EE277ADCED026A91EDC3
:10452000025A64EEA64A74EEA88A64EE267A37EE42
:10453000888A63EEA67A37EE800A63EE267A77EEF3
:10454000A00A62EEA67A37EE811A66EE267A77EE38
:10455000A11A65EEA67A37EE822A66EE856A36EEF5
:10456000877ADCED037AD1ED034A64EE276A76EEB2
:10457000A86A23EEA74A34EE088A23EE274A34EECF
:10458000000A22EEA74A74EE200A26EE274A34EEED
:10459000011A25EEA74A74EE211A25EE274A34EEB9
:1045A000022A67EEA47A77EE877A9CED047A91ED81
:1045B000044A63EE873A73EEA66A63EE073A33EE77
:1045C000888A62EE873A33EE800A66EE073A73EE27
:1045D000A00A65EE873A33EE811A65EE073A73EE6C
:1045E000A11A64EE873A33EE822A27EE047A37EE78
:1045F000277ADCED057AD1ED053A23EE273A73EE02
:10460000266A22EEA73A33EE088A26EE273A33EEE0
:10461000000A25EEA73A73EE200A25EE273A33EE7C
:10462000011A24EEA73A73EE211A24EE273A33EE4C
:10463000022A67EEA37A37EE877ADCED067A91EDEF
:10464000063A62EEA72A72EEA66A66EE272A32EED4
:10465000888A65EEA72A32EE800A65EE272A72EE76
:10466000A00A64EEA72A32EE811A64EE272A72EEBF
:10467000A11A63EEA72A32EE822A67EE837A77EEDA
:10468000877A9CED077AD1ED072A26EE076A76EE47
:10469000266A25EE876A36EE088A25EE076A36EE28
:1046A000000A24EE876A76EE200A24EE076A36EEC8
:1046B000011A23EE876A76EE211A23EE076A36EE98
:1046C000022A27EE227A77EE277A013A0CF1200CA3
:1046D0002031002A7FF4D9AE05F0070232E0BCECAD
:1046E000016AB1EC017A65EE865A76EEA56A65EE4E
:1046F000065A38EE258A64EE865A30EE250A64EEB4
:10470000065A70EEA50A63EE865A31EE251A63EE5C
:10471000065A71EEA51A62EE865A32EE252A26EE68
:10472000076A77EE867A013AF0EE455AB0EE645A9F
:10473000F0EE444AB0EE634AF0EE433AB0EE623A2D
:10474000F0EE472A002ACAD12030C4ED006A84ED79
:10475000018A84ED020AC4ED030A84ED041AC4ED53
:10476000051A84ED062AC4ED077A013FCC462034B1
:104770004146002F3ED00A68CCF800204A68CCF8A9
:1047800004208A68CCF80820CA68CCF80C200A6992
:10479000CCF810204A69CCF814208A69CCF818208B
:1047A00001F120080CF12009CA69CCF81C20D0EDD9
:1047B000005A90ED015AD0ED024A90ED034AD0ED37
:1047C000043A90ED053A00F11C01D0ED062AEA0802
:1047D000B446DFED287AB0EE672AF0EE671AB0EE45
:1047E000671AF0EE670AB0EE670AB0EE678AF0EE7D
:1047F000676A6EE703F007070FE0F3EC017AF1EC6C
:10480000016A67EEA67A37EE277A013A002AF4D1D8
:10481000A4EC017A0430013F414657B1884658F86C
:10482000043B4CF8043B2A46314603469FED117A7F
:10483000ECE7DEF804306A1E91080AE004681C60A8
:1048400044685C6084689C60C468DC600139103333
:1048500010300029F2D102F0030204E050F8041BEA
:1048600043F8041B013A002AF8D1BDEC028BBDE8E5
:10487000F08300BF0000000038B504461D460180EB
:104880008260049A11444A1E9200002118460CF0DE
:104890003BFF656038BD00008B08DFED157A11E045
:1048A00090ED007A77EE877A90ED017A77EE877A4D
:1048B00090ED027A77EE877A90ED037A77EE877A39
:1048C000013B1030002BEBD101F0030304E0B0EC0E
:1048D000017A77EE877A013B002BF8D107EE101AA8
:1048E000B8EE477AC7EE876AC2ED006A704700BF2C
:1048F00000000000930805E0086048608860C86018
:10490000013B1031002BF7D102F0030202E041F825
:10491000040B013A002AFAD1704730B54FF0000E6F
:104920001DE032F81EC04FEA9C0C0EF1010332F874
:1049300013309B0850F82C4050F8235040F82C506E
:1049400040F823400CF1010C50F82C40013350F892
:10495000235040F82C5040F823400EF1020E7145D0
:10496000DFD830BD2DE9F0412DED028B90B0064629
:104970000846358801EB850774684FEA550801EB56
:10498000880E07EB880CED083A460B46CFE093ED16
:10499000005A8DED0C5A93ED016A8DED0D6A93ED81
:1049A000021A8DED0E1A93ED037A8DED0F7A92EDCA
:1049B000000A8DED080AD2ED010ACDED090A92ED4B
:1049C000023A8DED0A3AD2ED031ACDED0B1A9EEDA7
:1049D000002A8DED042ADEED012ACDED052A9EED9B
:1049E000024A8DED064ADEED034ACDED074ADCEDC5
:1049F000005ACDED005ADCED016ACDED016ADCED27
:104A0000023ACDED023ADCED037ACDED037A35EED4
:104A1000008A83ED008A36EE208A83ED018A31EE2A
:104A2000038A83ED028A37EE218A83ED038A35EE0D
:104A3000405A8DED085A36EE606A8DED096A31EE06
:104A4000433A8DED0A3A37EE617A8DED0B7A72EECC
:104A5000251ACEED001A72EEA61ACEED011A74EEEA
:104A6000231ACEED021A74EEA71ACEED031A75EED4
:104A7000C25ACDED005A76EEE26ACDED016A73EED0
:104A8000C42ACDED022A77EEE47ACDED037AD4ED97
:104A9000004A94ED014A65EE243A26EE042A26EEF9
:104AA000246A25EE045A73EE823AC2ED003A36EEDD
:104AB000456A82ED016A25EE846A26EEA45A66EE06
:104AC000846A65EEA45A36EE456A8CED006A76EE8D
:104AD000A56ACCED016A94ED026AD4ED035A23EE87
:104AE000065A67EE254A27EE067A63EE256A35EE0A
:104AF000245A82ED025A37EE667A82ED037A62EE2C
:104B0000A56A27EE865A67EEA57A22EE867A76EEB9
:104B1000C56ACCED026A77EE877ACCED037A013D67
:104B2000103410320CF1100C0EF1100E1033002D59
:104B30007FF42DAF1FFA88F802237268414600F017
:104B4000F7FA022372684146384600F0F1FA10B0D5
:104B5000BDEC028BBDE8F0812DE9F04F2DED048B0B
:104B600095B0054606900C46079103885B0801EB5B
:104B70008302039201EBC3010E46049101EB830013
:104B80000590171FA0F1040C0CEB83016D685B0806
:104B90000293234694ED007A3446A6F10408D6ED3C
:104BA000007A37EE272A37EE677AD3ED017AD6ED11
:104BB000016A77EEA62A77EEE67A92ED013A73EE75
:104BC000073AD0ED016A73EEE63ACDED103AD2ED38
:104BD000005A37EEE54A90ED006A34EE064A8DED54
:104BE000114A72EE654A74EEC64ACDED0C4A32EEB9
:104BF000C35A35EE665A8DED0D5A37EE437A36EECE
:104C0000877A8DED087A75EEA77A77EEC67ACDEDC4
:104C1000097A75EE825A36EE256A9E461E46083699
:104C200083ED006AD2ED016A76EEA26A034690ED4A
:104C3000016A76EE866ACEED016A10460832C0ED52
:104C4000003A80ED014A20460830C4ED004A84ED68
:104C5000015A1C46083384ED007AC4ED017A05F14F
:104C6000080A05F1100405F1180E029DA5F1020BCA
:104C70004FEA5B0B22E1D6ED006AD0ED007A76EECA
:104C8000A73A76EEE76A96ED017AD0ED017A37EE33
:104C9000274A37EE677AD2ED017A37EEA62A93EDEE
:104CA000013A32EE432A8DED102AD2ED004A77EE1A
:104CB000645A93ED006A75EE865ACDED115A73EE83
:104CC000E42A72EEC62ACDED0C2A34EE675A35EE90
:104CD000435A8DED0D5A76EEE76A33EE263A8DEDA6
:104CE000083A34EE877A77EE467ACDED097A74EE9B
:104CF000A34A36EE246A3546083586ED006A0195EA
:104D000092ED017A37EE047AD3ED016A37EE267A16
:104D100086ED017A57ED016A1CED017A76EE878AFD
:104D200076EEC76A97ED007A9CED000A77EE001ADE
:104D300037EE400AD8ED000A91ED001A30EEC19A24
:104D400039EE264A8DED124A18ED018A70EE483A86
:104D500011ED017A73EE873ACDED133A78EEC84A39
:104D600074EEC74ACDED0E4A31EEE06A36EE416A86
:104D70008DED0F6A79EE666ACDED0A6A37EE487AF4
:104D800037EE407A8DED0B7A70EEA10A31EE201AE3
:104D9000A7F1080587ED001A58ED011A71EEA81A5F
:104DA00011ED011A71EE811A47ED011A0AF1080995
:104DB000DAED001A9AED011A62EE210A25EE810A57
:104DC00065EEA15A22EE012A70EE800A02F1080A6D
:104DD000C2ED000A75EEC25AC2ED015A63EE815A65
:104DE00024EE212A24EE014A63EEA13A75EEC25A5E
:104DF000A8F10806C8ED005A34EE234A08ED014A2E
:104E000094ED004AD4ED015A103462EE843A25EE56
:104E1000252A25EE045A62EEA52A73EE823A02464E
:104E20000832C0ED003A35EE625A80ED015A26EEA6
:104E3000445A64EEA53A64EE844A26EE256A75EE7D
:104E4000635AACF10807CCED005A36EE646A0CEDFB
:104E5000016A9EED006ADEED015A0EF1180E23EE96
:104E6000065A67EEA54A67EE867A23EE253A35EEB6
:104E7000245A1846083083ED005A77EEC37AC3ED02
:104E8000017A67EE257A26EE865A66EEA56A27EE47
:104E9000067A77EEC57AA1F1080CC1ED007A36EEFC
:104EA000877A01ED017A0BF1FF3B0346104652462B
:104EB000CA466146BC46B0462F46019EBBF1000F74
:104EC0007FF4D9AE96ED004AD0ED004A34EE242AA4
:104ED00034EE644A96ED015AD0ED017A75EE272A38
:104EE00035EE675AD2ED017A77EE845AD3ED014A56
:104EF00075EEE45ACDED105A92ED003A75EE436A24
:104F0000D3ED003A76EEA36ACDED116A32EE436A34
:104F100036EE636A8DED0C6A32EEE77A37EE647A2C
:104F20008DED0D7A34EE674A74EE844ACDED084A71
:104F300033EE055A75EE637ACDED097A33EE023A17
:104F400073EE833AC6ED003A92ED015A35EE225ADD
:104F500093ED014A35EE045A86ED015ADAED003A36
:104F60009AED014A25EEA35A26EE843A66EEA36A2C
:104F700065EE845A35EE035A82ED005A76EEE56A04
:104F8000C2ED016A94ED005AD4ED015A66EE056A4D
:104F900027EE254A27EE057A26EE256A76EE846A04
:104FA000C0ED006A37EE467A80ED017A9EED006A28
:104FB000DEED016A24EE867A67EEA65A67EE867AFF
:104FC00064EEA64A37EE257A83ED007A77EEE47A2E
:104FD000C3ED017ABDF808400423069D6A682146A6
:104FE000079800F0A5F804236A682146039800F0AA
:104FF0009FF804236A682146049800F099F8042376
:105000006A682146059800F093F815B0BDEC048B52
:10501000BDE8F08F2DE9F04106460C46174698464C
:105020000588012A0FD0B5F5807F21D025D8402DE5
:105030002AD019D9802D34D0B8F1000F36D1012FE4
:105040003AD0BDE8F08101F1040C002109E0DCED6B
:10505000007AF1EE677A63460CF1080CC3ED007A32
:105060000131A942F3D3DEE7102D1AD0202DE3D170
:1050700021463046FFF770FDDEE7B5F5006FF7D04B
:1050800009D9B5F5805FD7D101237268294620463A
:1050900000F04EF8D0E7B5F5007FF5D0B5F5806F9C
:1050A000CAD121463046FFF75DFCC5E7B268B18939
:1050B0002046FFF732FCC2E707EE905AF8EE677A17
:1050C000F7EE006A86EEA77A00230DE0D4ED007AB1
:1050D00067EE877AC4ED007AD4ED017A67EEC77A7D
:1050E000C4ED017A08340133AB42EFD3A9E70000E5
:1050F00001800023436040290AD0802911D10A4B46
:105100009A8982819A6882605B6843600020704758
:10511000064B9A8982819A6882605B6843600020AE
:1051200070474FF0FF307047BC800110CC800110F9
:105130002DE9F04F2DED0E8B8DB081460791089231
:105140000B930691069B4FEAD30A4FF0000E0EEB2D
:105150000A010EEB4A030AEB030503EB4A020AEBD2
:10516000020602EB4A070AEB070B4FEACE0809EBEF
:10517000CE0090ED007A4FEAC20C09EBC202D2EDEC
:10518000007A77EE276A37EE677ACC00019409EB54
:10519000C1010291D1ED005AF10009EBC606039658
:1051A000D6ED007A35EEA76A75EEE75ADE0009EB18
:1051B000C30393ED005AFC00049409EBC707D7ED35
:1051C000007A75EE274A75EE677AEC00059409EBD4
:1051D000C5050995D5ED003A4FEACB040A9409EBD1
:1051E000CB0B9BED004A33EE845A73EEC43A76EE55
:1051F000E40A76EEA46A36EE451A36EE056A36EE15
:10520000865A80ED005A76EEC66AC2ED006A08F151
:105210000408C84498ED006A0CF1040CCC44DCEDA1
:10522000006A36EE265A76EE664A019C04344C44F7
:1052300094ED006A04314944D1ED006A36EE263A15
:1052400036EE666A04364E4496ED004A049A151D01
:105250004D44D5ED006A34EE262A34EE664A059AAE
:1052600004324A44D2ED006A0A9804304844D0ED32
:10527000002A76EEA21A76EEE26A75EE422A35EE42
:10528000025A33EE612A33EE213A75EE031AC8ED65
:10529000001A35EE435A8CED005A30EE825A83EDF7
:1052A000005A30EEC23A87ED003A32EEC15A86ED2E
:1052B000005A31EE225A85ED005A35EEE35ADFED01
:1052C000F12A25EE225A75EEA35A65EEA25A36EE61
:1052D000663A23EE223A76EE266A66EEA26A77EE08
:1052E000453A37EE057A37EEE55A77EEA57A74EE51
:1052F000C35A34EE836A74EE664A74EE266A37EE59
:10530000264A029B83ED004A37EE667A8BED007ADF
:1053100033EEA47A039E86ED007A73EEE43A099D9B
:10532000C5ED003A36EE677A84ED007A77EE867A3C
:10533000C0ED007A75EEC57AC1ED007A35EE255ADA
:1053400082ED005A069B9E44079B73453FF6FFAED5
:10535000BAF1070F40F2BA8101230A93002309939F
:10536000D046099C0B9B1C4404EB440204EB8403D1
:10537000E71803EB4406E500089800EBC401D1ED03
:10538000008A21462401099100EB011191ED008A68
:105390004FEAC20C00EBC20292ED000A09984101EB
:1053A000089A02EB4012D2ED000ADA00089800EBEE
:1053B000C30393ED001AFB0000EBC707D7ED001AFB
:1053C000F70000EBC60696ED002A043506460544B4
:1053D000D5ED002A0434044494ED003A0CF10400A5
:1053E0003044D0ED003A0431314491ED004A0432AA
:1053F0003244D2ED004A0433334493ED005A04376B
:105400003744D7ED005A0A9B9A460AEB08000AEB8C
:10541000480308EB030403EB480208EB020602EB27
:10542000480108EB010B4FEACA0E09EBCA0595EDDE
:10543000009A4FEAC20C09EBC202D2ED007A79EE73
:10544000276A39EE67AAC700019709EBC0000290EE
:1054500090ED006AF00009EBC6060396D6ED007ADF
:1054600036EE277A36EE67CADF0009EBC30393ED09
:10547000006ACE0009EBC1010491D1ED007A76EE0D
:10548000279A76EE677AE10009EBC4040594D4ED1F
:1054900000AA4FEACB0409EBCB0B9BED006A3AEE76
:1054A000869A3AEEC66A36EEE9DA76EEA96A37EE01
:1054B00049EA37EE097A36EE879A85ED009A76EE5C
:1054C000C7EA0EF1040ECE449EED00BA0CF1040CB6
:1054D000CC44DCED006A3BEE267A3BEE66BA019DD9
:1054E00004354D44D5ED00BA04304844D0ED006A8F
:1054F0007BEEA6CA7BEEE6BA04374F44D7ED00AA8E
:1055000004364E44D6ED006A7AEEA69A7AEEE6AA02
:105510000431494491ED009A04344C44D4ED006ABE
:1055200079EE26DA79EE666A37EE699A37EE297AED
:105530007CEEED9A7CEEADCA7DEE29DA3DEE69DABD
:1055400077EE2C9ACEED009A37EE6C7A79EE4E9A81
:105550003EEE099A60EEAECA24EE07EA20EE877AA4
:1055600064EE2EEA7CEE8ECAC2ED00CA37EE6E7A89
:105570008CED007A28EE2D7A63EE29CA68EE299A1E
:1055800063EE2DDA37EE2C7A83ED007A79EEED9A20
:10559000C7ED009A21EE8D7A65EE099A21EE899A7F
:1055A00025EE0DDA37EE297A049A82ED007A39EE8B
:1055B0004D9A86ED009A3CEE469A9FED327A29EE9E
:1055C000079A3CEE066A26EE076A3BEEE6CA2CEE28
:1055D00007CA7BEEA66A66EE876A7AEE499A3AEEC9
:1055E000099A77EEC6BA77EE867A7BEE4CCA3BEE26
:1055F0000C6A3AEEE6AA7AEEA66A39EE26BA39EED7
:10560000667A79EE8AAA79EECA9A76EE676A77EEBA
:10561000867A3CEEEBAA3BEEAC9A28EE8B6A62EE01
:10562000A6BA68EEA66A22EE8BBA36EE2B6A029B09
:1056300083ED006A76EECB6AC5ED006A62EE076A1A
:1056400025EEA7BA62EE277A25EE876A36EE8B7AC8
:105650008BED007A77EEC67AC4ED007A61EE2A7A95
:1056600024EE8A6A21EE0A7A64EEAA6A77EE867AD6
:10567000039EC6ED007A37EE667A80ED007A60EE22
:10568000296A01E0F304353F23EE896A60EE097A66
:1056900023EEA97A76EE866A059CC4ED006A77EE61
:1056A000C77AC1ED007A069B9A44079B53453FF6A3
:1056B000ACAE0A9B01330A9398453FF652AE0B9B62
:1056C000DB009BB20B93CDF818803BE50DB0BDEC31
:1056D0000E8BBDE8F08F00BF00B54369B0F800C085
:1056E0000CF1FF3CD1ED007A91ED017A03F1080055
:1056F00077EEA77A37EE077A77EE876AB6EE006A1A
:1057000066EE866A13460833C2ED006A77EEC77A02
:1057100067EE867AC2ED017A01EBCC0E08319EED80
:10572000015A7246AEF1080E92ED007AD1ED004AB0
:10573000D1ED017AD0ED006AD0ED015A083037EE94
:10574000646A35EE274A66EE863A25EE866A66EE8C
:10575000846A65EE845A37EE247A37EE237A37EE80
:10576000257AF6EE005A27EE257A83ED007A77EE59
:10577000C57A77EE867A77EEE67A1A46083367EED0
:10578000A57AC2ED017A08310CF1FF3CBCF1000FA3
:10579000C5DC5DF804FB10B5436900880138D1ED24
:1057A000007A91ED016A03F1080E37EE867AF6EE83
:1057B000006A27EE267A02F1080C82ED007A77EE75
:1057C000C67A67EEA67AC2ED017A01EBC004083111
:1057D00037E094ED015A2346083C93ED007AD1ED71
:1057E000005AD1ED017A72460832DEED006A9EED74
:1057F000016A35EEC74A75EE274A26EE843A66EE10
:10580000243A26EE046A66EEA46A37EE257A37EE6D
:10581000437A37EE637AF6EE005A27EE257A63462E
:1058200008338CED007A77EEC57A77EE867A77EEDC
:10583000E67A67EEA57ACCED017A08310138964612
:105840009C460028C5DC10BDF8B504460D4616463A
:105850001F4643B1FFF79FFF01233A4631462046DA
:10586000FFF7D8FBF8BD01233A46FFF7D3FB3246DA
:1058700029462046FFF730FFF4E7000050B110B58D
:1058800004464021FFF734FC18B980232382034BE0
:10589000636110BD4FF0FF30704700BFBC7E011048
:1058A000802903D108B5FFF7E9FF08BD4FF0FF30AD
:1058B0007047B0F1FF3F22D008B338B5C50E4301A1
:1058C0001B1A65F10005AD0045EA93759B00181899
:1058D00045F10005ED0045EA5075C4004FF47A72B9
:1058E0000023204629460BF0B1FB6FF47A73A342E4
:1058F00040F2E733AB4101D26FF0010038BD704791
:10590000034B0360034B0B6080231360704700BFA1
:10591000A0530008A04F0008034B0360034B0B602B
:1059200080231360704700BF70540008A051000826
:1059300030B583B00546002301931C4B1B68C3B1EF
:105940001A4B1B689BB1FEF7E0FA044601F0AAFE71
:1059500050B14FF47A7005FB00F01549A1FB0031FE
:105960008D09B0F57A7F0ED22046FEF7D2FA03B049
:1059700030BD104803F0C6FC18B90C4B0D4A1A6034
:10598000DEE701BEDCE7012301AA294607480068DB
:1059900004F09AFE0028E7D1019BAB4200D901BE7A
:1059A0000198FFF786FF01F00BFBDDE7884F000849
:1059B000D34D62108C4F000880B110B504460171C0
:1059C00031B1042001F039F8206028B1002010BD69
:1059D000012001F032F8F7E70148F8E70148704785
:1059E00001000E0605000E0698B110B504460846E3
:1059F000FFF75FFF014623792BB1206801F029F9F9
:105A000028B1002010BD206801F052F8F8E70248E4
:105A1000F8E70248704700BF00000E0605000E06BA
:105A200088B108B503792BB1006801F020F840B1C6
:105A3000002008BD00231A461946006800F02CFF1C
:105A4000F5E70248F5E70248704700BF02000E067E
:105A500005000E0608B5FFF72CFF01F0C9FB00207A
:105A600008BDEFF3058303B100BE704708B5074BCF
:105A70001B7813B1054B187808BD01F03DFE0138C5
:105A800018BF0120014B1870F4E700BF90560008C2
:105A900010B5FFF7E6FF00F04DF90024032C0BDCF6
:105AA000104B53F8243013B1013424B2F6E70D4BF8
:105AB000012143F8241001E04FF0FF3400F05CF9BD
:105AC000002C0BDB04EB8401074B03EB01110420DA
:105AD00000F0BEFF034B43F8240010BD00BE0020C1
:105AE000FBE700BF405500085055000810B50446BC
:105AF000FFF7B7FFFFF7BAFF30B142F2107120464F
:105B000001F0A7F80128F8D110BD10B50446FFF741
:105B1000A8FFFFF7ABFF00B910BD204600F0A7FFBC
:105B2000FAE7000008B5FFF7B3FF074B1860FFF76F
:105B3000AFFF064B1860FFF7ABFF054B1860FFF790
:105B4000A7FF044B186008BD9C5600089856000833
:105B500094560008A056000808B50346084A106885
:105B6000084A121A9A4203DB0344054A136008BD2F
:105B70000BF034FC0C2303604FF0FF30F7E700BF5D
:105B80002023000800E80F0808B5024B1868FFF74B
:105B9000ADFF08BD9C56000808B5024B1868FFF71A
:105BA000B4FF08BD9C56000800F1080343604FF0A5
:105BB000FF328260C36003610023036070470023EB
:105BC0000361704743684B609A688A6051609960CE
:105BD00008610368013303607047036941688268A4
:105BE0008A60416851605A68824206D00022026190
:105BF0001A68013A1A601868704782685A60F5E7B7
:105C000030B40D68B5F1FF3F11D000F108031C4618
:105C10005B681A68AA42FAD963684B6099608C6025
:105C20006160086103680133036030BC7047046938
:105C3000F2E7000082B0002301930D4B1B68B3F123
:105C4000FF3F08D04FF03F0383F31188BFF36F8FFE
:105C5000BFF34F8F01BE4FF03F0383F31188BFF3B3
:105C60006F8FBFF34F8F019B002BFCD002B07047AA
:105C70002423000808480068006880F308884FF073
:105C8000000080F3148862B661B6BFF34F8FBFF394
:105C90006F8F00DF00BF000008ED00E0DFF80C00B0
:105CA000016841F4700101607047000088ED00E078
:105CB00008B54FF03F0383F31188BFF36F8FBFF335
:105CC0004F8F01F097F928B14FF0E0234FF0805249
:105CD000C3F8042D002383F3118808BD4FF08073AF
:105CE00040F8043C21F0010140F8081C054B40F845
:105CF0000C3C40F8202C6FF0020340F8243C443860
:105D0000704700BF355C001000000000000000007C
:105D1000074B19680868B0E8F04F80F30988BFF3B3
:105D20006F8F4FF0000080F311887047AFF3008051
:105D30001C5702084FF03F0383F31188BFF36F8FA6
:105D4000BFF34F8F0B4A136801331360012B00D050
:105D500070474FF0E023D3F8043D13F0FF0FF7D066
:105D60004FF03F0383F31188BFF36F8FBFF34F8F63
:105D700001BEEDE724230008094B1B6843B94FF02F
:105D80003F0383F31188BFF36F8FBFF34F8F01BEC3
:105D9000034A1368013B13600BB983F31188704702
:105DA00024230008000000000000000000000000A4
:105DB000EFF30980BFF36F8F154B1A681EF0100FB9
:105DC00008BF20ED108A20E9F04F10602DE909008E
:105DD0004FF03F0080F31188BFF34F8FBFF36F8FF9
:105DE00001F064FA4FF0000080F3118809BC1968D3
:105DF0000868B0E8F04F1EF0100F08BFB0EC108A32
:105E000080F30988BFF36F8F704700BFAFF3008046
:105E10001C5702084FF0E022002313619361074BE7
:105E20001B680749A1FB03139B09013B536107232F
:105E30001361044B9B68044ADA637047E022000850
:105E4000D34D621000ED00E0B15C001030B583B0BE
:105E50004FF0E023D3F8002D3E4B9A421AD04FF07A
:105E6000E023D3F8002D3C4B9A421DD03B4B1A78CF
:105E7000D2B20192FF221A701B78DBB28DF8033088
:105E80009DF8033003F03F03354A1370354B07226A
:105E90001A601DE04FF03F0383F31188BFF36F8F4B
:105EA000BFF34F8F01BEDAE74FF03F0383F3118852
:105EB000BFF36F8FBFF34F8F01BED7E7294A136837
:105EC000013B13609DF803305B00DBB28DF80330BB
:105ED0009DF8033013F0800FF0D1224B1B68042B88
:105EE00008D04FF03F0383F31188BFF36F8FBFF3E8
:105EF0004F8F01BE1B4A13681B02136003F4E0635B
:105F00001360019BDBB2154A13704FF0E024D4F804
:105F1000203D43F47F03C4F8203DD4F8203D43F0F6
:105F20007F43C4F8203DFFF775FF00250E4B1D6031
:105F3000FFF7B4FED4F8343F43F04043C4F8343F95
:105F4000FFF798FE01F0B2F9FFF774FE284603B0A0
:105F500030BD00BF71C20F4170C20F4100E400E0CC
:105F6000A4560008A856000824230008EFF3058370
:105F70000F2B0FD9114A9B5CDBB2114A12789A425F
:105F800008D94FF03F0383F31188BFF36F8FBFF33E
:105F90004F8F01BE4FF0E023D3F80C3D03F4E063D4
:105FA000084A1268934208D94FF03F0383F31188DF
:105FB000BFF36F8FBFF34F8F01BE7047F0E300E078
:105FC000A4560008A85600084FF03F0383F3118839
:105FD000BFF36F8FBFF34F8F01BEFEE74FF03F035C
:105FE00083F31188BFF36F8FBFF34F8F01BEFEE7BE
:105FF000124A12F0070F1ED0D11D21F00701C1F582
:10600000003313440A460E480260002141601344E5
:10601000083B23F007030B48036059601960991A85
:1060200051601360084B1960084B1960084B4FF022
:1060300000421A6070474FF40033E4E7B05600089E
:10604000C4560208AC560008B8560208B4560208F6
:10605000B0560208164B1A461B688342FBD35168A0
:1060600002EB010C844509D0416800EB010C63454B
:1060700009D00360904219D0106070474068014415
:1060800051601046F0E710B40A4C2468A3420BD0CC
:106090005B681944416013681B680360904200D03C
:1060A00010605DF8044B70470460F7E7704700BF6D
:1060B000C4560208AC56000838B5044601F056FC38
:1060C000414B1B6833B3414B1B681C4225D1631EF7
:1060D00013F10A0F0BD804F1080214F0070F05D0D2
:1060E00022F007030833934267D91A46CAB901F070
:1060F00003F80025FFF768FF15F0070F08D04FF0F1
:106100003F0383F31188BFF36F8FBFF34F8F01BE3F
:10611000284638BDFFF76CFFD5E700F0EDFF0025FE
:10612000E8E72B4B1B68934202D32A490C6805E031
:1061300000F0E2FF0025DDE721461C46636893423C
:1061400002D22368002BF7D11F4B1B68A34230D02B
:106150000D68083523680B6063689B1A102B12D9F1
:10616000A01810F0070F08D04FF03F0383F31188F9
:10617000BFF36F8FBFF34F8F01BE63689B1A4360FD
:106180006260FFF767FF626811490B689B1A0B603A
:10619000114909688B4201D20F490B600B4B1B68F8
:1061A00013436360002323600C4A136801331360B8
:1061B00004E000F0A1FF00259CE7002500F09CFF13
:1061C000002D99D196E700BFAC560008B0560208E2
:1061D000B4560208C4560208B8560208BC56020853
:1061E00000283ED038B50446A0F1080550F8042C2C
:1061F0001C4B1B681A4208D14FF03F0383F31188F0
:10620000BFF36F8FBFF34F8F01BE54F8083C43B10B
:106210004FF03F0383F31188BFF36F8FBFF34F8FAE
:1062200001BE54F8043C0F4A1268134202D054F8DD
:10623000081C01B138BD23EA020344F8043C01F014
:1062400095FB54F8041C084A13680B441360284655
:10625000FFF700FF054A13680133136000F04CFF9D
:10626000E8E77047B0560208B4560208C056020864
:106270000346406A18B11B6B1868C0F107007047ED
:1062800010B50446FFF756FDA26BE36B9A4204D0AB
:106290000024FFF771FD204610BD0124F9E710B579
:1062A0000446FFF747FDA36B23B90124FFF764FD04
:1062B000204610BD0024F9E770B504461546866BEC
:1062C000026C5AB903681BB100200136A66370BD89
:1062D000806801F0CBFB0023A360F6E76DB940684E
:1062E0000BF004FA226C636813446360A268934263
:1062F00019D3236863602846E7E7C0680BF0F6F916
:10630000226C5142E3689B1AE3602268934202D2F6
:10631000A3680B44E360022D01D00020D5E726B12D
:10632000013E0020D1E72846CFE70020CDE7034615
:10633000026C6AB110B50846D9681144D9609C68EE
:10634000A14201D31968D960D9680BF0CFF910BD0B
:10635000704738B50546FFF7EDFC95F8454064B247
:1063600001E0013C64B2002C0ADD6B6A43B105F127
:10637000240001F0BBF80028F3D001F08DF9F0E71C
:10638000FF2385F84530FFF7F7FCFFF7D3FC95F8BE
:10639000444064B201E0013C64B2002C0ADD2B6988
:1063A00043B105F1100001F0A1F80028F3D001F08D
:1063B00073F9F0E7FF2385F84430FFF7DDFC38BDC3
:1063C0002DE9F8430E4691461D460446C8B116B362
:1063D000022D2DD0FFF7CAFDEFF311884FF03F03D8
:1063E00083F31188BFF36F8FBFF34F8FA26BE36B03
:1063F0009A422AD3022D28D0002088F31188BDE8C4
:10640000F8834FF03F0383F31188BFF36F8FBFF31F
:106410004F8F01BEDBE7236C002BD9D04FF03F0339
:1064200083F31188BFF36F8FBFF34F8F01BECFE7A8
:10643000E36B012BCED04FF03F0383F31188BFF302
:106440006F8FBFF34F8F01BEC4E794F845707FB2E2
:10645000A36B2A4631462046FFF72EFFB7F1FF3FD8
:1064600007D07F2F15D001377FB284F84570012007
:10647000C3E7636A0BB90120BFE704F1240001F010
:1064800035F880B1B9F1000F0FD00120C9F8000034
:10649000B3E74FF03F0383F31188BFF36F8FBFF370
:1064A0004F8F01BEDFE70120A7E70120A5E770B508
:1064B0000E46044660B3236C43B14FF03F0383F3B1
:1064C0001188BFF36F8FBFF34F8F01BE23684BB3AB
:1064D000FFF74CFDEFF311854FF03F0383F3118875
:1064E000BFF36F8FBFF34F8FA26BE36B93423DD926
